{
  "_format": "hh-sol-artifact-1",
  "contractName": "PoisonEssenceExtractor",
  "sourceName": "contracts/PoisonEssenceExtractor.sol",
  "abi": [
    {
      "anonymous": false,
      "inputs": [
        {
          "indexed": true,
          "internalType": "address",
          "name": "previousOwner",
          "type": "address"
        },
        {
          "indexed": true,
          "internalType": "address",
          "name": "newOwner",
          "type": "address"
        }
      ],
      "name": "OwnershipTransferred",
      "type": "event"
    },
    {
      "inputs": [],
      "name": "basicExtractionRate",
      "outputs": [
        {
          "internalType": "uint256",
          "name": "",
          "type": "uint256"
        }
      ],
      "stateMutability": "view",
      "type": "function"
    },
    {
      "inputs": [],
      "name": "claimTokens",
      "outputs": [
        {
          "internalType": "uint256",
          "name": "",
          "type": "uint256"
        }
      ],
      "stateMutability": "nonpayable",
      "type": "function"
    },
    {
      "inputs": [
        {
          "internalType": "uint256",
          "name": "_amount",
          "type": "uint256"
        }
      ],
      "name": "depositExtractors",
      "outputs": [
        {
          "internalType": "uint256",
          "name": "",
          "type": "uint256"
        }
      ],
      "stateMutability": "nonpayable",
      "type": "function"
    },
    {
      "inputs": [
        {
          "internalType": "address",
          "name": "userAddress",
          "type": "address"
        }
      ],
      "name": "getBlocksBeforeNextClaim",
      "outputs": [
        {
          "internalType": "uint256",
          "name": "",
          "type": "uint256"
        }
      ],
      "stateMutability": "view",
      "type": "function"
    },
    {
      "inputs": [],
      "name": "getClaimCooldown",
      "outputs": [
        {
          "internalType": "uint256",
          "name": "",
          "type": "uint256"
        }
      ],
      "stateMutability": "view",
      "type": "function"
    },
    {
      "inputs": [],
      "name": "getClaimableTokens",
      "outputs": [
        {
          "internalType": "uint256",
          "name": "",
          "type": "uint256"
        }
      ],
      "stateMutability": "view",
      "type": "function"
    },
    {
      "inputs": [
        {
          "internalType": "address",
          "name": "userAddress",
          "type": "address"
        }
      ],
      "name": "getDepositedExtractors",
      "outputs": [
        {
          "internalType": "uint256",
          "name": "",
          "type": "uint256"
        }
      ],
      "stateMutability": "view",
      "type": "function"
    },
    {
      "inputs": [
        {
          "internalType": "uint256",
          "name": "_extractorsAmount",
          "type": "uint256"
        }
      ],
      "name": "getExtractionRate",
      "outputs": [
        {
          "internalType": "uint256",
          "name": "",
          "type": "uint256"
        }
      ],
      "stateMutability": "view",
      "type": "function"
    },
    {
      "inputs": [
        {
          "internalType": "uint256",
          "name": "extractorsAmount",
          "type": "uint256"
        }
      ],
      "name": "getMultiplier",
      "outputs": [
        {
          "internalType": "uint256",
          "name": "",
          "type": "uint256"
        }
      ],
      "stateMutability": "view",
      "type": "function"
    },
    {
      "inputs": [
        {
          "internalType": "address",
          "name": "userAddress",
          "type": "address"
        }
      ],
      "name": "getNextClaimBlock",
      "outputs": [
        {
          "internalType": "uint256",
          "name": "",
          "type": "uint256"
        }
      ],
      "stateMutability": "view",
      "type": "function"
    },
    {
      "inputs": [
        {
          "internalType": "address",
          "name": "userAddress",
          "type": "address"
        }
      ],
      "name": "initializeNewAccount",
      "outputs": [],
      "stateMutability": "nonpayable",
      "type": "function"
    },
    {
      "inputs": [
        {
          "internalType": "address",
          "name": "peTokenAddress",
          "type": "address"
        }
      ],
      "name": "initializeTokenManagement",
      "outputs": [],
      "stateMutability": "nonpayable",
      "type": "function"
    },
    {
      "inputs": [
        {
          "internalType": "address",
          "name": "",
          "type": "address"
        }
      ],
      "name": "lastInteraction",
      "outputs": [
        {
          "internalType": "uint256",
          "name": "",
          "type": "uint256"
        }
      ],
      "stateMutability": "view",
      "type": "function"
    },
    {
      "inputs": [
        {
          "internalType": "address",
          "name": "operator",
          "type": "address"
        },
        {
          "internalType": "address",
          "name": "from",
          "type": "address"
        },
        {
          "internalType": "uint256",
          "name": "id",
          "type": "uint256"
        },
        {
          "internalType": "uint256",
          "name": "value",
          "type": "uint256"
        },
        {
          "internalType": "bytes",
          "name": "data",
          "type": "bytes"
        }
      ],
      "name": "onERC1155Received",
      "outputs": [
        {
          "internalType": "bytes4",
          "name": "",
          "type": "bytes4"
        }
      ],
      "stateMutability": "pure",
      "type": "function"
    },
    {
      "inputs": [],
      "name": "openseaExtractorSmartContract",
      "outputs": [
        {
          "internalType": "contract IERC1155",
          "name": "",
          "type": "address"
        }
      ],
      "stateMutability": "view",
      "type": "function"
    },
    {
      "inputs": [],
      "name": "openseaExtractorTokenId",
      "outputs": [
        {
          "internalType": "uint256",
          "name": "",
          "type": "uint256"
        }
      ],
      "stateMutability": "view",
      "type": "function"
    },
    {
      "inputs": [],
      "name": "owner",
      "outputs": [
        {
          "internalType": "address",
          "name": "",
          "type": "address"
        }
      ],
      "stateMutability": "view",
      "type": "function"
    },
    {
      "inputs": [],
      "name": "renounceOwnership",
      "outputs": [],
      "stateMutability": "nonpayable",
      "type": "function"
    },
    {
      "inputs": [
        {
          "internalType": "address",
          "name": "tokenAddress",
          "type": "address"
        },
        {
          "internalType": "uint256",
          "name": "tokenId",
          "type": "uint256"
        }
      ],
      "name": "setExtractorTokenData",
      "outputs": [],
      "stateMutability": "nonpayable",
      "type": "function"
    },
    {
      "inputs": [
        {
          "internalType": "uint256[]",
          "name": "newValues",
          "type": "uint256[]"
        }
      ],
      "name": "setMultiplierValue",
      "outputs": [],
      "stateMutability": "nonpayable",
      "type": "function"
    },
    {
      "inputs": [
        {
          "internalType": "address",
          "name": "newOwner",
          "type": "address"
        }
      ],
      "name": "transferOwnership",
      "outputs": [],
      "stateMutability": "nonpayable",
      "type": "function"
    },
    {
      "inputs": [
        {
          "internalType": "uint256",
          "name": "newRate",
          "type": "uint256"
        }
      ],
      "name": "updateBaseExtractionRate",
      "outputs": [],
      "stateMutability": "nonpayable",
      "type": "function"
    },
    {
      "inputs": [
        {
          "internalType": "uint256",
          "name": "newCoolDown",
          "type": "uint256"
        }
      ],
      "name": "updateClaimCoolDown",
      "outputs": [],
      "stateMutability": "nonpayable",
      "type": "function"
    },
    {
      "inputs": [
        {
          "internalType": "uint256",
          "name": "_amountToRemove",
          "type": "uint256"
        }
      ],
      "name": "withdrawExtractors",
      "outputs": [
        {
          "internalType": "uint256",
          "name": "",
          "type": "uint256"
        }
      ],
      "stateMutability": "nonpayable",
      "type": "function"
    }
  ],
  "bytecode": "0x6080604052657e5196e2ae3860085560016009553480156200002057600080fd5b5062000041620000356200004760201b60201c565b6200004f60201b60201c565b62000113565b600033905090565b60008060009054906101000a900473ffffffffffffffffffffffffffffffffffffffff169050816000806101000a81548173ffffffffffffffffffffffffffffffffffffffff021916908373ffffffffffffffffffffffffffffffffffffffff1602179055508173ffffffffffffffffffffffffffffffffffffffff168173ffffffffffffffffffffffffffffffffffffffff167f8be0079c531659141344cd1fd0a4f28419497f9722a3daafe3b4186f6b6457e060405160405180910390a35050565b6124be80620001236000396000f3fe608060405234801561001057600080fd5b50600436106101585760003560e01c80638da5cb5b116100c3578063b82a52ec1161007c578063b82a52ec146103d9578063c194ee2d146103f5578063e28d153f14610413578063f23a6e6114610443578063f2fde38b14610473578063f7a2a8f81461048f57610158565b80638da5cb5b146102f1578063a4278be41461030f578063a663c4161461033f578063adf8252d1461036f578063b19dee711461039f578063b489e1bf146103bd57610158565b806361e7e31e1161011557806361e7e31e146102595780636a89e30914610277578063715018a61461029357806371ad49561461029d578063734bb1be146102b95780637f8b8675146102d557610158565b806306e229871461015d578063176e87021461017b5780631b8663e6146101ab5780633fdae051146101db57806348c54b9d1461020b5780635ff9dcbd14610229575b600080fd5b6101656104ad565b6040516101729190611801565b60405180910390f35b6101956004803603810190610190919061188e565b6104b3565b6040516101a29190611801565b60405180910390f35b6101c560048036038101906101c0919061188e565b6104fc565b6040516101d29190611801565b60405180910390f35b6101f560048036038101906101f091906118e7565b610552565b6040516102029190611801565b60405180910390f35b6102136108c4565b6040516102209190611801565b60405180910390f35b610243600480360381019061023e919061188e565b610bf1565b6040516102509190611801565b60405180910390f35b610261610c09565b60405161026e9190611801565b60405180910390f35b610291600480360381019061028c919061188e565b610c13565b005b61029b610c5f565b005b6102b760048036038101906102b291906118e7565b610c73565b005b6102d360048036038101906102ce91906118e7565b610c85565b005b6102ef60048036038101906102ea9190611a6d565b610c97565b005b6102f9610cb9565b6040516103069190611ac5565b60405180910390f35b610329600480360381019061032491906118e7565b610ce2565b6040516103369190611801565b60405180910390f35b610359600480360381019061035491906118e7565b610d3a565b6040516103669190611801565b60405180910390f35b610389600480360381019061038491906118e7565b61111a565b6040516103969190611801565b60405180910390f35b6103a7611142565b6040516103b49190611b3f565b60405180910390f35b6103d760048036038101906103d29190611b5a565b611168565b005b6103f360048036038101906103ee919061188e565b6111bc565b005b6103fd611422565b60405161040a9190611801565b60405180910390f35b61042d6004803603810190610428919061188e565b61151b565b60405161043a9190611801565b60405180910390f35b61045d60048036038101906104589190611bf5565b61157c565b60405161046a9190611cca565b60405180910390f35b61048d6004803603810190610488919061188e565b6115ab565b005b61049761162e565b6040516104a49190611801565b60405180910390f35b60085481565b6000600760008373ffffffffffffffffffffffffffffffffffffffff1673ffffffffffffffffffffffffffffffffffffffff168152602001908152602001600020549050919050565b6000600954600560008473ffffffffffffffffffffffffffffffffffffffff1673ffffffffffffffffffffffffffffffffffffffff1681526020019081526020016000205461054b9190611d14565b9050919050565b6000808211610596576040517f08c379a000000000000000000000000000000000000000000000000000000000815260040161058d90611dc7565b60405180910390fd5b600760003373ffffffffffffffffffffffffffffffffffffffff1673ffffffffffffffffffffffffffffffffffffffff16815260200190815260200160002054821115610618576040517f08c379a000000000000000000000000000000000000000000000000000000000815260040161060f90611e59565b60405180910390fd5b600160009054906101000a900473ffffffffffffffffffffffffffffffffffffffff1673ffffffffffffffffffffffffffffffffffffffff1663f242432a3033600254866040518563ffffffff1660e01b815260040161067b9493929190611ed6565b600060405180830381600087803b15801561069557600080fd5b505af11580156106a9573d6000803e3d6000fd5b5050505060006106f7600760003373ffffffffffffffffffffffffffffffffffffffff1673ffffffffffffffffffffffffffffffffffffffff16815260200190815260200160002054610ce2565b600460003373ffffffffffffffffffffffffffffffffffffffff1673ffffffffffffffffffffffffffffffffffffffff16815260200190815260200160002054436107429190611f2e565b61074c9190611f62565b90506000600660003373ffffffffffffffffffffffffffffffffffffffff1673ffffffffffffffffffffffffffffffffffffffff168152602001908152602001600020548261079b9190611d14565b905080600660003373ffffffffffffffffffffffffffffffffffffffff1673ffffffffffffffffffffffffffffffffffffffff1681526020019081526020016000208190555083600760003373ffffffffffffffffffffffffffffffffffffffff1673ffffffffffffffffffffffffffffffffffffffff16815260200190815260200160002060008282546108309190611f2e565b9250508190555043600460003373ffffffffffffffffffffffffffffffffffffffff1673ffffffffffffffffffffffffffffffffffffffff16815260200190815260200160002081905550600760003373ffffffffffffffffffffffffffffffffffffffff1673ffffffffffffffffffffffffffffffffffffffff1681526020019081526020016000205492505050919050565b60008061090f600760003373ffffffffffffffffffffffffffffffffffffffff1673ffffffffffffffffffffffffffffffffffffffff16815260200190815260200160002054610ce2565b600460003373ffffffffffffffffffffffffffffffffffffffff1673ffffffffffffffffffffffffffffffffffffffff168152602001908152602001600020544361095a9190611f2e565b6109649190611f62565b90506000600660003373ffffffffffffffffffffffffffffffffffffffff1673ffffffffffffffffffffffffffffffffffffffff16815260200190815260200160002054826109b39190611d14565b9050600081116109f8576040517f08c379a00000000000000000000000000000000000000000000000000000000081526004016109ef90612008565b60405180910390fd5b6000600560003373ffffffffffffffffffffffffffffffffffffffff1673ffffffffffffffffffffffffffffffffffffffff1681526020019081526020016000205443610a459190611f2e565b9050600954811015610a8c576040517f08c379a0000000000000000000000000000000000000000000000000000000008152600401610a8390612074565b60405180910390fd5b43600460003373ffffffffffffffffffffffffffffffffffffffff1673ffffffffffffffffffffffffffffffffffffffff1681526020019081526020016000208190555043600560003373ffffffffffffffffffffffffffffffffffffffff1673ffffffffffffffffffffffffffffffffffffffff168152602001908152602001600020819055506000600660003373ffffffffffffffffffffffffffffffffffffffff1673ffffffffffffffffffffffffffffffffffffffff16815260200190815260200160002081905550600b60009054906101000a900473ffffffffffffffffffffffffffffffffffffffff1673ffffffffffffffffffffffffffffffffffffffff166340c10f1933846040518363ffffffff1660e01b8152600401610bb6929190612094565b600060405180830381600087803b158015610bd057600080fd5b505af1158015610be4573d6000803e3d6000fd5b5050505081935050505090565b60046020528060005260406000206000915090505481565b6000600954905090565b610c1b611634565b80600b60006101000a81548173ffffffffffffffffffffffffffffffffffffffff021916908373ffffffffffffffffffffffffffffffffffffffff16021790555050565b610c67611634565b610c7160006116b2565b565b610c7b611634565b8060098190555050565b610c8d611634565b8060088190555050565b610c9f611634565b80600a9080519060200190610cb592919061177e565b5050565b60008060009054906101000a900473ffffffffffffffffffffffffffffffffffffffff16905090565b600080600a8381548110610cf957610cf86120bd565b5b9060005260206000200154905060006103e88285600854610d1a9190611f62565b610d249190611f62565b610d2e919061211b565b90508092505050919050565b6000808211610d7e576040517f08c379a0000000000000000000000000000000000000000000000000000000008152600401610d7590612198565b60405180910390fd5b6000600160009054906101000a900473ffffffffffffffffffffffffffffffffffffffff1673ffffffffffffffffffffffffffffffffffffffff1662fdd58e336002546040518363ffffffff1660e01b8152600401610dde929190612094565b602060405180830381865afa158015610dfb573d6000803e3d6000fd5b505050506040513d601f19601f82011682018060405250810190610e1f91906121cd565b905082811015610e64576040517f08c379a0000000000000000000000000000000000000000000000000000000008152600401610e5b90612246565b60405180910390fd5b600160009054906101000a900473ffffffffffffffffffffffffffffffffffffffff1673ffffffffffffffffffffffffffffffffffffffff1663f242432a3330600254876040518563ffffffff1660e01b8152600401610ec79493929190611ed6565b600060405180830381600087803b158015610ee157600080fd5b505af1158015610ef5573d6000803e3d6000fd5b505050506000600460003373ffffffffffffffffffffffffffffffffffffffff1673ffffffffffffffffffffffffffffffffffffffff1681526020019081526020016000205443610f469190611f2e565b90506000600760003373ffffffffffffffffffffffffffffffffffffffff1673ffffffffffffffffffffffffffffffffffffffff168152602001908152602001600020541461103857610fd7600760003373ffffffffffffffffffffffffffffffffffffffff1673ffffffffffffffffffffffffffffffffffffffff16815260200190815260200160002054610ce2565b81610fe29190611f62565b600660003373ffffffffffffffffffffffffffffffffffffffff1673ffffffffffffffffffffffffffffffffffffffff16815260200190815260200160002060008282546110309190611d14565b925050819055505b43600460003373ffffffffffffffffffffffffffffffffffffffff1673ffffffffffffffffffffffffffffffffffffffff16815260200190815260200160002081905550600084600760003373ffffffffffffffffffffffffffffffffffffffff1673ffffffffffffffffffffffffffffffffffffffff168152602001908152602001600020546110c99190611d14565b905080600760003373ffffffffffffffffffffffffffffffffffffffff1673ffffffffffffffffffffffffffffffffffffffff16815260200190815260200160002081905550809350505050919050565b6000600a82815481106111305761112f6120bd565b5b90600052602060002001549050919050565b600160009054906101000a900473ffffffffffffffffffffffffffffffffffffffff1681565b611170611634565b8060028190555081600160006101000a81548173ffffffffffffffffffffffffffffffffffffffff021916908373ffffffffffffffffffffffffffffffffffffffff1602179055505050565b8073ffffffffffffffffffffffffffffffffffffffff163373ffffffffffffffffffffffffffffffffffffffff161461122a576040517f08c379a0000000000000000000000000000000000000000000000000000000008152600401611221906122d8565b60405180910390fd5b60001515600360008373ffffffffffffffffffffffffffffffffffffffff1673ffffffffffffffffffffffffffffffffffffffff16815260200190815260200160002060009054906101000a900460ff161515146112bd576040517f08c379a00000000000000000000000000000000000000000000000000000000081526004016112b49061236a565b60405180910390fd5b60011515600360008373ffffffffffffffffffffffffffffffffffffffff1673ffffffffffffffffffffffffffffffffffffffff16815260200190815260200160002060009054906101000a9050505043600460008373ffffffffffffffffffffffffffffffffffffffff1673ffffffffffffffffffffffffffffffffffffffff1681526020019081526020016000208190555043600560008373ffffffffffffffffffffffffffffffffffffffff1673ffffffffffffffffffffffffffffffffffffffff168152602001908152602001600020819055506000600660008373ffffffffffffffffffffffffffffffffffffffff1673ffffffffffffffffffffffffffffffffffffffff168152602001908152602001600020819055506000600760008373ffffffffffffffffffffffffffffffffffffffff1673ffffffffffffffffffffffffffffffffffffffff1681526020019081526020016000208190555050565b60008061146d600760003373ffffffffffffffffffffffffffffffffffffffff1673ffffffffffffffffffffffffffffffffffffffff16815260200190815260200160002054610ce2565b600460003373ffffffffffffffffffffffffffffffffffffffff1673ffffffffffffffffffffffffffffffffffffffff16815260200190815260200160002054436114b89190611f2e565b6114c29190611f62565b90506000600660003373ffffffffffffffffffffffffffffffffffffffff1673ffffffffffffffffffffffffffffffffffffffff16815260200190815260200160002054826115119190611d14565b9050809250505090565b600043600954600560008573ffffffffffffffffffffffffffffffffffffffff1673ffffffffffffffffffffffffffffffffffffffff1681526020019081526020016000205461156b9190611d14565b6115759190611f2e565b9050919050565b60007ff23a6e612e1ff4830e658fe43f4e3cb4a5f8170bd5d9e69fb5d7a7fa9e4fdf9790509695505050505050565b6115b3611634565b600073ffffffffffffffffffffffffffffffffffffffff168173ffffffffffffffffffffffffffffffffffffffff1603611622576040517f08c379a0000000000000000000000000000000000000000000000000000000008152600401611619906123fc565b60405180910390fd5b61162b816116b2565b50565b60025481565b61163c611776565b73ffffffffffffffffffffffffffffffffffffffff1661165a610cb9565b73ffffffffffffffffffffffffffffffffffffffff16146116b0576040517f08c379a00000000000000000000000000000000000000000000000000000000081526004016116a790612468565b60405180910390fd5b565b60008060009054906101000a900473ffffffffffffffffffffffffffffffffffffffff169050816000806101000a81548173ffffffffffffffffffffffffffffffffffffffff021916908373ffffffffffffffffffffffffffffffffffffffff1602179055508173ffffffffffffffffffffffffffffffffffffffff168173ffffffffffffffffffffffffffffffffffffffff167f8be0079c531659141344cd1fd0a4f28419497f9722a3daafe3b4186f6b6457e060405160405180910390a35050565b600033905090565b8280548282559060005260206000209081019282156117ba579160200282015b828111156117b957825182559160200191906001019061179e565b5b5090506117c791906117cb565b5090565b5b808211156117e45760008160009055506001016117cc565b5090565b6000819050919050565b6117fb816117e8565b82525050565b600060208201905061181660008301846117f2565b92915050565b6000604051905090565b600080fd5b600080fd5b600073ffffffffffffffffffffffffffffffffffffffff82169050919050565b600061185b82611830565b9050919050565b61186b81611850565b811461187657600080fd5b50565b60008135905061188881611862565b92915050565b6000602082840312156118a4576118a3611826565b5b60006118b284828501611879565b91505092915050565b6118c4816117e8565b81146118cf57600080fd5b50565b6000813590506118e1816118bb565b92915050565b6000602082840312156118fd576118fc611826565b5b600061190b848285016118d2565b91505092915050565b600080fd5b6000601f19601f8301169050919050565b7f4e487b7100000000000000000000000000000000000000000000000000000000600052604160045260246000fd5b61196282611919565b810181811067ffffffffffffffff821117156119815761198061192a565b5b80604052505050565b600061199461181c565b90506119a08282611959565b919050565b600067ffffffffffffffff8211156119c0576119bf61192a565b5b602082029050602081019050919050565b600080fd5b60006119e96119e4846119a5565b61198a565b90508083825260208201905060208402830185811115611a0c57611a0b6119d1565b5b835b81811015611a355780611a2188826118d2565b845260208401935050602081019050611a0e565b5050509392505050565b600082601f830112611a5457611a53611914565b5b8135611a648482602086016119d6565b91505092915050565b600060208284031215611a8357611a82611826565b5b600082013567ffffffffffffffff811115611aa157611aa061182b565b5b611aad84828501611a3f565b91505092915050565b611abf81611850565b82525050565b6000602082019050611ada6000830184611ab6565b92915050565b6000819050919050565b6000611b05611b00611afb84611830565b611ae0565b611830565b9050919050565b6000611b1782611aea565b9050919050565b6000611b2982611b0c565b9050919050565b611b3981611b1e565b82525050565b6000602082019050611b546000830184611b30565b92915050565b60008060408385031215611b7157611b70611826565b5b6000611b7f85828601611879565b9250506020611b90858286016118d2565b9150509250929050565b600080fd5b60008083601f840112611bb557611bb4611914565b5b8235905067ffffffffffffffff811115611bd257611bd1611b9a565b5b602083019150836001820283011115611bee57611bed6119d1565b5b9250929050565b60008060008060008060a08789031215611c1257611c11611826565b5b6000611c2089828a01611879565b9650506020611c3189828a01611879565b9550506040611c4289828a016118d2565b9450506060611c5389828a016118d2565b935050608087013567ffffffffffffffff811115611c7457611c7361182b565b5b611c8089828a01611b9f565b92509250509295509295509295565b60007fffffffff0000000000000000000000000000000000000000000000000000000082169050919050565b611cc481611c8f565b82525050565b6000602082019050611cdf6000830184611cbb565b92915050565b7f4e487b7100000000000000000000000000000000000000000000000000000000600052601160045260246000fd5b6000611d1f826117e8565b9150611d2a836117e8565b9250827fffffffffffffffffffffffffffffffffffffffffffffffffffffffffffffffff03821115611d5f57611d5e611ce5565b5b828201905092915050565b600082825260208201905092915050565b7f446f6e2774207370656e642067617320666f72206e6f7468696e670000000000600082015250565b6000611db1601b83611d6a565b9150611dbc82611d7b565b602082019050919050565b60006020820190508181036000830152611de081611da4565b9050919050565b7f43616e2774207769746864726177206d6f726520657874726163746f7273207460008201527f68617420796f75206f776e210000000000000000000000000000000000000000602082015250565b6000611e43602c83611d6a565b9150611e4e82611de7565b604082019050919050565b60006020820190508181036000830152611e7281611e36565b9050919050565b600082825260208201905092915050565b7f3078303000000000000000000000000000000000000000000000000000000000600082015250565b6000611ec0600483611e79565b9150611ecb82611e8a565b602082019050919050565b600060a082019050611eeb6000830187611ab6565b611ef86020830186611ab6565b611f0560408301856117f2565b611f1260608301846117f2565b8181036080830152611f2381611eb3565b905095945050505050565b6000611f39826117e8565b9150611f44836117e8565b925082821015611f5757611f56611ce5565b5b828203905092915050565b6000611f6d826117e8565b9150611f78836117e8565b9250817fffffffffffffffffffffffffffffffffffffffffffffffffffffffffffffffff0483118215151615611fb157611fb0611ce5565b5b828202905092915050565b7f43616e6e6f7420636c61696d203020746f6b656e732e00000000000000000000600082015250565b6000611ff2601683611d6a565b9150611ffd82611fbc565b602082019050919050565b6000602082019050818103600083015261202181611fe5565b9050919050565b7f4974277320746f6f206561726c7920746f20636c61696d20616761696e000000600082015250565b600061205e601d83611d6a565b915061206982612028565b602082019050919050565b6000602082019050818103600083015261208d81612051565b9050919050565b60006040820190506120a96000830185611ab6565b6120b660208301846117f2565b9392505050565b7f4e487b7100000000000000000000000000000000000000000000000000000000600052603260045260246000fd5b7f4e487b7100000000000000000000000000000000000000000000000000000000600052601260045260246000fd5b6000612126826117e8565b9150612131836117e8565b925082612141576121406120ec565b5b828204905092915050565b7f4465706f736974206174206c65617374203120657874726163746f7200000000600082015250565b6000612182601c83611d6a565b915061218d8261214c565b602082019050919050565b600060208201905081810360008301526121b181612175565b9050919050565b6000815190506121c7816118bb565b92915050565b6000602082840312156121e3576121e2611826565b5b60006121f1848285016121b8565b91505092915050565b7f596f7520646f6e2774206f776e20656e6f75676820657874726163746f727300600082015250565b6000612230601f83611d6a565b915061223b826121fa565b602082019050919050565b6000602082019050818103600083015261225f81612223565b9050919050565b7f43616e6e6f7420696e697469616c697a65206f7468657273206163636f756e7460008201527f2100000000000000000000000000000000000000000000000000000000000000602082015250565b60006122c2602183611d6a565b91506122cd82612266565b604082019050919050565b600060208201905081810360008301526122f1816122b5565b9050919050565b7f43616e6e6f7420696e697469616c697a6520746865206163636f756e7420322060008201527f74696d6573000000000000000000000000000000000000000000000000000000602082015250565b6000612354602583611d6a565b915061235f826122f8565b604082019050919050565b6000602082019050818103600083015261238381612347565b9050919050565b7f4f776e61626c653a206e6577206f776e657220697320746865207a65726f206160008201527f6464726573730000000000000000000000000000000000000000000000000000602082015250565b60006123e6602683611d6a565b91506123f18261238a565b604082019050919050565b60006020820190508181036000830152612415816123d9565b9050919050565b7f4f776e61626c653a2063616c6c6572206973206e6f7420746865206f776e6572600082015250565b6000612452602083611d6a565b915061245d8261241c565b602082019050919050565b6000602082019050818103600083015261248181612445565b905091905056fea2646970667358221220826acc3b44a529c1b3e16f72098e8e24eb091f508910acf6985a0a08bbd27ea864736f6c634300080d0033",
  "linkReferences": {},
  "deployedLinkReferences": {}
}