{
  "_format": "hh-sol-artifact-1",
  "contractName": "PoisonEssenceExtractor",
  "sourceName": "contracts/PoisonEssenceExtractor.sol",
  "abi": [
    {
      "anonymous": false,
      "inputs": [
        {
          "indexed": true,
          "internalType": "address",
          "name": "previousOwner",
          "type": "address"
        },
        {
          "indexed": true,
          "internalType": "address",
          "name": "newOwner",
          "type": "address"
        }
      ],
      "name": "OwnershipTransferred",
      "type": "event"
    },
    {
      "inputs": [
        {
          "internalType": "address",
          "name": "",
          "type": "address"
        }
      ],
      "name": "_depositedExtractors",
      "outputs": [
        {
          "internalType": "uint256",
          "name": "",
          "type": "uint256"
        }
      ],
      "stateMutability": "view",
      "type": "function"
    },
    {
      "inputs": [],
      "name": "basicExtractionRate",
      "outputs": [
        {
          "internalType": "uint256",
          "name": "",
          "type": "uint256"
        }
      ],
      "stateMutability": "view",
      "type": "function"
    },
    {
      "inputs": [],
      "name": "claimCooldown",
      "outputs": [
        {
          "internalType": "uint256",
          "name": "",
          "type": "uint256"
        }
      ],
      "stateMutability": "view",
      "type": "function"
    },
    {
      "inputs": [],
      "name": "claimTokens",
      "outputs": [
        {
          "internalType": "uint256",
          "name": "",
          "type": "uint256"
        }
      ],
      "stateMutability": "nonpayable",
      "type": "function"
    },
    {
      "inputs": [
        {
          "internalType": "uint256",
          "name": "_amount",
          "type": "uint256"
        }
      ],
      "name": "depositExtractors",
      "outputs": [
        {
          "internalType": "uint256",
          "name": "",
          "type": "uint256"
        }
      ],
      "stateMutability": "nonpayable",
      "type": "function"
    },
    {
      "inputs": [],
      "name": "extractionRateDecimals",
      "outputs": [
        {
          "internalType": "uint256",
          "name": "",
          "type": "uint256"
        }
      ],
      "stateMutability": "view",
      "type": "function"
    },
    {
      "inputs": [],
      "name": "getClaimableTokens",
      "outputs": [
        {
          "internalType": "uint256",
          "name": "",
          "type": "uint256"
        }
      ],
      "stateMutability": "view",
      "type": "function"
    },
    {
      "inputs": [
        {
          "internalType": "uint256",
          "name": "_extractorsAmount",
          "type": "uint256"
        }
      ],
      "name": "getExtractionRate",
      "outputs": [
        {
          "internalType": "uint256",
          "name": "",
          "type": "uint256"
        }
      ],
      "stateMutability": "view",
      "type": "function"
    },
    {
      "inputs": [],
      "name": "initializeAccount",
      "outputs": [],
      "stateMutability": "nonpayable",
      "type": "function"
    },
    {
      "inputs": [
        {
          "internalType": "address",
          "name": "tokenAddress",
          "type": "address"
        }
      ],
      "name": "initializeTokenManagement",
      "outputs": [],
      "stateMutability": "nonpayable",
      "type": "function"
    },
    {
      "inputs": [
        {
          "internalType": "address",
          "name": "",
          "type": "address"
        }
      ],
      "name": "initializedAccount",
      "outputs": [
        {
          "internalType": "bool",
          "name": "",
          "type": "bool"
        }
      ],
      "stateMutability": "view",
      "type": "function"
    },
    {
      "inputs": [
        {
          "internalType": "address",
          "name": "",
          "type": "address"
        }
      ],
      "name": "lastClaim",
      "outputs": [
        {
          "internalType": "uint256",
          "name": "",
          "type": "uint256"
        }
      ],
      "stateMutability": "view",
      "type": "function"
    },
    {
      "inputs": [
        {
          "internalType": "address",
          "name": "",
          "type": "address"
        }
      ],
      "name": "lastInteraction",
      "outputs": [
        {
          "internalType": "uint256",
          "name": "",
          "type": "uint256"
        }
      ],
      "stateMutability": "view",
      "type": "function"
    },
    {
      "inputs": [
        {
          "internalType": "address",
          "name": "tokenAddress",
          "type": "address"
        }
      ],
      "name": "linkOpenseaPoisonEssenceExtractor",
      "outputs": [],
      "stateMutability": "nonpayable",
      "type": "function"
    },
    {
      "inputs": [
        {
          "internalType": "address",
          "name": "operator",
          "type": "address"
        },
        {
          "internalType": "address",
          "name": "from",
          "type": "address"
        },
        {
          "internalType": "uint256",
          "name": "id",
          "type": "uint256"
        },
        {
          "internalType": "uint256",
          "name": "value",
          "type": "uint256"
        },
        {
          "internalType": "bytes",
          "name": "data",
          "type": "bytes"
        }
      ],
      "name": "onERC1155Received",
      "outputs": [
        {
          "internalType": "bytes4",
          "name": "",
          "type": "bytes4"
        }
      ],
      "stateMutability": "pure",
      "type": "function"
    },
    {
      "inputs": [],
      "name": "openseaExtractorSmartContract",
      "outputs": [
        {
          "internalType": "contract IERC1155",
          "name": "",
          "type": "address"
        }
      ],
      "stateMutability": "view",
      "type": "function"
    },
    {
      "inputs": [],
      "name": "openseaExtractorTokenId",
      "outputs": [
        {
          "internalType": "uint256",
          "name": "",
          "type": "uint256"
        }
      ],
      "stateMutability": "view",
      "type": "function"
    },
    {
      "inputs": [],
      "name": "owner",
      "outputs": [
        {
          "internalType": "address",
          "name": "",
          "type": "address"
        }
      ],
      "stateMutability": "view",
      "type": "function"
    },
    {
      "inputs": [],
      "name": "renounceOwnership",
      "outputs": [],
      "stateMutability": "nonpayable",
      "type": "function"
    },
    {
      "inputs": [
        {
          "internalType": "uint256",
          "name": "tokenId",
          "type": "uint256"
        }
      ],
      "name": "setExtractorTokenId",
      "outputs": [],
      "stateMutability": "nonpayable",
      "type": "function"
    },
    {
      "inputs": [
        {
          "internalType": "address",
          "name": "newOwner",
          "type": "address"
        }
      ],
      "name": "transferOwnership",
      "outputs": [],
      "stateMutability": "nonpayable",
      "type": "function"
    },
    {
      "inputs": [
        {
          "internalType": "uint256",
          "name": "newRate",
          "type": "uint256"
        }
      ],
      "name": "updateExtractionRate",
      "outputs": [],
      "stateMutability": "nonpayable",
      "type": "function"
    },
    {
      "inputs": [
        {
          "internalType": "uint256",
          "name": "_amountToRemove",
          "type": "uint256"
        }
      ],
      "name": "withdrawExtractors",
      "outputs": [
        {
          "internalType": "uint256",
          "name": "",
          "type": "uint256"
        }
      ],
      "stateMutability": "nonpayable",
      "type": "function"
    }
  ],
  "bytecode": "0x6080604052670de0b6b3a764000060085560036009556001600a5534801561002657600080fd5b5061004361003861004860201b60201c565b61005060201b60201c565b610114565b600033905090565b60008060009054906101000a900473ffffffffffffffffffffffffffffffffffffffff169050816000806101000a81548173ffffffffffffffffffffffffffffffffffffffff021916908373ffffffffffffffffffffffffffffffffffffffff1602179055508173ffffffffffffffffffffffffffffffffffffffff168173ffffffffffffffffffffffffffffffffffffffff167f8be0079c531659141344cd1fd0a4f28419497f9722a3daafe3b4186f6b6457e060405160405180910390a35050565b61220c80620001246000396000f3fe608060405234801561001057600080fd5b506004361061014d5760003560e01c806387381215116100c3578063c194ee2d1161007c578063c194ee2d146103a0578063ca028ab9146103be578063f23a6e61146103da578063f2fde38b1461040a578063f7a2a8f814610426578063fdea3657146104445761014d565b806387381215146102cc5780638da5cb5b146102e8578063a3ec599614610306578063a4278be414610322578063a663c41614610352578063b19dee71146103825761014d565b80635c16e15e116101155780635c16e15e1461020c5780635ff9dcbd1461023c578063615123551461026c5780636a89e309146102765780636c46347e14610292578063715018a6146102c25761014d565b806306e2298714610152578063162d74d5146101705780632565f272146101a05780633fdae051146101be57806348c54b9d146101ee575b600080fd5b61015a610462565b60405161016791906115f8565b60405180910390f35b61018a6004803603810190610185919061167b565b610468565b60405161019791906116c3565b60405180910390f35b6101a8610488565b6040516101b591906115f8565b60405180910390f35b6101d860048036038101906101d3919061170a565b61048e565b6040516101e591906115f8565b60405180910390f35b6101f6610800565b60405161020391906115f8565b60405180910390f35b6102266004803603810190610221919061167b565b610b2d565b60405161023391906115f8565b60405180910390f35b6102566004803603810190610251919061167b565b610b45565b60405161026391906115f8565b60405180910390f35b610274610b5d565b005b610290600480360381019061028b919061167b565b610d54565b005b6102ac60048036038101906102a7919061167b565b610da0565b6040516102b991906115f8565b60405180910390f35b6102ca610db8565b005b6102e660048036038101906102e1919061170a565b610dcc565b005b6102f0610e21565b6040516102fd9190611746565b60405180910390f35b610320600480360381019061031b919061167b565b610e4a565b005b61033c6004803603810190610337919061170a565b610e96565b60405161034991906115f8565b60405180910390f35b61036c6004803603810190610367919061170a565b610ec6565b60405161037991906115f8565b60405180910390f35b61038a6112a6565b60405161039791906117c0565b60405180910390f35b6103a86112cc565b6040516103b591906115f8565b60405180910390f35b6103d860048036038101906103d3919061170a565b6113c5565b005b6103f460048036038101906103ef9190611840565b6113d7565b6040516104019190611915565b60405180910390f35b610424600480360381019061041f919061167b565b611406565b005b61042e611489565b60405161043b91906115f8565b60405180910390f35b61044c61148f565b60405161045991906115f8565b60405180910390f35b60085481565b60036020528060005260406000206000915054906101000a900460ff1681565b60095481565b60008082116104d2576040517f08c379a00000000000000000000000000000000000000000000000000000000081526004016104c99061198d565b60405180910390fd5b600760003373ffffffffffffffffffffffffffffffffffffffff1673ffffffffffffffffffffffffffffffffffffffff16815260200190815260200160002054821115610554576040517f08c379a000000000000000000000000000000000000000000000000000000000815260040161054b90611a1f565b60405180910390fd5b600160009054906101000a900473ffffffffffffffffffffffffffffffffffffffff1673ffffffffffffffffffffffffffffffffffffffff1663f242432a3033600254866040518563ffffffff1660e01b81526004016105b79493929190611a9c565b600060405180830381600087803b1580156105d157600080fd5b505af11580156105e5573d6000803e3d6000fd5b505050506000610633600760003373ffffffffffffffffffffffffffffffffffffffff1673ffffffffffffffffffffffffffffffffffffffff16815260200190815260200160002054610e96565b600460003373ffffffffffffffffffffffffffffffffffffffff1673ffffffffffffffffffffffffffffffffffffffff168152602001908152602001600020544361067e9190611b23565b6106889190611b57565b90506000600660003373ffffffffffffffffffffffffffffffffffffffff1673ffffffffffffffffffffffffffffffffffffffff16815260200190815260200160002054826106d79190611bb1565b905080600660003373ffffffffffffffffffffffffffffffffffffffff1673ffffffffffffffffffffffffffffffffffffffff1681526020019081526020016000208190555083600760003373ffffffffffffffffffffffffffffffffffffffff1673ffffffffffffffffffffffffffffffffffffffff168152602001908152602001600020600082825461076c9190611b23565b9250508190555043600460003373ffffffffffffffffffffffffffffffffffffffff1673ffffffffffffffffffffffffffffffffffffffff16815260200190815260200160002081905550600760003373ffffffffffffffffffffffffffffffffffffffff1673ffffffffffffffffffffffffffffffffffffffff1681526020019081526020016000205492505050919050565b60008061084b600760003373ffffffffffffffffffffffffffffffffffffffff1673ffffffffffffffffffffffffffffffffffffffff16815260200190815260200160002054610e96565b600460003373ffffffffffffffffffffffffffffffffffffffff1673ffffffffffffffffffffffffffffffffffffffff16815260200190815260200160002054436108969190611b23565b6108a09190611b57565b90506000600660003373ffffffffffffffffffffffffffffffffffffffff1673ffffffffffffffffffffffffffffffffffffffff16815260200190815260200160002054826108ef9190611bb1565b905060008111610934576040517f08c379a000000000000000000000000000000000000000000000000000000000815260040161092b90611c53565b60405180910390fd5b6000600560003373ffffffffffffffffffffffffffffffffffffffff1673ffffffffffffffffffffffffffffffffffffffff16815260200190815260200160002054436109819190611b23565b9050600a548110156109c8576040517f08c379a00000000000000000000000000000000000000000000000000000000081526004016109bf90611cbf565b60405180910390fd5b43600460003373ffffffffffffffffffffffffffffffffffffffff1673ffffffffffffffffffffffffffffffffffffffff1681526020019081526020016000208190555043600560003373ffffffffffffffffffffffffffffffffffffffff1673ffffffffffffffffffffffffffffffffffffffff168152602001908152602001600020819055506000600660003373ffffffffffffffffffffffffffffffffffffffff1673ffffffffffffffffffffffffffffffffffffffff16815260200190815260200160002081905550600b60009054906101000a900473ffffffffffffffffffffffffffffffffffffffff1673ffffffffffffffffffffffffffffffffffffffff166340c10f1933846040518363ffffffff1660e01b8152600401610af2929190611cdf565b600060405180830381600087803b158015610b0c57600080fd5b505af1158015610b20573d6000803e3d6000fd5b5050505081935050505090565b60056020528060005260406000206000915090505481565b60046020528060005260406000206000915090505481565b60001515600360003373ffffffffffffffffffffffffffffffffffffffff1673ffffffffffffffffffffffffffffffffffffffff16815260200190815260200160002060009054906101000a900460ff16151514610bf0576040517f08c379a0000000000000000000000000000000000000000000000000000000008152600401610be790611d54565b60405180910390fd5b60011515600360003373ffffffffffffffffffffffffffffffffffffffff1673ffffffffffffffffffffffffffffffffffffffff16815260200190815260200160002060009054906101000a9050505043600460003373ffffffffffffffffffffffffffffffffffffffff1673ffffffffffffffffffffffffffffffffffffffff1681526020019081526020016000208190555043600560003373ffffffffffffffffffffffffffffffffffffffff1673ffffffffffffffffffffffffffffffffffffffff168152602001908152602001600020819055506000600660003373ffffffffffffffffffffffffffffffffffffffff1673ffffffffffffffffffffffffffffffffffffffff168152602001908152602001600020819055506000600760003373ffffffffffffffffffffffffffffffffffffffff1673ffffffffffffffffffffffffffffffffffffffff16815260200190815260200160002081905550565b610d5c611495565b80600b60006101000a81548173ffffffffffffffffffffffffffffffffffffffff021916908373ffffffffffffffffffffffffffffffffffffffff16021790555050565b60076020528060005260406000206000915090505481565b610dc0611495565b610dca6000611513565b565b610dd4611495565b60008103610e17576040517f08c379a0000000000000000000000000000000000000000000000000000000008152600401610e0e90611dc0565b60405180910390fd5b8060028190555050565b60008060009054906101000a900473ffffffffffffffffffffffffffffffffffffffff16905090565b610e52611495565b80600160006101000a81548173ffffffffffffffffffffffffffffffffffffffff021916908373ffffffffffffffffffffffffffffffffffffffff16021790555050565b6000600954600a610ea79190611f13565b82600854610eb59190611b57565b610ebf9190611f8d565b9050919050565b6000808211610f0a576040517f08c379a0000000000000000000000000000000000000000000000000000000008152600401610f019061200a565b60405180910390fd5b6000600160009054906101000a900473ffffffffffffffffffffffffffffffffffffffff1673ffffffffffffffffffffffffffffffffffffffff1662fdd58e336002546040518363ffffffff1660e01b8152600401610f6a929190611cdf565b602060405180830381865afa158015610f87573d6000803e3d6000fd5b505050506040513d601f19601f82011682018060405250810190610fab919061203f565b905082811015610ff0576040517f08c379a0000000000000000000000000000000000000000000000000000000008152600401610fe7906120b8565b60405180910390fd5b600160009054906101000a900473ffffffffffffffffffffffffffffffffffffffff1673ffffffffffffffffffffffffffffffffffffffff1663f242432a3330600254876040518563ffffffff1660e01b81526004016110539493929190611a9c565b600060405180830381600087803b15801561106d57600080fd5b505af1158015611081573d6000803e3d6000fd5b505050506000600460003373ffffffffffffffffffffffffffffffffffffffff1673ffffffffffffffffffffffffffffffffffffffff16815260200190815260200160002054436110d29190611b23565b90506000600760003373ffffffffffffffffffffffffffffffffffffffff1673ffffffffffffffffffffffffffffffffffffffff16815260200190815260200160002054146111c457611163600760003373ffffffffffffffffffffffffffffffffffffffff1673ffffffffffffffffffffffffffffffffffffffff16815260200190815260200160002054610e96565b8161116e9190611b57565b600660003373ffffffffffffffffffffffffffffffffffffffff1673ffffffffffffffffffffffffffffffffffffffff16815260200190815260200160002060008282546111bc9190611bb1565b925050819055505b43600460003373ffffffffffffffffffffffffffffffffffffffff1673ffffffffffffffffffffffffffffffffffffffff16815260200190815260200160002081905550600084600760003373ffffffffffffffffffffffffffffffffffffffff1673ffffffffffffffffffffffffffffffffffffffff168152602001908152602001600020546112559190611bb1565b905080600760003373ffffffffffffffffffffffffffffffffffffffff1673ffffffffffffffffffffffffffffffffffffffff16815260200190815260200160002081905550809350505050919050565b600160009054906101000a900473ffffffffffffffffffffffffffffffffffffffff1681565b600080611317600760003373ffffffffffffffffffffffffffffffffffffffff1673ffffffffffffffffffffffffffffffffffffffff16815260200190815260200160002054610e96565b600460003373ffffffffffffffffffffffffffffffffffffffff1673ffffffffffffffffffffffffffffffffffffffff16815260200190815260200160002054436113629190611b23565b61136c9190611b57565b90506000600660003373ffffffffffffffffffffffffffffffffffffffff1673ffffffffffffffffffffffffffffffffffffffff16815260200190815260200160002054826113bb9190611bb1565b9050809250505090565b6113cd611495565b8060088190555050565b60007ff23a6e612e1ff4830e658fe43f4e3cb4a5f8170bd5d9e69fb5d7a7fa9e4fdf9790509695505050505050565b61140e611495565b600073ffffffffffffffffffffffffffffffffffffffff168173ffffffffffffffffffffffffffffffffffffffff160361147d576040517f08c379a00000000000000000000000000000000000000000000000000000000081526004016114749061214a565b60405180910390fd5b61148681611513565b50565b60025481565b600a5481565b61149d6115d7565b73ffffffffffffffffffffffffffffffffffffffff166114bb610e21565b73ffffffffffffffffffffffffffffffffffffffff1614611511576040517f08c379a0000000000000000000000000000000000000000000000000000000008152600401611508906121b6565b60405180910390fd5b565b60008060009054906101000a900473ffffffffffffffffffffffffffffffffffffffff169050816000806101000a81548173ffffffffffffffffffffffffffffffffffffffff021916908373ffffffffffffffffffffffffffffffffffffffff1602179055508173ffffffffffffffffffffffffffffffffffffffff168173ffffffffffffffffffffffffffffffffffffffff167f8be0079c531659141344cd1fd0a4f28419497f9722a3daafe3b4186f6b6457e060405160405180910390a35050565b600033905090565b6000819050919050565b6115f2816115df565b82525050565b600060208201905061160d60008301846115e9565b92915050565b600080fd5b600080fd5b600073ffffffffffffffffffffffffffffffffffffffff82169050919050565b60006116488261161d565b9050919050565b6116588161163d565b811461166357600080fd5b50565b6000813590506116758161164f565b92915050565b60006020828403121561169157611690611613565b5b600061169f84828501611666565b91505092915050565b60008115159050919050565b6116bd816116a8565b82525050565b60006020820190506116d860008301846116b4565b92915050565b6116e7816115df565b81146116f257600080fd5b50565b600081359050611704816116de565b92915050565b6000602082840312156117205761171f611613565b5b600061172e848285016116f5565b91505092915050565b6117408161163d565b82525050565b600060208201905061175b6000830184611737565b92915050565b6000819050919050565b600061178661178161177c8461161d565b611761565b61161d565b9050919050565b60006117988261176b565b9050919050565b60006117aa8261178d565b9050919050565b6117ba8161179f565b82525050565b60006020820190506117d560008301846117b1565b92915050565b600080fd5b600080fd5b600080fd5b60008083601f840112611800576117ff6117db565b5b8235905067ffffffffffffffff81111561181d5761181c6117e0565b5b602083019150836001820283011115611839576118386117e5565b5b9250929050565b60008060008060008060a0878903121561185d5761185c611613565b5b600061186b89828a01611666565b965050602061187c89828a01611666565b955050604061188d89828a016116f5565b945050606061189e89828a016116f5565b935050608087013567ffffffffffffffff8111156118bf576118be611618565b5b6118cb89828a016117ea565b92509250509295509295509295565b60007fffffffff0000000000000000000000000000000000000000000000000000000082169050919050565b61190f816118da565b82525050565b600060208201905061192a6000830184611906565b92915050565b600082825260208201905092915050565b7f446f6e2774207370656e642067617320666f72206e6f7468696e670000000000600082015250565b6000611977601b83611930565b915061198282611941565b602082019050919050565b600060208201905081810360008301526119a68161196a565b9050919050565b7f43616e2774207769746864726177206d6f726520657874726163746f7273207460008201527f68617420796f75206f776e210000000000000000000000000000000000000000602082015250565b6000611a09602c83611930565b9150611a14826119ad565b604082019050919050565b60006020820190508181036000830152611a38816119fc565b9050919050565b600082825260208201905092915050565b7f3078303000000000000000000000000000000000000000000000000000000000600082015250565b6000611a86600483611a3f565b9150611a9182611a50565b602082019050919050565b600060a082019050611ab16000830187611737565b611abe6020830186611737565b611acb60408301856115e9565b611ad860608301846115e9565b8181036080830152611ae981611a79565b905095945050505050565b7f4e487b7100000000000000000000000000000000000000000000000000000000600052601160045260246000fd5b6000611b2e826115df565b9150611b39836115df565b925082821015611b4c57611b4b611af4565b5b828203905092915050565b6000611b62826115df565b9150611b6d836115df565b9250817fffffffffffffffffffffffffffffffffffffffffffffffffffffffffffffffff0483118215151615611ba657611ba5611af4565b5b828202905092915050565b6000611bbc826115df565b9150611bc7836115df565b9250827fffffffffffffffffffffffffffffffffffffffffffffffffffffffffffffffff03821115611bfc57611bfb611af4565b5b828201905092915050565b7f43616e6e6f7420636c61696d203020746f6b656e732e00000000000000000000600082015250565b6000611c3d601683611930565b9150611c4882611c07565b602082019050919050565b60006020820190508181036000830152611c6c81611c30565b9050919050565b7f4974277320746f6f206561726c7920746f20636c61696d20616761696e000000600082015250565b6000611ca9601d83611930565b9150611cb482611c73565b602082019050919050565b60006020820190508181036000830152611cd881611c9c565b9050919050565b6000604082019050611cf46000830185611737565b611d0160208301846115e9565b9392505050565b7f4163636f756e7420616c726561647920696e697469616c697a65642e00000000600082015250565b6000611d3e601c83611930565b9150611d4982611d08565b602082019050919050565b60006020820190508181036000830152611d6d81611d31565b9050919050565b7f54686520657874726163746f722049442063616e6e6f74206265203000000000600082015250565b6000611daa601c83611930565b9150611db582611d74565b602082019050919050565b60006020820190508181036000830152611dd981611d9d565b9050919050565b60008160011c9050919050565b6000808291508390505b6001851115611e3757808604811115611e1357611e12611af4565b5b6001851615611e225780820291505b8081029050611e3085611de0565b9450611df7565b94509492505050565b600082611e505760019050611f0c565b81611e5e5760009050611f0c565b8160018114611e745760028114611e7e57611ead565b6001915050611f0c565b60ff841115611e9057611e8f611af4565b5b8360020a915084821115611ea757611ea6611af4565b5b50611f0c565b5060208310610133831016604e8410600b8410161715611ee25782820a905083811115611edd57611edc611af4565b5b611f0c565b611eef8484846001611ded565b92509050818404811115611f0657611f05611af4565b5b81810290505b9392505050565b6000611f1e826115df565b9150611f29836115df565b9250611f567fffffffffffffffffffffffffffffffffffffffffffffffffffffffffffffffff8484611e40565b905092915050565b7f4e487b7100000000000000000000000000000000000000000000000000000000600052601260045260246000fd5b6000611f98826115df565b9150611fa3836115df565b925082611fb357611fb2611f5e565b5b828204905092915050565b7f4465706f736974206174206c65617374203120657874726163746f7200000000600082015250565b6000611ff4601c83611930565b9150611fff82611fbe565b602082019050919050565b6000602082019050818103600083015261202381611fe7565b9050919050565b600081519050612039816116de565b92915050565b60006020828403121561205557612054611613565b5b60006120638482850161202a565b91505092915050565b7f596f7520646f6e2774206f776e20656e6f75676820657874726163746f727300600082015250565b60006120a2601f83611930565b91506120ad8261206c565b602082019050919050565b600060208201905081810360008301526120d181612095565b9050919050565b7f4f776e61626c653a206e6577206f776e657220697320746865207a65726f206160008201527f6464726573730000000000000000000000000000000000000000000000000000602082015250565b6000612134602683611930565b915061213f826120d8565b604082019050919050565b6000602082019050818103600083015261216381612127565b9050919050565b7f4f776e61626c653a2063616c6c6572206973206e6f7420746865206f776e6572600082015250565b60006121a0602083611930565b91506121ab8261216a565b602082019050919050565b600060208201905081810360008301526121cf81612193565b905091905056fea2646970667358221220de407439dd7183463755a7eb577f6bda2e66ae1e3c7128e783b43d666ec94bf564736f6c634300080d0033",
  "linkReferences": {},
  "deployedLinkReferences": {}
}