{
  "_format": "hh-sol-artifact-1",
  "contractName": "PoisonEssenceToken",
  "sourceName": "contracts/PoisonEssenceToken.sol",
  "abi": [
    {
      "inputs": [],
      "stateMutability": "nonpayable",
      "type": "constructor"
    },
    {
      "anonymous": false,
      "inputs": [
        {
          "indexed": true,
          "internalType": "address",
          "name": "owner",
          "type": "address"
        },
        {
          "indexed": true,
          "internalType": "address",
          "name": "spender",
          "type": "address"
        },
        {
          "indexed": false,
          "internalType": "uint256",
          "name": "value",
          "type": "uint256"
        }
      ],
      "name": "Approval",
      "type": "event"
    },
    {
      "anonymous": false,
      "inputs": [
        {
          "indexed": true,
          "internalType": "address",
          "name": "previousOwner",
          "type": "address"
        },
        {
          "indexed": true,
          "internalType": "address",
          "name": "newOwner",
          "type": "address"
        }
      ],
      "name": "OwnershipTransferred",
      "type": "event"
    },
    {
      "anonymous": false,
      "inputs": [
        {
          "indexed": true,
          "internalType": "bytes32",
          "name": "role",
          "type": "bytes32"
        },
        {
          "indexed": true,
          "internalType": "bytes32",
          "name": "previousAdminRole",
          "type": "bytes32"
        },
        {
          "indexed": true,
          "internalType": "bytes32",
          "name": "newAdminRole",
          "type": "bytes32"
        }
      ],
      "name": "RoleAdminChanged",
      "type": "event"
    },
    {
      "anonymous": false,
      "inputs": [
        {
          "indexed": true,
          "internalType": "bytes32",
          "name": "role",
          "type": "bytes32"
        },
        {
          "indexed": true,
          "internalType": "address",
          "name": "account",
          "type": "address"
        },
        {
          "indexed": true,
          "internalType": "address",
          "name": "sender",
          "type": "address"
        }
      ],
      "name": "RoleGranted",
      "type": "event"
    },
    {
      "anonymous": false,
      "inputs": [
        {
          "indexed": true,
          "internalType": "bytes32",
          "name": "role",
          "type": "bytes32"
        },
        {
          "indexed": true,
          "internalType": "address",
          "name": "account",
          "type": "address"
        },
        {
          "indexed": true,
          "internalType": "address",
          "name": "sender",
          "type": "address"
        }
      ],
      "name": "RoleRevoked",
      "type": "event"
    },
    {
      "anonymous": false,
      "inputs": [
        {
          "indexed": true,
          "internalType": "address",
          "name": "from",
          "type": "address"
        },
        {
          "indexed": true,
          "internalType": "address",
          "name": "to",
          "type": "address"
        },
        {
          "indexed": false,
          "internalType": "uint256",
          "name": "value",
          "type": "uint256"
        }
      ],
      "name": "Transfer",
      "type": "event"
    },
    {
      "inputs": [],
      "name": "BURNER_ROLE",
      "outputs": [
        {
          "internalType": "bytes32",
          "name": "",
          "type": "bytes32"
        }
      ],
      "stateMutability": "view",
      "type": "function"
    },
    {
      "inputs": [],
      "name": "DEFAULT_ADMIN_ROLE",
      "outputs": [
        {
          "internalType": "bytes32",
          "name": "",
          "type": "bytes32"
        }
      ],
      "stateMutability": "view",
      "type": "function"
    },
    {
      "inputs": [],
      "name": "MINTER_ROLE",
      "outputs": [
        {
          "internalType": "bytes32",
          "name": "",
          "type": "bytes32"
        }
      ],
      "stateMutability": "view",
      "type": "function"
    },
    {
      "inputs": [
        {
          "internalType": "address",
          "name": "newBurner",
          "type": "address"
        }
      ],
      "name": "addBurner",
      "outputs": [],
      "stateMutability": "nonpayable",
      "type": "function"
    },
    {
      "inputs": [
        {
          "internalType": "address",
          "name": "newMinter",
          "type": "address"
        }
      ],
      "name": "addMinter",
      "outputs": [],
      "stateMutability": "nonpayable",
      "type": "function"
    },
    {
      "inputs": [
        {
          "internalType": "address",
          "name": "owner",
          "type": "address"
        },
        {
          "internalType": "address",
          "name": "spender",
          "type": "address"
        }
      ],
      "name": "allowance",
      "outputs": [
        {
          "internalType": "uint256",
          "name": "",
          "type": "uint256"
        }
      ],
      "stateMutability": "view",
      "type": "function"
    },
    {
      "inputs": [
        {
          "internalType": "address",
          "name": "spender",
          "type": "address"
        },
        {
          "internalType": "uint256",
          "name": "amount",
          "type": "uint256"
        }
      ],
      "name": "approve",
      "outputs": [
        {
          "internalType": "bool",
          "name": "",
          "type": "bool"
        }
      ],
      "stateMutability": "nonpayable",
      "type": "function"
    },
    {
      "inputs": [
        {
          "internalType": "address",
          "name": "account",
          "type": "address"
        }
      ],
      "name": "balanceOf",
      "outputs": [
        {
          "internalType": "uint256",
          "name": "",
          "type": "uint256"
        }
      ],
      "stateMutability": "view",
      "type": "function"
    },
    {
      "inputs": [
        {
          "internalType": "address",
          "name": "from",
          "type": "address"
        },
        {
          "internalType": "uint256",
          "name": "amount",
          "type": "uint256"
        }
      ],
      "name": "burn",
      "outputs": [],
      "stateMutability": "nonpayable",
      "type": "function"
    },
    {
      "inputs": [],
      "name": "decimals",
      "outputs": [
        {
          "internalType": "uint8",
          "name": "",
          "type": "uint8"
        }
      ],
      "stateMutability": "view",
      "type": "function"
    },
    {
      "inputs": [
        {
          "internalType": "address",
          "name": "spender",
          "type": "address"
        },
        {
          "internalType": "uint256",
          "name": "subtractedValue",
          "type": "uint256"
        }
      ],
      "name": "decreaseAllowance",
      "outputs": [
        {
          "internalType": "bool",
          "name": "",
          "type": "bool"
        }
      ],
      "stateMutability": "nonpayable",
      "type": "function"
    },
    {
      "inputs": [
        {
          "internalType": "bytes32",
          "name": "role",
          "type": "bytes32"
        }
      ],
      "name": "getRoleAdmin",
      "outputs": [
        {
          "internalType": "bytes32",
          "name": "",
          "type": "bytes32"
        }
      ],
      "stateMutability": "view",
      "type": "function"
    },
    {
      "inputs": [
        {
          "internalType": "bytes32",
          "name": "role",
          "type": "bytes32"
        },
        {
          "internalType": "address",
          "name": "account",
          "type": "address"
        }
      ],
      "name": "grantRole",
      "outputs": [],
      "stateMutability": "nonpayable",
      "type": "function"
    },
    {
      "inputs": [
        {
          "internalType": "bytes32",
          "name": "role",
          "type": "bytes32"
        },
        {
          "internalType": "address",
          "name": "account",
          "type": "address"
        }
      ],
      "name": "hasRole",
      "outputs": [
        {
          "internalType": "bool",
          "name": "",
          "type": "bool"
        }
      ],
      "stateMutability": "view",
      "type": "function"
    },
    {
      "inputs": [
        {
          "internalType": "address",
          "name": "spender",
          "type": "address"
        },
        {
          "internalType": "uint256",
          "name": "addedValue",
          "type": "uint256"
        }
      ],
      "name": "increaseAllowance",
      "outputs": [
        {
          "internalType": "bool",
          "name": "",
          "type": "bool"
        }
      ],
      "stateMutability": "nonpayable",
      "type": "function"
    },
    {
      "inputs": [
        {
          "internalType": "address",
          "name": "to",
          "type": "address"
        },
        {
          "internalType": "uint256",
          "name": "amount",
          "type": "uint256"
        }
      ],
      "name": "mint",
      "outputs": [],
      "stateMutability": "nonpayable",
      "type": "function"
    },
    {
      "inputs": [],
      "name": "name",
      "outputs": [
        {
          "internalType": "string",
          "name": "",
          "type": "string"
        }
      ],
      "stateMutability": "view",
      "type": "function"
    },
    {
      "inputs": [],
      "name": "owner",
      "outputs": [
        {
          "internalType": "address",
          "name": "",
          "type": "address"
        }
      ],
      "stateMutability": "view",
      "type": "function"
    },
    {
      "inputs": [],
      "name": "renounceOwnership",
      "outputs": [],
      "stateMutability": "nonpayable",
      "type": "function"
    },
    {
      "inputs": [
        {
          "internalType": "bytes32",
          "name": "role",
          "type": "bytes32"
        },
        {
          "internalType": "address",
          "name": "account",
          "type": "address"
        }
      ],
      "name": "renounceRole",
      "outputs": [],
      "stateMutability": "nonpayable",
      "type": "function"
    },
    {
      "inputs": [
        {
          "internalType": "bytes32",
          "name": "role",
          "type": "bytes32"
        },
        {
          "internalType": "address",
          "name": "account",
          "type": "address"
        }
      ],
      "name": "revokeRole",
      "outputs": [],
      "stateMutability": "nonpayable",
      "type": "function"
    },
    {
      "inputs": [
        {
          "internalType": "bytes4",
          "name": "interfaceId",
          "type": "bytes4"
        }
      ],
      "name": "supportsInterface",
      "outputs": [
        {
          "internalType": "bool",
          "name": "",
          "type": "bool"
        }
      ],
      "stateMutability": "view",
      "type": "function"
    },
    {
      "inputs": [],
      "name": "symbol",
      "outputs": [
        {
          "internalType": "string",
          "name": "",
          "type": "string"
        }
      ],
      "stateMutability": "view",
      "type": "function"
    },
    {
      "inputs": [],
      "name": "totalSupply",
      "outputs": [
        {
          "internalType": "uint256",
          "name": "",
          "type": "uint256"
        }
      ],
      "stateMutability": "view",
      "type": "function"
    },
    {
      "inputs": [
        {
          "internalType": "address",
          "name": "to",
          "type": "address"
        },
        {
          "internalType": "uint256",
          "name": "amount",
          "type": "uint256"
        }
      ],
      "name": "transfer",
      "outputs": [
        {
          "internalType": "bool",
          "name": "",
          "type": "bool"
        }
      ],
      "stateMutability": "nonpayable",
      "type": "function"
    },
    {
      "inputs": [
        {
          "internalType": "address",
          "name": "from",
          "type": "address"
        },
        {
          "internalType": "address",
          "name": "to",
          "type": "address"
        },
        {
          "internalType": "uint256",
          "name": "amount",
          "type": "uint256"
        }
      ],
      "name": "transferFrom",
      "outputs": [
        {
          "internalType": "bool",
          "name": "",
          "type": "bool"
        }
      ],
      "stateMutability": "nonpayable",
      "type": "function"
    },
    {
      "inputs": [
        {
          "internalType": "address",
          "name": "newOwner",
          "type": "address"
        }
      ],
      "name": "transferOwnership",
      "outputs": [],
      "stateMutability": "nonpayable",
      "type": "function"
    }
  ],
  "bytecode": "0x60806040523480156200001157600080fd5b506040518060400160405280601281526020017f506f69736f6e457373656e6365546f6b656e00000000000000000000000000008152506040518060400160405280600281526020017f504500000000000000000000000000000000000000000000000000000000000081525081600390805190602001906200009692919062000318565b508060049080519060200190620000af92919062000318565b505050620000d2620000c6620000ed60201b60201c565b620000f560201b60201c565b620000e76000801b33620001bb60201b60201c565b6200042c565b600033905090565b6000600560009054906101000a900473ffffffffffffffffffffffffffffffffffffffff16905081600560006101000a81548173ffffffffffffffffffffffffffffffffffffffff021916908373ffffffffffffffffffffffffffffffffffffffff1602179055508173ffffffffffffffffffffffffffffffffffffffff168173ffffffffffffffffffffffffffffffffffffffff167f8be0079c531659141344cd1fd0a4f28419497f9722a3daafe3b4186f6b6457e060405160405180910390a35050565b620001cd8282620002ad60201b60201c565b620002a95760016006600084815260200190815260200160002060000160008373ffffffffffffffffffffffffffffffffffffffff1673ffffffffffffffffffffffffffffffffffffffff16815260200190815260200160002060006101000a81548160ff0219169083151502179055506200024e620000ed60201b60201c565b73ffffffffffffffffffffffffffffffffffffffff168173ffffffffffffffffffffffffffffffffffffffff16837f2f8788117e7eff1d82e926ec794901d17c78024a50270940304540a733656f0d60405160405180910390a45b5050565b60006006600084815260200190815260200160002060000160008373ffffffffffffffffffffffffffffffffffffffff1673ffffffffffffffffffffffffffffffffffffffff16815260200190815260200160002060009054906101000a900460ff16905092915050565b8280546200032690620003f7565b90600052602060002090601f0160209004810192826200034a576000855562000396565b82601f106200036557805160ff191683800117855562000396565b8280016001018555821562000396579182015b828111156200039557825182559160200191906001019062000378565b5b509050620003a59190620003a9565b5090565b5b80821115620003c4576000816000905550600101620003aa565b5090565b7f4e487b7100000000000000000000000000000000000000000000000000000000600052602260045260246000fd5b600060028204905060018216806200041057607f821691505b602082108103620004265762000425620003c8565b5b50919050565b61298f806200043c6000396000f3fe608060405234801561001057600080fd5b50600436106101a95760003560e01c8063715018a6116100f9578063a457c2d711610097578063d547741f11610071578063d547741f146104e4578063dd62ed3e14610500578063f2fde38b14610530578063f44637ba1461054c576101a9565b8063a457c2d714610466578063a9059cbb14610496578063d5391393146104c6576101a9565b806395d89b41116100d357806395d89b41146103f2578063983b2d56146104105780639dc29fac1461042c578063a217fddf14610448576101a9565b8063715018a61461039a5780638da5cb5b146103a457806391d14854146103c2576101a9565b8063282c51f31161016657806336568abe1161014057806336568abe14610302578063395093511461031e57806340c10f191461034e57806370a082311461036a576101a9565b8063282c51f3146102aa5780632f2ff15d146102c8578063313ce567146102e4576101a9565b806301ffc9a7146101ae57806306fdde03146101de578063095ea7b3146101fc57806318160ddd1461022c57806323b872dd1461024a578063248a9ca31461027a575b600080fd5b6101c860048036038101906101c39190611b17565b610568565b6040516101d59190611b5f565b60405180910390f35b6101e66105e2565b6040516101f39190611c13565b60405180910390f35b61021660048036038101906102119190611cc9565b610674565b6040516102239190611b5f565b60405180910390f35b610234610697565b6040516102419190611d18565b60405180910390f35b610264600480360381019061025f9190611d33565b6106a1565b6040516102719190611b5f565b60405180910390f35b610294600480360381019061028f9190611dbc565b6106d0565b6040516102a19190611df8565b60405180910390f35b6102b26106f0565b6040516102bf9190611df8565b60405180910390f35b6102e260048036038101906102dd9190611e13565b610714565b005b6102ec610735565b6040516102f99190611e6f565b60405180910390f35b61031c60048036038101906103179190611e13565b61073e565b005b61033860048036038101906103339190611cc9565b6107c1565b6040516103459190611b5f565b60405180910390f35b61036860048036038101906103639190611cc9565b6107f8565b005b610384600480360381019061037f9190611e8a565b610831565b6040516103919190611d18565b60405180910390f35b6103a2610879565b005b6103ac61088d565b6040516103b99190611ec6565b60405180910390f35b6103dc60048036038101906103d79190611e13565b6108b7565b6040516103e99190611b5f565b60405180910390f35b6103fa610922565b6040516104079190611c13565b60405180910390f35b61042a60048036038101906104259190611e8a565b6109b4565b005b61044660048036038101906104419190611cc9565b6109e9565b005b610450610a22565b60405161045d9190611df8565b60405180910390f35b610480600480360381019061047b9190611cc9565b610a29565b60405161048d9190611b5f565b60405180910390f35b6104b060048036038101906104ab9190611cc9565b610aa0565b6040516104bd9190611b5f565b60405180910390f35b6104ce610ac3565b6040516104db9190611df8565b60405180910390f35b6104fe60048036038101906104f99190611e13565b610ae7565b005b61051a60048036038101906105159190611ee1565b610b08565b6040516105279190611d18565b60405180910390f35b61054a60048036038101906105459190611e8a565b610b8f565b005b61056660048036038101906105619190611e8a565b610c12565b005b60007f7965db0b000000000000000000000000000000000000000000000000000000007bffffffffffffffffffffffffffffffffffffffffffffffffffffffff1916827bffffffffffffffffffffffffffffffffffffffffffffffffffffffff191614806105db57506105da82610c47565b5b9050919050565b6060600380546105f190611f50565b80601f016020809104026020016040519081016040528092919081815260200182805461061d90611f50565b801561066a5780601f1061063f5761010080835404028352916020019161066a565b820191906000526020600020905b81548152906001019060200180831161064d57829003601f168201915b5050505050905090565b60008061067f610cb1565b905061068c818585610cb9565b600191505092915050565b6000600254905090565b6000806106ac610cb1565b90506106b9858285610e82565b6106c4858585610f0e565b60019150509392505050565b600060066000838152602001908152602001600020600101549050919050565b7f3c11d16cbaffd01df69ce1c404f6340ee057498f5f00246190ea54220576a84881565b61071d826106d0565b61072681611184565b6107308383611198565b505050565b60006012905090565b610746610cb1565b73ffffffffffffffffffffffffffffffffffffffff168173ffffffffffffffffffffffffffffffffffffffff16146107b3576040517f08c379a00000000000000000000000000000000000000000000000000000000081526004016107aa90611ff3565b60405180910390fd5b6107bd8282611279565b5050565b6000806107cc610cb1565b90506107ed8185856107de8589610b08565b6107e89190612042565b610cb9565b600191505092915050565b7f9f2df0fed2c77648de5860a4cc508cd0818c85b8b8a1ab4ceeef8d981c8956a661082281611184565b61082c838361135b565b505050565b60008060008373ffffffffffffffffffffffffffffffffffffffff1673ffffffffffffffffffffffffffffffffffffffff168152602001908152602001600020549050919050565b6108816114b1565b61088b600061152f565b565b6000600560009054906101000a900473ffffffffffffffffffffffffffffffffffffffff16905090565b60006006600084815260200190815260200160002060000160008373ffffffffffffffffffffffffffffffffffffffff1673ffffffffffffffffffffffffffffffffffffffff16815260200190815260200160002060009054906101000a900460ff16905092915050565b60606004805461093190611f50565b80601f016020809104026020016040519081016040528092919081815260200182805461095d90611f50565b80156109aa5780601f1061097f576101008083540402835291602001916109aa565b820191906000526020600020905b81548152906001019060200180831161098d57829003601f168201915b5050505050905090565b6109bc6114b1565b6109e67f9f2df0fed2c77648de5860a4cc508cd0818c85b8b8a1ab4ceeef8d981c8956a682611198565b50565b7f3c11d16cbaffd01df69ce1c404f6340ee057498f5f00246190ea54220576a848610a1381611184565b610a1d83836115f5565b505050565b6000801b81565b600080610a34610cb1565b90506000610a428286610b08565b905083811015610a87576040517f08c379a0000000000000000000000000000000000000000000000000000000008152600401610a7e9061210a565b60405180910390fd5b610a948286868403610cb9565b60019250505092915050565b600080610aab610cb1565b9050610ab8818585610f0e565b600191505092915050565b7f9f2df0fed2c77648de5860a4cc508cd0818c85b8b8a1ab4ceeef8d981c8956a681565b610af0826106d0565b610af981611184565b610b038383611279565b505050565b6000600160008473ffffffffffffffffffffffffffffffffffffffff1673ffffffffffffffffffffffffffffffffffffffff16815260200190815260200160002060008373ffffffffffffffffffffffffffffffffffffffff1673ffffffffffffffffffffffffffffffffffffffff16815260200190815260200160002054905092915050565b610b976114b1565b600073ffffffffffffffffffffffffffffffffffffffff168173ffffffffffffffffffffffffffffffffffffffff1603610c06576040517f08c379a0000000000000000000000000000000000000000000000000000000008152600401610bfd9061219c565b60405180910390fd5b610c0f8161152f565b50565b610c1a6114b1565b610c447f3c11d16cbaffd01df69ce1c404f6340ee057498f5f00246190ea54220576a84882611198565b50565b60007f01ffc9a7000000000000000000000000000000000000000000000000000000007bffffffffffffffffffffffffffffffffffffffffffffffffffffffff1916827bffffffffffffffffffffffffffffffffffffffffffffffffffffffff1916149050919050565b600033905090565b600073ffffffffffffffffffffffffffffffffffffffff168373ffffffffffffffffffffffffffffffffffffffff1603610d28576040517f08c379a0000000000000000000000000000000000000000000000000000000008152600401610d1f9061222e565b60405180910390fd5b600073ffffffffffffffffffffffffffffffffffffffff168273ffffffffffffffffffffffffffffffffffffffff1603610d97576040517f08c379a0000000000000000000000000000000000000000000000000000000008152600401610d8e906122c0565b60405180910390fd5b80600160008573ffffffffffffffffffffffffffffffffffffffff1673ffffffffffffffffffffffffffffffffffffffff16815260200190815260200160002060008473ffffffffffffffffffffffffffffffffffffffff1673ffffffffffffffffffffffffffffffffffffffff168152602001908152602001600020819055508173ffffffffffffffffffffffffffffffffffffffff168373ffffffffffffffffffffffffffffffffffffffff167f8c5be1e5ebec7d5bd14f71427d1e84f3dd0314c0f7b2291e5b200ac8c7c3b92583604051610e759190611d18565b60405180910390a3505050565b6000610e8e8484610b08565b90507fffffffffffffffffffffffffffffffffffffffffffffffffffffffffffffffff8114610f085781811015610efa576040517f08c379a0000000000000000000000000000000000000000000000000000000008152600401610ef19061232c565b60405180910390fd5b610f078484848403610cb9565b5b50505050565b600073ffffffffffffffffffffffffffffffffffffffff168373ffffffffffffffffffffffffffffffffffffffff1603610f7d576040517f08c379a0000000000000000000000000000000000000000000000000000000008152600401610f74906123be565b60405180910390fd5b600073ffffffffffffffffffffffffffffffffffffffff168273ffffffffffffffffffffffffffffffffffffffff1603610fec576040517f08c379a0000000000000000000000000000000000000000000000000000000008152600401610fe390612450565b60405180910390fd5b610ff78383836117c2565b60008060008573ffffffffffffffffffffffffffffffffffffffff1673ffffffffffffffffffffffffffffffffffffffff1681526020019081526020016000205490508181101561107d576040517f08c379a0000000000000000000000000000000000000000000000000000000008152600401611074906124e2565b60405180910390fd5b8181036000808673ffffffffffffffffffffffffffffffffffffffff1673ffffffffffffffffffffffffffffffffffffffff16815260200190815260200160002081905550816000808573ffffffffffffffffffffffffffffffffffffffff1673ffffffffffffffffffffffffffffffffffffffff168152602001908152602001600020600082825401925050819055508273ffffffffffffffffffffffffffffffffffffffff168473ffffffffffffffffffffffffffffffffffffffff167fddf252ad1be2c89b69c2b068fc378daa952ba7f163c4a11628f55a4df523b3ef8460405161116b9190611d18565b60405180910390a361117e8484846117c7565b50505050565b61119581611190610cb1565b6117cc565b50565b6111a282826108b7565b6112755760016006600084815260200190815260200160002060000160008373ffffffffffffffffffffffffffffffffffffffff1673ffffffffffffffffffffffffffffffffffffffff16815260200190815260200160002060006101000a81548160ff02191690831515021790555061121a610cb1565b73ffffffffffffffffffffffffffffffffffffffff168173ffffffffffffffffffffffffffffffffffffffff16837f2f8788117e7eff1d82e926ec794901d17c78024a50270940304540a733656f0d60405160405180910390a45b5050565b61128382826108b7565b156113575760006006600084815260200190815260200160002060000160008373ffffffffffffffffffffffffffffffffffffffff1673ffffffffffffffffffffffffffffffffffffffff16815260200190815260200160002060006101000a81548160ff0219169083151502179055506112fc610cb1565b73ffffffffffffffffffffffffffffffffffffffff168173ffffffffffffffffffffffffffffffffffffffff16837ff6391f5c32d9c69d2a47ea670b442974b53935d1edc7fd64eb21e047a839171b60405160405180910390a45b5050565b600073ffffffffffffffffffffffffffffffffffffffff168273ffffffffffffffffffffffffffffffffffffffff16036113ca576040517f08c379a00000000000000000000000000000000000000000000000000000000081526004016113c19061254e565b60405180910390fd5b6113d6600083836117c2565b80600260008282546113e89190612042565b92505081905550806000808473ffffffffffffffffffffffffffffffffffffffff1673ffffffffffffffffffffffffffffffffffffffff168152602001908152602001600020600082825401925050819055508173ffffffffffffffffffffffffffffffffffffffff16600073ffffffffffffffffffffffffffffffffffffffff167fddf252ad1be2c89b69c2b068fc378daa952ba7f163c4a11628f55a4df523b3ef836040516114999190611d18565b60405180910390a36114ad600083836117c7565b5050565b6114b9610cb1565b73ffffffffffffffffffffffffffffffffffffffff166114d761088d565b73ffffffffffffffffffffffffffffffffffffffff161461152d576040517f08c379a0000000000000000000000000000000000000000000000000000000008152600401611524906125ba565b60405180910390fd5b565b6000600560009054906101000a900473ffffffffffffffffffffffffffffffffffffffff16905081600560006101000a81548173ffffffffffffffffffffffffffffffffffffffff021916908373ffffffffffffffffffffffffffffffffffffffff1602179055508173ffffffffffffffffffffffffffffffffffffffff168173ffffffffffffffffffffffffffffffffffffffff167f8be0079c531659141344cd1fd0a4f28419497f9722a3daafe3b4186f6b6457e060405160405180910390a35050565b600073ffffffffffffffffffffffffffffffffffffffff168273ffffffffffffffffffffffffffffffffffffffff1603611664576040517f08c379a000000000000000000000000000000000000000000000000000000000815260040161165b9061264c565b60405180910390fd5b611670826000836117c2565b60008060008473ffffffffffffffffffffffffffffffffffffffff1673ffffffffffffffffffffffffffffffffffffffff168152602001908152602001600020549050818110156116f6576040517f08c379a00000000000000000000000000000000000000000000000000000000081526004016116ed906126de565b60405180910390fd5b8181036000808573ffffffffffffffffffffffffffffffffffffffff1673ffffffffffffffffffffffffffffffffffffffff1681526020019081526020016000208190555081600260008282540392505081905550600073ffffffffffffffffffffffffffffffffffffffff168373ffffffffffffffffffffffffffffffffffffffff167fddf252ad1be2c89b69c2b068fc378daa952ba7f163c4a11628f55a4df523b3ef846040516117a99190611d18565b60405180910390a36117bd836000846117c7565b505050565b505050565b505050565b6117d682826108b7565b61184d576117e381611851565b6117f18360001c602061187e565b6040516020016118029291906127d2565b6040516020818303038152906040526040517f08c379a00000000000000000000000000000000000000000000000000000000081526004016118449190611c13565b60405180910390fd5b5050565b60606118778273ffffffffffffffffffffffffffffffffffffffff16601460ff1661187e565b9050919050565b606060006002836002611891919061280c565b61189b9190612042565b67ffffffffffffffff8111156118b4576118b3612866565b5b6040519080825280601f01601f1916602001820160405280156118e65781602001600182028036833780820191505090505b5090507f30000000000000000000000000000000000000000000000000000000000000008160008151811061191e5761191d612895565b5b60200101907effffffffffffffffffffffffffffffffffffffffffffffffffffffffffffff1916908160001a9053507f78000000000000000000000000000000000000000000000000000000000000008160018151811061198257611981612895565b5b60200101907effffffffffffffffffffffffffffffffffffffffffffffffffffffffffffff1916908160001a905350600060018460026119c2919061280c565b6119cc9190612042565b90505b6001811115611a6c577f3031323334353637383961626364656600000000000000000000000000000000600f861660108110611a0e57611a0d612895565b5b1a60f81b828281518110611a2557611a24612895565b5b60200101907effffffffffffffffffffffffffffffffffffffffffffffffffffffffffffff1916908160001a905350600485901c945080611a65906128c4565b90506119cf565b5060008414611ab0576040517f08c379a0000000000000000000000000000000000000000000000000000000008152600401611aa790612939565b60405180910390fd5b8091505092915050565b600080fd5b60007fffffffff0000000000000000000000000000000000000000000000000000000082169050919050565b611af481611abf565b8114611aff57600080fd5b50565b600081359050611b1181611aeb565b92915050565b600060208284031215611b2d57611b2c611aba565b5b6000611b3b84828501611b02565b91505092915050565b60008115159050919050565b611b5981611b44565b82525050565b6000602082019050611b746000830184611b50565b92915050565b600081519050919050565b600082825260208201905092915050565b60005b83811015611bb4578082015181840152602081019050611b99565b83811115611bc3576000848401525b50505050565b6000601f19601f8301169050919050565b6000611be582611b7a565b611bef8185611b85565b9350611bff818560208601611b96565b611c0881611bc9565b840191505092915050565b60006020820190508181036000830152611c2d8184611bda565b905092915050565b600073ffffffffffffffffffffffffffffffffffffffff82169050919050565b6000611c6082611c35565b9050919050565b611c7081611c55565b8114611c7b57600080fd5b50565b600081359050611c8d81611c67565b92915050565b6000819050919050565b611ca681611c93565b8114611cb157600080fd5b50565b600081359050611cc381611c9d565b92915050565b60008060408385031215611ce057611cdf611aba565b5b6000611cee85828601611c7e565b9250506020611cff85828601611cb4565b9150509250929050565b611d1281611c93565b82525050565b6000602082019050611d2d6000830184611d09565b92915050565b600080600060608486031215611d4c57611d4b611aba565b5b6000611d5a86828701611c7e565b9350506020611d6b86828701611c7e565b9250506040611d7c86828701611cb4565b9150509250925092565b6000819050919050565b611d9981611d86565b8114611da457600080fd5b50565b600081359050611db681611d90565b92915050565b600060208284031215611dd257611dd1611aba565b5b6000611de084828501611da7565b91505092915050565b611df281611d86565b82525050565b6000602082019050611e0d6000830184611de9565b92915050565b60008060408385031215611e2a57611e29611aba565b5b6000611e3885828601611da7565b9250506020611e4985828601611c7e565b9150509250929050565b600060ff82169050919050565b611e6981611e53565b82525050565b6000602082019050611e846000830184611e60565b92915050565b600060208284031215611ea057611e9f611aba565b5b6000611eae84828501611c7e565b91505092915050565b611ec081611c55565b82525050565b6000602082019050611edb6000830184611eb7565b92915050565b60008060408385031215611ef857611ef7611aba565b5b6000611f0685828601611c7e565b9250506020611f1785828601611c7e565b9150509250929050565b7f4e487b7100000000000000000000000000000000000000000000000000000000600052602260045260246000fd5b60006002820490506001821680611f6857607f821691505b602082108103611f7b57611f7a611f21565b5b50919050565b7f416363657373436f6e74726f6c3a2063616e206f6e6c792072656e6f756e636560008201527f20726f6c657320666f722073656c660000000000000000000000000000000000602082015250565b6000611fdd602f83611b85565b9150611fe882611f81565b604082019050919050565b6000602082019050818103600083015261200c81611fd0565b9050919050565b7f4e487b7100000000000000000000000000000000000000000000000000000000600052601160045260246000fd5b600061204d82611c93565b915061205883611c93565b9250827fffffffffffffffffffffffffffffffffffffffffffffffffffffffffffffffff0382111561208d5761208c612013565b5b828201905092915050565b7f45524332303a2064656372656173656420616c6c6f77616e63652062656c6f7760008201527f207a65726f000000000000000000000000000000000000000000000000000000602082015250565b60006120f4602583611b85565b91506120ff82612098565b604082019050919050565b60006020820190508181036000830152612123816120e7565b9050919050565b7f4f776e61626c653a206e6577206f776e657220697320746865207a65726f206160008201527f6464726573730000000000000000000000000000000000000000000000000000602082015250565b6000612186602683611b85565b91506121918261212a565b604082019050919050565b600060208201905081810360008301526121b581612179565b9050919050565b7f45524332303a20617070726f76652066726f6d20746865207a65726f2061646460008201527f7265737300000000000000000000000000000000000000000000000000000000602082015250565b6000612218602483611b85565b9150612223826121bc565b604082019050919050565b600060208201905081810360008301526122478161220b565b9050919050565b7f45524332303a20617070726f766520746f20746865207a65726f20616464726560008201527f7373000000000000000000000000000000000000000000000000000000000000602082015250565b60006122aa602283611b85565b91506122b58261224e565b604082019050919050565b600060208201905081810360008301526122d98161229d565b9050919050565b7f45524332303a20696e73756666696369656e7420616c6c6f77616e6365000000600082015250565b6000612316601d83611b85565b9150612321826122e0565b602082019050919050565b6000602082019050818103600083015261234581612309565b9050919050565b7f45524332303a207472616e736665722066726f6d20746865207a65726f20616460008201527f6472657373000000000000000000000000000000000000000000000000000000602082015250565b60006123a8602583611b85565b91506123b38261234c565b604082019050919050565b600060208201905081810360008301526123d78161239b565b9050919050565b7f45524332303a207472616e7366657220746f20746865207a65726f206164647260008201527f6573730000000000000000000000000000000000000000000000000000000000602082015250565b600061243a602383611b85565b9150612445826123de565b604082019050919050565b600060208201905081810360008301526124698161242d565b9050919050565b7f45524332303a207472616e7366657220616d6f756e742065786365656473206260008201527f616c616e63650000000000000000000000000000000000000000000000000000602082015250565b60006124cc602683611b85565b91506124d782612470565b604082019050919050565b600060208201905081810360008301526124fb816124bf565b9050919050565b7f45524332303a206d696e7420746f20746865207a65726f206164647265737300600082015250565b6000612538601f83611b85565b915061254382612502565b602082019050919050565b600060208201905081810360008301526125678161252b565b9050919050565b7f4f776e61626c653a2063616c6c6572206973206e6f7420746865206f776e6572600082015250565b60006125a4602083611b85565b91506125af8261256e565b602082019050919050565b600060208201905081810360008301526125d381612597565b9050919050565b7f45524332303a206275726e2066726f6d20746865207a65726f2061646472657360008201527f7300000000000000000000000000000000000000000000000000000000000000602082015250565b6000612636602183611b85565b9150612641826125da565b604082019050919050565b6000602082019050818103600083015261266581612629565b9050919050565b7f45524332303a206275726e20616d6f756e7420657863656564732062616c616e60008201527f6365000000000000000000000000000000000000000000000000000000000000602082015250565b60006126c8602283611b85565b91506126d38261266c565b604082019050919050565b600060208201905081810360008301526126f7816126bb565b9050919050565b600081905092915050565b7f416363657373436f6e74726f6c3a206163636f756e7420000000000000000000600082015250565b600061273f6017836126fe565b915061274a82612709565b601782019050919050565b600061276082611b7a565b61276a81856126fe565b935061277a818560208601611b96565b80840191505092915050565b7f206973206d697373696e6720726f6c6520000000000000000000000000000000600082015250565b60006127bc6011836126fe565b91506127c782612786565b601182019050919050565b60006127dd82612732565b91506127e98285612755565b91506127f4826127af565b91506128008284612755565b91508190509392505050565b600061281782611c93565b915061282283611c93565b9250817fffffffffffffffffffffffffffffffffffffffffffffffffffffffffffffffff048311821515161561285b5761285a612013565b5b828202905092915050565b7f4e487b7100000000000000000000000000000000000000000000000000000000600052604160045260246000fd5b7f4e487b7100000000000000000000000000000000000000000000000000000000600052603260045260246000fd5b60006128cf82611c93565b9150600082036128e2576128e1612013565b5b600182039050919050565b7f537472696e67733a20686578206c656e67746820696e73756666696369656e74600082015250565b6000612923602083611b85565b915061292e826128ed565b602082019050919050565b6000602082019050818103600083015261295281612916565b905091905056fea2646970667358221220078745c6f240a61d16a066d7a84e1c6f1e54df15835240c8782a880caf8a789464736f6c634300080d0033",
  "linkReferences": {},
  "deployedLinkReferences": {}
}