{
  "_format": "hh-sol-artifact-1",
  "contractName": "PoisonGiftBox",
  "sourceName": "contracts/PoisonGiftBox.sol",
  "abi": [
    {
      "anonymous": false,
      "inputs": [
        {
          "indexed": true,
          "internalType": "address",
          "name": "_from",
          "type": "address"
        },
        {
          "indexed": false,
          "internalType": "uint256",
          "name": "_tokens",
          "type": "uint256"
        }
      ],
      "name": "BoxOpened",
      "type": "event"
    },
    {
      "anonymous": false,
      "inputs": [
        {
          "indexed": true,
          "internalType": "address",
          "name": "_from",
          "type": "address"
        },
        {
          "indexed": false,
          "internalType": "uint256",
          "name": "_dayNumber",
          "type": "uint256"
        }
      ],
      "name": "NewDayStarted",
      "type": "event"
    },
    {
      "anonymous": false,
      "inputs": [
        {
          "indexed": true,
          "internalType": "address",
          "name": "previousOwner",
          "type": "address"
        },
        {
          "indexed": true,
          "internalType": "address",
          "name": "newOwner",
          "type": "address"
        }
      ],
      "name": "OwnershipTransferred",
      "type": "event"
    },
    {
      "anonymous": false,
      "inputs": [
        {
          "indexed": false,
          "internalType": "address",
          "name": "account",
          "type": "address"
        }
      ],
      "name": "Paused",
      "type": "event"
    },
    {
      "anonymous": false,
      "inputs": [
        {
          "indexed": false,
          "internalType": "address",
          "name": "account",
          "type": "address"
        }
      ],
      "name": "Unpaused",
      "type": "event"
    },
    {
      "inputs": [],
      "name": "canUserClaimBox",
      "outputs": [
        {
          "internalType": "bool",
          "name": "",
          "type": "bool"
        }
      ],
      "stateMutability": "view",
      "type": "function"
    },
    {
      "inputs": [],
      "name": "getCurrentCooldown",
      "outputs": [
        {
          "internalType": "uint256",
          "name": "",
          "type": "uint256"
        }
      ],
      "stateMutability": "view",
      "type": "function"
    },
    {
      "inputs": [],
      "name": "getCurrentDay",
      "outputs": [
        {
          "internalType": "uint256",
          "name": "",
          "type": "uint256"
        }
      ],
      "stateMutability": "view",
      "type": "function"
    },
    {
      "inputs": [],
      "name": "getCurrentPeriodStartingBlock",
      "outputs": [
        {
          "internalType": "uint256",
          "name": "",
          "type": "uint256"
        }
      ],
      "stateMutability": "view",
      "type": "function"
    },
    {
      "inputs": [],
      "name": "getLastClaim",
      "outputs": [
        {
          "internalType": "uint256",
          "name": "",
          "type": "uint256"
        }
      ],
      "stateMutability": "view",
      "type": "function"
    },
    {
      "inputs": [
        {
          "internalType": "address",
          "name": "_peTokenAddress",
          "type": "address"
        },
        {
          "internalType": "uint256",
          "name": "_startingGiftingBlock",
          "type": "uint256"
        },
        {
          "internalType": "uint256",
          "name": "_cooldown",
          "type": "uint256"
        }
      ],
      "name": "initializeContract",
      "outputs": [],
      "stateMutability": "nonpayable",
      "type": "function"
    },
    {
      "inputs": [
        {
          "internalType": "address",
          "name": "userAddress",
          "type": "address"
        }
      ],
      "name": "inizializeAccountClaim",
      "outputs": [],
      "stateMutability": "nonpayable",
      "type": "function"
    },
    {
      "inputs": [],
      "name": "openGiftBox",
      "outputs": [
        {
          "internalType": "uint256",
          "name": "",
          "type": "uint256"
        }
      ],
      "stateMutability": "nonpayable",
      "type": "function"
    },
    {
      "inputs": [],
      "name": "owner",
      "outputs": [
        {
          "internalType": "address",
          "name": "",
          "type": "address"
        }
      ],
      "stateMutability": "view",
      "type": "function"
    },
    {
      "inputs": [],
      "name": "paused",
      "outputs": [
        {
          "internalType": "bool",
          "name": "",
          "type": "bool"
        }
      ],
      "stateMutability": "view",
      "type": "function"
    },
    {
      "inputs": [],
      "name": "renounceOwnership",
      "outputs": [],
      "stateMutability": "nonpayable",
      "type": "function"
    },
    {
      "inputs": [
        {
          "internalType": "uint256",
          "name": "_newCooldown",
          "type": "uint256"
        }
      ],
      "name": "setCooldown",
      "outputs": [],
      "stateMutability": "nonpayable",
      "type": "function"
    },
    {
      "inputs": [
        {
          "internalType": "uint256",
          "name": "_currentPeriodStartingBlock",
          "type": "uint256"
        }
      ],
      "name": "setGiftStartingBLock",
      "outputs": [],
      "stateMutability": "nonpayable",
      "type": "function"
    },
    {
      "inputs": [
        {
          "internalType": "address",
          "name": "newOwner",
          "type": "address"
        }
      ],
      "name": "transferOwnership",
      "outputs": [],
      "stateMutability": "nonpayable",
      "type": "function"
    }
  ],
  "bytecode": "0x6080604052600060045534801561001557600080fd5b5060008060006101000a81548160ff02191690831515021790555061004c61004161005160201b60201c565b61005960201b60201c565b61011e565b600033905090565b60008060019054906101000a900473ffffffffffffffffffffffffffffffffffffffff16905081600060016101000a81548173ffffffffffffffffffffffffffffffffffffffff021916908373ffffffffffffffffffffffffffffffffffffffff1602179055508173ffffffffffffffffffffffffffffffffffffffff168173ffffffffffffffffffffffffffffffffffffffff167f8be0079c531659141344cd1fd0a4f28419497f9722a3daafe3b4186f6b6457e060405160405180910390a35050565b6112478061012d6000396000f3fe608060405234801561001057600080fd5b50600436106100ea5760003560e01c80638da5cb5b1161008c578063d0b7bb7911610066578063d0b7bb7914610201578063e09d6f7b1461021f578063e3392c941461023b578063f2fde38b14610259576100ea565b80638da5cb5b146101a9578063b92f7a48146101c7578063bba8bc63146101e3576100ea565b80634fc3f41a116100c85780634fc3f41a146101475780635c975abb1461016357806368a825ad14610181578063715018a61461019f576100ea565b8063141b4ca7146100ef5780631e6ab24f1461010d5780633e6968b614610129575b600080fd5b6100f7610275565b6040516101049190610b5c565b60405180910390f35b61012760048036038101906101229190610c06565b61027f565b005b6101316102db565b60405161013e9190610b5c565b60405180910390f35b610161600480360381019061015c9190610c59565b6102e5565b005b61016b61033a565b6040516101789190610ca1565b60405180910390f35b610189610350565b6040516101969190610b5c565b60405180910390f35b6101a7610397565b005b6101b16103ab565b6040516101be9190610ccb565b60405180910390f35b6101e160048036038101906101dc9190610ce6565b6103d4565b005b6101eb610508565b6040516101f89190610ca1565b60405180910390f35b610209610554565b6040516102169190610b5c565b60405180910390f35b61023960048036038101906102349190610c59565b61055e565b005b610243610570565b6040516102509190610b5c565b60405180910390f35b610273600480360381019061026e9190610ce6565b610751565b005b6000600354905090565b6102876107d4565b82600160006101000a81548173ffffffffffffffffffffffffffffffffffffffff021916908373ffffffffffffffffffffffffffffffffffffffff1602179055508160028190555080600381905550505050565b6000600454905090565b6102ed6107d4565b60008111610330576040517f08c379a000000000000000000000000000000000000000000000000000000000815260040161032790610d70565b60405180910390fd5b8060038190555050565b60008060009054906101000a900460ff16905090565b6000600560003373ffffffffffffffffffffffffffffffffffffffff1673ffffffffffffffffffffffffffffffffffffffff16815260200190815260200160002054905090565b61039f6107d4565b6103a96000610852565b565b60008060019054906101000a900473ffffffffffffffffffffffffffffffffffffffff16905090565b60011515600660008373ffffffffffffffffffffffffffffffffffffffff1673ffffffffffffffffffffffffffffffffffffffff16815260200190815260200160002060009054906101000a900460ff16151503610467576040517f08c379a000000000000000000000000000000000000000000000000000000000815260040161045e90610ddc565b60405180910390fd5b6001600660008373ffffffffffffffffffffffffffffffffffffffff1673ffffffffffffffffffffffffffffffffffffffff16815260200190815260200160002060006101000a81548160ff021916908315150217905550600254600560008373ffffffffffffffffffffffffffffffffffffffff1673ffffffffffffffffffffffffffffffffffffffff1681526020019081526020016000208190555050565b6000600254600560003373ffffffffffffffffffffffffffffffffffffffff1673ffffffffffffffffffffffffffffffffffffffff168152602001908152602001600020541115905090565b6000600254905090565b6105666107d4565b8060028190555050565b600060011515600660003373ffffffffffffffffffffffffffffffffffffffff1673ffffffffffffffffffffffffffffffffffffffff16815260200190815260200160002060009054906101000a900460ff16151514610605576040517f08c379a00000000000000000000000000000000000000000000000000000000081526004016105fc90610e48565b60405180910390fd5b61060d610917565b600254600560003373ffffffffffffffffffffffffffffffffffffffff1673ffffffffffffffffffffffffffffffffffffffff168152602001908152602001600020541115610691576040517f08c379a000000000000000000000000000000000000000000000000000000000815260040161068890610eb4565b60405180910390fd5b6003546002546106a19190610f03565b600560003373ffffffffffffffffffffffffffffffffffffffff1673ffffffffffffffffffffffffffffffffffffffff168152602001908152602001600020541015610749576003546002546106f79190610f03565b600560003373ffffffffffffffffffffffffffffffffffffffff1673ffffffffffffffffffffffffffffffffffffffff168152602001908152602001600020819055506107426109a8565b905061074e565b600090505b90565b6107596107d4565b600073ffffffffffffffffffffffffffffffffffffffff168173ffffffffffffffffffffffffffffffffffffffff16036107c8576040517f08c379a00000000000000000000000000000000000000000000000000000000081526004016107bf90610fcb565b60405180910390fd5b6107d181610852565b50565b6107dc610ab3565b73ffffffffffffffffffffffffffffffffffffffff166107fa6103ab565b73ffffffffffffffffffffffffffffffffffffffff1614610850576040517f08c379a000000000000000000000000000000000000000000000000000000000815260040161084790611037565b60405180910390fd5b565b60008060019054906101000a900473ffffffffffffffffffffffffffffffffffffffff16905081600060016101000a81548173ffffffffffffffffffffffffffffffffffffffff021916908373ffffffffffffffffffffffffffffffffffffffff1602179055508173ffffffffffffffffffffffffffffffffffffffff168173ffffffffffffffffffffffffffffffffffffffff167f8be0079c531659141344cd1fd0a4f28419497f9722a3daafe3b4186f6b6457e060405160405180910390a35050565b6000439050600060035460025461092e9190610f03565b90508082106109a45780600281905550600160045461094d9190610f03565b6004819055503373ffffffffffffffffffffffffffffffffffffffff167fd96cb47a89855c87bafb42a52d75f8cd269a4ed313cf2c097668c9fa55577cca60045460405161099b9190610b5c565b60405180910390a25b5050565b6000806109b433610abb565b9050600060198210156109ca57601990506109ce565b8190505b600160009054906101000a900473ffffffffffffffffffffffffffffffffffffffff1673ffffffffffffffffffffffffffffffffffffffff166340c10f1933836040518363ffffffff1660e01b8152600401610a2b929190611057565b600060405180830381600087803b158015610a4557600080fd5b505af1158015610a59573d6000803e3d6000fd5b505050503373ffffffffffffffffffffffffffffffffffffffff167fb73d415d4554d9bc64f3fadea1d75caaeb0f4db5b74538b5e5dcbce2660e624082604051610aa39190610b5c565b60405180910390a2809250505090565b600033905090565b600080444284604051602001610ad3939291906110e9565b6040516020818303038152906040528051906020012060001c90506000600a82610afd9190611155565b90506000600a8084610b0f9190611186565b610b199190611155565b90506000600a82610b2a91906111b7565b83610b359190610f03565b905080945050505050919050565b6000819050919050565b610b5681610b43565b82525050565b6000602082019050610b716000830184610b4d565b92915050565b600080fd5b600073ffffffffffffffffffffffffffffffffffffffff82169050919050565b6000610ba782610b7c565b9050919050565b610bb781610b9c565b8114610bc257600080fd5b50565b600081359050610bd481610bae565b92915050565b610be381610b43565b8114610bee57600080fd5b50565b600081359050610c0081610bda565b92915050565b600080600060608486031215610c1f57610c1e610b77565b5b6000610c2d86828701610bc5565b9350506020610c3e86828701610bf1565b9250506040610c4f86828701610bf1565b9150509250925092565b600060208284031215610c6f57610c6e610b77565b5b6000610c7d84828501610bf1565b91505092915050565b60008115159050919050565b610c9b81610c86565b82525050565b6000602082019050610cb66000830184610c92565b92915050565b610cc581610b9c565b82525050565b6000602082019050610ce06000830184610cbc565b92915050565b600060208284031215610cfc57610cfb610b77565b5b6000610d0a84828501610bc5565b91505092915050565b600082825260208201905092915050565b7f43616e277420736574206120636f6f6c646f776e206f66203020626c6f636b73600082015250565b6000610d5a602083610d13565b9150610d6582610d24565b602082019050919050565b60006020820190508181036000830152610d8981610d4d565b9050919050565b7f4163636f756e7420616c726561647920696e697469616c697a65640000000000600082015250565b6000610dc6601b83610d13565b9150610dd182610d90565b602082019050919050565b60006020820190508181036000830152610df581610db9565b9050919050565b7f4d75737420696e697469616c697a65206163636f756e74206669727374000000600082015250565b6000610e32601d83610d13565b9150610e3d82610dfc565b602082019050919050565b60006020820190508181036000830152610e6181610e25565b9050919050565b7f546f6f206561726c7920746f206f70656e20616e6f7468657220626f78000000600082015250565b6000610e9e601d83610d13565b9150610ea982610e68565b602082019050919050565b60006020820190508181036000830152610ecd81610e91565b9050919050565b7f4e487b7100000000000000000000000000000000000000000000000000000000600052601160045260246000fd5b6000610f0e82610b43565b9150610f1983610b43565b9250827fffffffffffffffffffffffffffffffffffffffffffffffffffffffffffffffff03821115610f4e57610f4d610ed4565b5b828201905092915050565b7f4f776e61626c653a206e6577206f776e657220697320746865207a65726f206160008201527f6464726573730000000000000000000000000000000000000000000000000000602082015250565b6000610fb5602683610d13565b9150610fc082610f59565b604082019050919050565b60006020820190508181036000830152610fe481610fa8565b9050919050565b7f4f776e61626c653a2063616c6c6572206973206e6f7420746865206f776e6572600082015250565b6000611021602083610d13565b915061102c82610feb565b602082019050919050565b6000602082019050818103600083015261105081611014565b9050919050565b600060408201905061106c6000830185610cbc565b6110796020830184610b4d565b9392505050565b6000819050919050565b61109b61109682610b43565b611080565b82525050565b60008160601b9050919050565b60006110b9826110a1565b9050919050565b60006110cb826110ae565b9050919050565b6110e36110de82610b9c565b6110c0565b82525050565b60006110f5828661108a565b602082019150611105828561108a565b60208201915061111582846110d2565b601482019150819050949350505050565b7f4e487b7100000000000000000000000000000000000000000000000000000000600052601260045260246000fd5b600061116082610b43565b915061116b83610b43565b92508261117b5761117a611126565b5b828206905092915050565b600061119182610b43565b915061119c83610b43565b9250826111ac576111ab611126565b5b828204905092915050565b60006111c282610b43565b91506111cd83610b43565b9250817fffffffffffffffffffffffffffffffffffffffffffffffffffffffffffffffff048311821515161561120657611205610ed4565b5b82820290509291505056fea2646970667358221220366b862ad00f8071e7731730a9e4c0c984d5c3ef59f5173160034a7ec1fef5de64736f6c634300080d0033",
  "linkReferences": {},
  "deployedLinkReferences": {}
}