{
  "_format": "hh-sol-artifact-1",
  "contractName": "PoisonEssenceAssets",
  "sourceName": "contracts/PoisonEssenceAssets.sol",
  "abi": [
    {
      "inputs": [],
      "stateMutability": "nonpayable",
      "type": "constructor"
    },
    {
      "anonymous": false,
      "inputs": [
        {
          "indexed": true,
          "internalType": "address",
          "name": "_smartContractAddress",
          "type": "address"
        },
        {
          "indexed": false,
          "internalType": "uint256",
          "name": "_assetId",
          "type": "uint256"
        }
      ],
      "name": "AssetAdded",
      "type": "event"
    },
    {
      "anonymous": false,
      "inputs": [
        {
          "indexed": true,
          "internalType": "address",
          "name": "_smartContractAddress",
          "type": "address"
        },
        {
          "indexed": true,
          "internalType": "uint256",
          "name": "_assetId",
          "type": "uint256"
        },
        {
          "indexed": true,
          "internalType": "uint256",
          "name": "_amount",
          "type": "uint256"
        },
        {
          "indexed": false,
          "internalType": "address",
          "name": "_from",
          "type": "address"
        }
      ],
      "name": "AssetBought",
      "type": "event"
    },
    {
      "anonymous": false,
      "inputs": [
        {
          "indexed": true,
          "internalType": "uint256",
          "name": "_assetId",
          "type": "uint256"
        },
        {
          "indexed": true,
          "internalType": "address",
          "name": "_from",
          "type": "address"
        },
        {
          "indexed": false,
          "internalType": "uint256",
          "name": "amount",
          "type": "uint256"
        }
      ],
      "name": "AssetCopiesDeposited",
      "type": "event"
    },
    {
      "anonymous": false,
      "inputs": [
        {
          "indexed": true,
          "internalType": "uint256",
          "name": "_assetId",
          "type": "uint256"
        },
        {
          "indexed": true,
          "internalType": "address",
          "name": "_from",
          "type": "address"
        },
        {
          "indexed": false,
          "internalType": "uint256",
          "name": "amount",
          "type": "uint256"
        }
      ],
      "name": "AssetCopiesWithdrawn",
      "type": "event"
    },
    {
      "anonymous": false,
      "inputs": [
        {
          "indexed": true,
          "internalType": "address",
          "name": "_smartContractAddress",
          "type": "address"
        },
        {
          "indexed": false,
          "internalType": "uint256",
          "name": "_assetId",
          "type": "uint256"
        }
      ],
      "name": "AssetRemoved",
      "type": "event"
    },
    {
      "anonymous": false,
      "inputs": [
        {
          "indexed": true,
          "internalType": "address",
          "name": "previousOwner",
          "type": "address"
        },
        {
          "indexed": true,
          "internalType": "address",
          "name": "newOwner",
          "type": "address"
        }
      ],
      "name": "OwnershipTransferred",
      "type": "event"
    },
    {
      "anonymous": false,
      "inputs": [
        {
          "indexed": false,
          "internalType": "address",
          "name": "account",
          "type": "address"
        }
      ],
      "name": "Paused",
      "type": "event"
    },
    {
      "anonymous": false,
      "inputs": [
        {
          "indexed": false,
          "internalType": "address",
          "name": "account",
          "type": "address"
        }
      ],
      "name": "Unpaused",
      "type": "event"
    },
    {
      "inputs": [
        {
          "internalType": "address",
          "name": "_smartContract",
          "type": "address"
        },
        {
          "internalType": "uint256",
          "name": "_id",
          "type": "uint256"
        },
        {
          "internalType": "uint256",
          "name": "_tempCopies",
          "type": "uint256"
        },
        {
          "internalType": "uint256",
          "name": "_peCost",
          "type": "uint256"
        },
        {
          "internalType": "string",
          "name": "_sandboxAssetLink",
          "type": "string"
        }
      ],
      "name": "addNewAsset",
      "outputs": [
        {
          "components": [
            {
              "internalType": "address",
              "name": "smartContract",
              "type": "address"
            },
            {
              "internalType": "uint256",
              "name": "id",
              "type": "uint256"
            },
            {
              "internalType": "uint256",
              "name": "peCost",
              "type": "uint256"
            },
            {
              "internalType": "string",
              "name": "sandboxAssetLink",
              "type": "string"
            }
          ],
          "internalType": "struct PoisonEssenceAssets.Asset",
          "name": "",
          "type": "tuple"
        }
      ],
      "stateMutability": "nonpayable",
      "type": "function"
    },
    {
      "inputs": [
        {
          "internalType": "uint256",
          "name": "internalId",
          "type": "uint256"
        },
        {
          "internalType": "uint256",
          "name": "amount",
          "type": "uint256"
        }
      ],
      "name": "buyAsset",
      "outputs": [
        {
          "internalType": "uint256",
          "name": "",
          "type": "uint256"
        }
      ],
      "stateMutability": "nonpayable",
      "type": "function"
    },
    {
      "inputs": [],
      "name": "collectionAssetsAmount",
      "outputs": [
        {
          "internalType": "uint256",
          "name": "",
          "type": "uint256"
        }
      ],
      "stateMutability": "view",
      "type": "function"
    },
    {
      "inputs": [
        {
          "internalType": "uint256",
          "name": "internalId",
          "type": "uint256"
        },
        {
          "internalType": "uint256",
          "name": "amount",
          "type": "uint256"
        }
      ],
      "name": "depositAssetCopies",
      "outputs": [],
      "stateMutability": "nonpayable",
      "type": "function"
    },
    {
      "inputs": [
        {
          "internalType": "uint256",
          "name": "internalId",
          "type": "uint256"
        }
      ],
      "name": "disableAsset",
      "outputs": [],
      "stateMutability": "nonpayable",
      "type": "function"
    },
    {
      "inputs": [
        {
          "internalType": "uint256",
          "name": "internalId",
          "type": "uint256"
        }
      ],
      "name": "enableAsset",
      "outputs": [],
      "stateMutability": "nonpayable",
      "type": "function"
    },
    {
      "inputs": [
        {
          "internalType": "uint256",
          "name": "internalId",
          "type": "uint256"
        }
      ],
      "name": "getAssetCopiesBought",
      "outputs": [
        {
          "internalType": "uint256",
          "name": "",
          "type": "uint256"
        }
      ],
      "stateMutability": "view",
      "type": "function"
    },
    {
      "inputs": [
        {
          "internalType": "uint256",
          "name": "internalId",
          "type": "uint256"
        }
      ],
      "name": "getAssetDetails",
      "outputs": [
        {
          "components": [
            {
              "internalType": "address",
              "name": "smartContract",
              "type": "address"
            },
            {
              "internalType": "uint256",
              "name": "id",
              "type": "uint256"
            },
            {
              "internalType": "uint256",
              "name": "peCost",
              "type": "uint256"
            },
            {
              "internalType": "string",
              "name": "sandboxAssetLink",
              "type": "string"
            }
          ],
          "internalType": "struct PoisonEssenceAssets.Asset",
          "name": "",
          "type": "tuple"
        }
      ],
      "stateMutability": "view",
      "type": "function"
    },
    {
      "inputs": [
        {
          "internalType": "address",
          "name": "peTokenAddress",
          "type": "address"
        },
        {
          "internalType": "address",
          "name": "peAssetsAddress",
          "type": "address"
        }
      ],
      "name": "initializeContract",
      "outputs": [],
      "stateMutability": "nonpayable",
      "type": "function"
    },
    {
      "inputs": [
        {
          "internalType": "uint256",
          "name": "internalId",
          "type": "uint256"
        }
      ],
      "name": "isAssetAvailable",
      "outputs": [
        {
          "internalType": "bool",
          "name": "",
          "type": "bool"
        }
      ],
      "stateMutability": "view",
      "type": "function"
    },
    {
      "inputs": [
        {
          "internalType": "address",
          "name": "operator",
          "type": "address"
        },
        {
          "internalType": "address",
          "name": "from",
          "type": "address"
        },
        {
          "internalType": "uint256",
          "name": "id",
          "type": "uint256"
        },
        {
          "internalType": "uint256",
          "name": "value",
          "type": "uint256"
        },
        {
          "internalType": "bytes",
          "name": "data",
          "type": "bytes"
        }
      ],
      "name": "onERC1155Received",
      "outputs": [
        {
          "internalType": "bytes4",
          "name": "",
          "type": "bytes4"
        }
      ],
      "stateMutability": "pure",
      "type": "function"
    },
    {
      "inputs": [],
      "name": "owner",
      "outputs": [
        {
          "internalType": "address",
          "name": "",
          "type": "address"
        }
      ],
      "stateMutability": "view",
      "type": "function"
    },
    {
      "inputs": [],
      "name": "pause",
      "outputs": [],
      "stateMutability": "nonpayable",
      "type": "function"
    },
    {
      "inputs": [],
      "name": "paused",
      "outputs": [
        {
          "internalType": "bool",
          "name": "",
          "type": "bool"
        }
      ],
      "stateMutability": "view",
      "type": "function"
    },
    {
      "inputs": [
        {
          "internalType": "uint256",
          "name": "internalId",
          "type": "uint256"
        }
      ],
      "name": "removeAsset",
      "outputs": [
        {
          "internalType": "uint256",
          "name": "",
          "type": "uint256"
        }
      ],
      "stateMutability": "nonpayable",
      "type": "function"
    },
    {
      "inputs": [],
      "name": "renounceOwnership",
      "outputs": [],
      "stateMutability": "nonpayable",
      "type": "function"
    },
    {
      "inputs": [],
      "name": "totalAssetsBought",
      "outputs": [
        {
          "internalType": "uint256",
          "name": "",
          "type": "uint256"
        }
      ],
      "stateMutability": "view",
      "type": "function"
    },
    {
      "inputs": [],
      "name": "totalPEBurned",
      "outputs": [
        {
          "internalType": "uint256",
          "name": "",
          "type": "uint256"
        }
      ],
      "stateMutability": "view",
      "type": "function"
    },
    {
      "inputs": [
        {
          "internalType": "address",
          "name": "newOwner",
          "type": "address"
        }
      ],
      "name": "transferOwnership",
      "outputs": [],
      "stateMutability": "nonpayable",
      "type": "function"
    },
    {
      "inputs": [],
      "name": "unpause",
      "outputs": [],
      "stateMutability": "nonpayable",
      "type": "function"
    },
    {
      "inputs": [
        {
          "internalType": "uint256",
          "name": "_assetInternalId",
          "type": "uint256"
        },
        {
          "internalType": "string",
          "name": "_newAssetLink",
          "type": "string"
        }
      ],
      "name": "updateAssetLink",
      "outputs": [],
      "stateMutability": "nonpayable",
      "type": "function"
    },
    {
      "inputs": [
        {
          "internalType": "uint256",
          "name": "internalId",
          "type": "uint256"
        },
        {
          "internalType": "uint256",
          "name": "amount",
          "type": "uint256"
        }
      ],
      "name": "withdrawAssetCopies",
      "outputs": [],
      "stateMutability": "nonpayable",
      "type": "function"
    },
    {
      "inputs": [
        {
          "internalType": "address",
          "name": "_beneficiary",
          "type": "address"
        },
        {
          "internalType": "uint256",
          "name": "_amount",
          "type": "uint256"
        }
      ],
      "name": "withdrawReward",
      "outputs": [],
      "stateMutability": "nonpayable",
      "type": "function"
    }
  ],
  "bytecode": "0x608060405260056001553480156200001657600080fd5b50620000376200002b6200007760201b60201c565b6200007f60201b60201c565b60008060146101000a81548160ff021916908315150217905550600060048190555060006005819055506000600681905550600060078190555062000143565b600033905090565b60008060009054906101000a900473ffffffffffffffffffffffffffffffffffffffff169050816000806101000a81548173ffffffffffffffffffffffffffffffffffffffff021916908373ffffffffffffffffffffffffffffffffffffffff1602179055508173ffffffffffffffffffffffffffffffffffffffff168173ffffffffffffffffffffffffffffffffffffffff167f8be0079c531659141344cd1fd0a4f28419497f9722a3daafe3b4186f6b6457e060405160405180910390a35050565b61342380620001536000396000f3fe608060405234801561001057600080fd5b506004361061014d5760003560e01c8063a1f24b3d116100c3578063e6a361bd1161007c578063e6a361bd14610350578063f14f58f11461036c578063f23a6e611461039c578063f2fde38b146103cc578063f6485295146103e8578063f91dd571146104065761014d565b8063a1f24b3d1461027e578063a657d6f2146102ae578063b4516134146102ca578063bcdff5bd146102e8578063c27f505f14610304578063e36b0b04146103205761014d565b8063715018a611610115578063715018a6146101e25780637435c1f3146101ec57806375de84dd1461021c5780638456cb591461023a5780638da5cb5b1461024457806393e19423146102625761014d565b806309b69e8d1461015257806326430226146101825780633f4ba83a1461019e57806358d3232f146101a85780635c975abb146101c4575b600080fd5b61016c600480360381019061016791906122b1565b610436565b6040516101799190612300565b60405180910390f35b61019c6004803603810190610197919061231b565b610a70565b005b6101a6610aa7565b005b6101c260048036038101906101bd91906123a6565b610ab9565b005b6101cc610b66565b6040516101d99190612401565b60405180910390f35b6101ea610b7c565b005b6102066004803603810190610201919061231b565b610b90565b6040516102139190612401565b60405180910390f35b610224610bba565b6040516102319190612300565b60405180910390f35b610242610bc0565b005b61024c610bd2565b604051610259919061242b565b60405180910390f35b61027c60048036038101906102779190612446565b610bfb565b005b6102986004803603810190610293919061231b565b610c89565b6040516102a591906125a0565b60405180910390f35b6102c860048036038101906102c391906126f7565b610db2565b005b6102d2610f75565b6040516102df9190612300565b60405180910390f35b61030260048036038101906102fd919061231b565b610f7b565b005b61031e600480360381019061031991906122b1565b610fb2565b005b61033a6004803603810190610335919061231b565b6112aa565b6040516103479190612300565b60405180910390f35b61036a600480360381019061036591906122b1565b6112c7565b005b6103866004803603810190610381919061231b565b6115bf565b6040516103939190612300565b60405180910390f35b6103b660048036038101906103b191906127b3565b611923565b6040516103c39190612888565b60405180910390f35b6103e660048036038101906103e191906128a3565b611952565b005b6103f06119d5565b6040516103fd9190612300565b60405180910390f35b610420600480360381019061041b91906128d0565b6119db565b60405161042d91906125a0565b60405180910390f35b600080600860008581526020019081526020016000206040518060800160405290816000820160009054906101000a900473ffffffffffffffffffffffffffffffffffffffff1673ffffffffffffffffffffffffffffffffffffffff1673ffffffffffffffffffffffffffffffffffffffff16815260200160018201548152602001600282015481526020016003820180546104d190612996565b80601f01602080910402602001604051908101604052809291908181526020018280546104fd90612996565b801561054a5780601f1061051f5761010080835404028352916020019161054a565b820191906000526020600020905b81548152906001019060200180831161052d57829003601f168201915b5050505050815250509050600a600085815260200190815260200160002060009054906101000a900460ff166105b5576040517f08c379a00000000000000000000000000000000000000000000000000000000081526004016105ac90612a24565b60405180910390fd5b82600360009054906101000a900473ffffffffffffffffffffffffffffffffffffffff1673ffffffffffffffffffffffffffffffffffffffff1662fdd58e3084602001516040518363ffffffff1660e01b8152600401610616929190612a44565b602060405180830381865afa158015610633573d6000803e3d6000fd5b505050506040513d601f19601f820116820180604052508101906106579190612a82565b1015610698576040517f08c379a000000000000000000000000000000000000000000000000000000000815260040161068f90612b21565b60405180910390fd5b60008382604001516106aa9190612b70565b905080600260009054906101000a900473ffffffffffffffffffffffffffffffffffffffff1673ffffffffffffffffffffffffffffffffffffffff166370a08231336040518263ffffffff1660e01b8152600401610708919061242b565b602060405180830381865afa158015610725573d6000803e3d6000fd5b505050506040513d601f19601f820116820180604052508101906107499190612a82565b101561078a576040517f08c379a000000000000000000000000000000000000000000000000000000000815260040161078190612c3c565b60405180910390fd5b600360009054906101000a900473ffffffffffffffffffffffffffffffffffffffff1673ffffffffffffffffffffffffffffffffffffffff1663f242432a30338560200151886040518563ffffffff1660e01b81526004016107ef9493929190612cb9565b600060405180830381600087803b15801561080957600080fd5b505af115801561081d573d6000803e3d6000fd5b505050506000606460015460646108349190612d11565b8361083f9190612b70565b6108499190612d74565b90506000606460058461085c9190612b70565b6108669190612d74565b9050600260009054906101000a900473ffffffffffffffffffffffffffffffffffffffff1673ffffffffffffffffffffffffffffffffffffffff166323b872dd3330846040518463ffffffff1660e01b81526004016108c793929190612da5565b6020604051808303816000875af11580156108e6573d6000803e3d6000fd5b505050506040513d601f19601f8201168201806040525081019061090a9190612e08565b50600260009054906101000a900473ffffffffffffffffffffffffffffffffffffffff1673ffffffffffffffffffffffffffffffffffffffff16639dc29fac33846040518363ffffffff1660e01b8152600401610968929190612a44565b600060405180830381600087803b15801561098257600080fd5b505af1158015610996573d6000803e3d6000fd5b50505050816005546109a89190612e35565b600581905550856006546109bc9190612e35565b6006819055508560096000898152602001908152602001600020546109e19190612e35565b6009600089815260200190815260200160002081905550858460200151856000015173ffffffffffffffffffffffffffffffffffffffff167f1e4f7d570acf09717d792359ce855be470bad70e4252a8219fcd7c6330e8ea6333604051610a48919061242b565b60405180910390a4600960008881526020019081526020016000205494505050505092915050565b610a78611ee4565b6001600a600083815260200190815260200160002060006101000a81548160ff02191690831515021790555050565b610aaf611ee4565b610ab7611f62565b565b610ac1611ee4565b600260009054906101000a900473ffffffffffffffffffffffffffffffffffffffff1673ffffffffffffffffffffffffffffffffffffffff1663a9059cbb83836040518363ffffffff1660e01b8152600401610b1e929190612a44565b6020604051808303816000875af1158015610b3d573d6000803e3d6000fd5b505050506040513d601f19601f82011682018060405250810190610b619190612e08565b505050565b60008060149054906101000a900460ff16905090565b610b84611ee4565b610b8e6000611fc4565b565b6000600a600083815260200190815260200160002060009054906101000a900460ff169050919050565b60045481565b610bc8611ee4565b610bd0612088565b565b60008060009054906101000a900473ffffffffffffffffffffffffffffffffffffffff16905090565b610c03611ee4565b81600260006101000a81548173ffffffffffffffffffffffffffffffffffffffff021916908373ffffffffffffffffffffffffffffffffffffffff16021790555080600360006101000a81548173ffffffffffffffffffffffffffffffffffffffff021916908373ffffffffffffffffffffffffffffffffffffffff1602179055505050565b610c91612186565b600860008381526020019081526020016000206040518060800160405290816000820160009054906101000a900473ffffffffffffffffffffffffffffffffffffffff1673ffffffffffffffffffffffffffffffffffffffff1673ffffffffffffffffffffffffffffffffffffffff1681526020016001820154815260200160028201548152602001600382018054610d2990612996565b80601f0160208091040260200160405190810160405280929190818152602001828054610d5590612996565b8015610da25780601f10610d7757610100808354040283529160200191610da2565b820191906000526020600020905b815481529060010190602001808311610d8557829003601f168201915b5050505050815250509050919050565b610dba611ee4565b6000600860008481526020019081526020016000206040518060800160405290816000820160009054906101000a900473ffffffffffffffffffffffffffffffffffffffff1673ffffffffffffffffffffffffffffffffffffffff1673ffffffffffffffffffffffffffffffffffffffff1681526020016001820154815260200160028201548152602001600382018054610e5490612996565b80601f0160208091040260200160405190810160405280929190818152602001828054610e8090612996565b8015610ecd5780601f10610ea257610100808354040283529160200191610ecd565b820191906000526020600020905b815481529060010190602001808311610eb057829003601f168201915b5050505050815250509050818160600181905250806008600085815260200190815260200160002060008201518160000160006101000a81548173ffffffffffffffffffffffffffffffffffffffff021916908373ffffffffffffffffffffffffffffffffffffffff16021790555060208201518160010155604082015181600201556060820151816003019080519060200190610f6c9291906121c4565b50905050505050565b60065481565b610f83611ee4565b6000600a600083815260200190815260200160002060006101000a81548160ff02191690831515021790555050565b610fba611ee4565b6000600860008481526020019081526020016000206040518060800160405290816000820160009054906101000a900473ffffffffffffffffffffffffffffffffffffffff1673ffffffffffffffffffffffffffffffffffffffff1673ffffffffffffffffffffffffffffffffffffffff168152602001600182015481526020016002820154815260200160038201805461105490612996565b80601f016020809104026020016040519081016040528092919081815260200182805461108090612996565b80156110cd5780601f106110a2576101008083540402835291602001916110cd565b820191906000526020600020905b8154815290600101906020018083116110b057829003601f168201915b505050505081525050905081600360009054906101000a900473ffffffffffffffffffffffffffffffffffffffff1673ffffffffffffffffffffffffffffffffffffffff1662fdd58e3384602001516040518363ffffffff1660e01b8152600401611139929190612a44565b602060405180830381865afa158015611156573d6000803e3d6000fd5b505050506040513d601f19601f8201168201806040525081019061117a9190612a82565b10156111bb576040517f08c379a00000000000000000000000000000000000000000000000000000000081526004016111b290612efd565b60405180910390fd5b600360009054906101000a900473ffffffffffffffffffffffffffffffffffffffff1673ffffffffffffffffffffffffffffffffffffffff1663f242432a33308460200151866040518563ffffffff1660e01b81526004016112209493929190612cb9565b600060405180830381600087803b15801561123a57600080fd5b505af115801561124e573d6000803e3d6000fd5b505050503373ffffffffffffffffffffffffffffffffffffffff1681602001517fd96ea8c8d7bc789cf21d73801eca18281a36e12a79b284fb4294a26e8b37410b8460405161129d9190612300565b60405180910390a3505050565b600060096000838152602001908152602001600020549050919050565b6112cf611ee4565b6000600860008481526020019081526020016000206040518060800160405290816000820160009054906101000a900473ffffffffffffffffffffffffffffffffffffffff1673ffffffffffffffffffffffffffffffffffffffff1673ffffffffffffffffffffffffffffffffffffffff168152602001600182015481526020016002820154815260200160038201805461136990612996565b80601f016020809104026020016040519081016040528092919081815260200182805461139590612996565b80156113e25780601f106113b7576101008083540402835291602001916113e2565b820191906000526020600020905b8154815290600101906020018083116113c557829003601f168201915b505050505081525050905081600360009054906101000a900473ffffffffffffffffffffffffffffffffffffffff1673ffffffffffffffffffffffffffffffffffffffff1662fdd58e3084602001516040518363ffffffff1660e01b815260040161144e929190612a44565b602060405180830381865afa15801561146b573d6000803e3d6000fd5b505050506040513d601f19601f8201168201806040525081019061148f9190612a82565b10156114d0576040517f08c379a00000000000000000000000000000000000000000000000000000000081526004016114c790612f8f565b60405180910390fd5b600360009054906101000a900473ffffffffffffffffffffffffffffffffffffffff1673ffffffffffffffffffffffffffffffffffffffff1663f242432a30338460200151866040518563ffffffff1660e01b81526004016115359493929190612cb9565b600060405180830381600087803b15801561154f57600080fd5b505af1158015611563573d6000803e3d6000fd5b505050503373ffffffffffffffffffffffffffffffffffffffff1681602001517fe200aa71b863b15f0106752adac4ab9fc8004f9db21c64eb48e58679920eb09c846040516115b29190612300565b60405180910390a3505050565b60006115c9611ee4565b6000600860008481526020019081526020016000206040518060800160405290816000820160009054906101000a900473ffffffffffffffffffffffffffffffffffffffff1673ffffffffffffffffffffffffffffffffffffffff1673ffffffffffffffffffffffffffffffffffffffff168152602001600182015481526020016002820154815260200160038201805461166390612996565b80601f016020809104026020016040519081016040528092919081815260200182805461168f90612996565b80156116dc5780601f106116b1576101008083540402835291602001916116dc565b820191906000526020600020905b8154815290600101906020018083116116bf57829003601f168201915b50505050508152505090506000600360009054906101000a900473ffffffffffffffffffffffffffffffffffffffff1673ffffffffffffffffffffffffffffffffffffffff1662fdd58e3084602001516040518363ffffffff1660e01b8152600401611749929190612a44565b602060405180830381865afa158015611766573d6000803e3d6000fd5b505050506040513d601f19601f8201168201806040525081019061178a9190612a82565b9050600360009054906101000a900473ffffffffffffffffffffffffffffffffffffffff1673ffffffffffffffffffffffffffffffffffffffff1663f242432a30338560200151856040518563ffffffff1660e01b81526004016117f19493929190612cb9565b600060405180830381600087803b15801561180b57600080fd5b505af115801561181f573d6000803e3d6000fd5b50505050816000015173ffffffffffffffffffffffffffffffffffffffff167f3406221f53114f44c9a1bb93d08ee55735f39bf235a54741684a52501207bb5483602001516040516118719190612300565b60405180910390a2600360009054906101000a900473ffffffffffffffffffffffffffffffffffffffff1673ffffffffffffffffffffffffffffffffffffffff1662fdd58e3084602001516040518363ffffffff1660e01b81526004016118d9929190612a44565b602060405180830381865afa1580156118f6573d6000803e3d6000fd5b505050506040513d601f19601f8201168201806040525081019061191a9190612a82565b92505050919050565b60007ff23a6e612e1ff4830e658fe43f4e3cb4a5f8170bd5d9e69fb5d7a7fa9e4fdf9790509695505050505050565b61195a611ee4565b600073ffffffffffffffffffffffffffffffffffffffff168173ffffffffffffffffffffffffffffffffffffffff16036119c9576040517f08c379a00000000000000000000000000000000000000000000000000000000081526004016119c090613021565b60405180910390fd5b6119d281611fc4565b50565b60055481565b6119e3612186565b6119eb611ee4565b60008311611a2e576040517f08c379a0000000000000000000000000000000000000000000000000000000008152600401611a259061308d565b60405180910390fd5b60008411611a71576040517f08c379a0000000000000000000000000000000000000000000000000000000008152600401611a689061311f565b60405180910390fd5b60008511611ab4576040517f08c379a0000000000000000000000000000000000000000000000000000000008152600401611aab9061318b565b60405180910390fd5b600060405180608001604052808873ffffffffffffffffffffffffffffffffffffffff1681526020018781526020018581526020018481525090506000879050600360009054906101000a900473ffffffffffffffffffffffffffffffffffffffff1673ffffffffffffffffffffffffffffffffffffffff168173ffffffffffffffffffffffffffffffffffffffff1614611b84576040517f08c379a0000000000000000000000000000000000000000000000000000000008152600401611b7b9061321d565b60405180910390fd5b858173ffffffffffffffffffffffffffffffffffffffff1662fdd58e338a6040518363ffffffff1660e01b8152600401611bbf929190612a44565b602060405180830381865afa158015611bdc573d6000803e3d6000fd5b505050506040513d601f19601f82011682018060405250810190611c009190612a82565b1015611c41576040517f08c379a0000000000000000000000000000000000000000000000000000000008152600401611c3890613289565b60405180910390fd5b6001600454611c509190612e35565b6004819055506001600754611c659190612e35565b6007819055508073ffffffffffffffffffffffffffffffffffffffff1663f242432a33308a8a6040518563ffffffff1660e01b8152600401611caa9493929190612cb9565b600060405180830381600087803b158015611cc457600080fd5b505af1158015611cd8573d6000803e3d6000fd5b505050508160086000600754815260200190815260200160002060008201518160000160006101000a81548173ffffffffffffffffffffffffffffffffffffffff021916908373ffffffffffffffffffffffffffffffffffffffff16021790555060208201518160010155604082015181600201556060820151816003019080519060200190611d699291906121c4565b509050508773ffffffffffffffffffffffffffffffffffffffff167f66ace591f7c88075839f4a0246420d0cc8a34cbe9a924cd0e1ca63c336344f4b88604051611db39190612300565b60405180910390a26008600060075481526020019081526020016000206040518060800160405290816000820160009054906101000a900473ffffffffffffffffffffffffffffffffffffffff1673ffffffffffffffffffffffffffffffffffffffff1673ffffffffffffffffffffffffffffffffffffffff1681526020016001820154815260200160028201548152602001600382018054611e5590612996565b80601f0160208091040260200160405190810160405280929190818152602001828054611e8190612996565b8015611ece5780601f10611ea357610100808354040283529160200191611ece565b820191906000526020600020905b815481529060010190602001808311611eb157829003601f168201915b5050505050815250509250505095945050505050565b611eec6120eb565b73ffffffffffffffffffffffffffffffffffffffff16611f0a610bd2565b73ffffffffffffffffffffffffffffffffffffffff1614611f60576040517f08c379a0000000000000000000000000000000000000000000000000000000008152600401611f57906132f5565b60405180910390fd5b565b611f6a6120f3565b60008060146101000a81548160ff0219169083151502179055507f5db9ee0a495bf2e6ff9c91a7834c1ba4fdd244a5e8aa4e537bd38aeae4b073aa611fad6120eb565b604051611fba919061242b565b60405180910390a1565b60008060009054906101000a900473ffffffffffffffffffffffffffffffffffffffff169050816000806101000a81548173ffffffffffffffffffffffffffffffffffffffff021916908373ffffffffffffffffffffffffffffffffffffffff1602179055508173ffffffffffffffffffffffffffffffffffffffff168173ffffffffffffffffffffffffffffffffffffffff167f8be0079c531659141344cd1fd0a4f28419497f9722a3daafe3b4186f6b6457e060405160405180910390a35050565b61209061213c565b6001600060146101000a81548160ff0219169083151502179055507f62e78cea01bee320cd4e420270b5ea74000d11b0c9f74754ebdbfc544b05a2586120d46120eb565b6040516120e1919061242b565b60405180910390a1565b600033905090565b6120fb610b66565b61213a576040517f08c379a000000000000000000000000000000000000000000000000000000000815260040161213190613361565b60405180910390fd5b565b612144610b66565b15612184576040517f08c379a000000000000000000000000000000000000000000000000000000000815260040161217b906133cd565b60405180910390fd5b565b6040518060800160405280600073ffffffffffffffffffffffffffffffffffffffff1681526020016000815260200160008152602001606081525090565b8280546121d090612996565b90600052602060002090601f0160209004810192826121f25760008555612239565b82601f1061220b57805160ff1916838001178555612239565b82800160010185558215612239579182015b8281111561223857825182559160200191906001019061221d565b5b509050612246919061224a565b5090565b5b8082111561226357600081600090555060010161224b565b5090565b6000604051905090565b600080fd5b600080fd5b6000819050919050565b61228e8161227b565b811461229957600080fd5b50565b6000813590506122ab81612285565b92915050565b600080604083850312156122c8576122c7612271565b5b60006122d68582860161229c565b92505060206122e78582860161229c565b9150509250929050565b6122fa8161227b565b82525050565b600060208201905061231560008301846122f1565b92915050565b60006020828403121561233157612330612271565b5b600061233f8482850161229c565b91505092915050565b600073ffffffffffffffffffffffffffffffffffffffff82169050919050565b600061237382612348565b9050919050565b61238381612368565b811461238e57600080fd5b50565b6000813590506123a08161237a565b92915050565b600080604083850312156123bd576123bc612271565b5b60006123cb85828601612391565b92505060206123dc8582860161229c565b9150509250929050565b60008115159050919050565b6123fb816123e6565b82525050565b600060208201905061241660008301846123f2565b92915050565b61242581612368565b82525050565b6000602082019050612440600083018461241c565b92915050565b6000806040838503121561245d5761245c612271565b5b600061246b85828601612391565b925050602061247c85828601612391565b9150509250929050565b61248f81612368565b82525050565b61249e8161227b565b82525050565b600081519050919050565b600082825260208201905092915050565b60005b838110156124de5780820151818401526020810190506124c3565b838111156124ed576000848401525b50505050565b6000601f19601f8301169050919050565b600061250f826124a4565b61251981856124af565b93506125298185602086016124c0565b612532816124f3565b840191505092915050565b60006080830160008301516125556000860182612486565b5060208301516125686020860182612495565b50604083015161257b6040860182612495565b50606083015184820360608601526125938282612504565b9150508091505092915050565b600060208201905081810360008301526125ba818461253d565b905092915050565b600080fd5b600080fd5b7f4e487b7100000000000000000000000000000000000000000000000000000000600052604160045260246000fd5b612604826124f3565b810181811067ffffffffffffffff82111715612623576126226125cc565b5b80604052505050565b6000612636612267565b905061264282826125fb565b919050565b600067ffffffffffffffff821115612662576126616125cc565b5b61266b826124f3565b9050602081019050919050565b82818337600083830152505050565b600061269a61269584612647565b61262c565b9050828152602081018484840111156126b6576126b56125c7565b5b6126c1848285612678565b509392505050565b600082601f8301126126de576126dd6125c2565b5b81356126ee848260208601612687565b91505092915050565b6000806040838503121561270e5761270d612271565b5b600061271c8582860161229c565b925050602083013567ffffffffffffffff81111561273d5761273c612276565b5b612749858286016126c9565b9150509250929050565b600080fd5b600080fd5b60008083601f840112612773576127726125c2565b5b8235905067ffffffffffffffff8111156127905761278f612753565b5b6020830191508360018202830111156127ac576127ab612758565b5b9250929050565b60008060008060008060a087890312156127d0576127cf612271565b5b60006127de89828a01612391565b96505060206127ef89828a01612391565b955050604061280089828a0161229c565b945050606061281189828a0161229c565b935050608087013567ffffffffffffffff81111561283257612831612276565b5b61283e89828a0161275d565b92509250509295509295509295565b60007fffffffff0000000000000000000000000000000000000000000000000000000082169050919050565b6128828161284d565b82525050565b600060208201905061289d6000830184612879565b92915050565b6000602082840312156128b9576128b8612271565b5b60006128c784828501612391565b91505092915050565b600080600080600060a086880312156128ec576128eb612271565b5b60006128fa88828901612391565b955050602061290b8882890161229c565b945050604061291c8882890161229c565b935050606061292d8882890161229c565b925050608086013567ffffffffffffffff81111561294e5761294d612276565b5b61295a888289016126c9565b9150509295509295909350565b7f4e487b7100000000000000000000000000000000000000000000000000000000600052602260045260246000fd5b600060028204905060018216806129ae57607f821691505b6020821081036129c1576129c0612967565b5b50919050565b600082825260208201905092915050565b7f4173736574206973206e6f7420617661696c61626c65206e6f772e0000000000600082015250565b6000612a0e601b836129c7565b9150612a19826129d8565b602082019050919050565b60006020820190508181036000830152612a3d81612a01565b9050919050565b6000604082019050612a59600083018561241c565b612a6660208301846122f1565b9392505050565b600081519050612a7c81612285565b92915050565b600060208284031215612a9857612a97612271565b5b6000612aa684828501612a6d565b91505092915050565b7f4e6f7420656e6f7567687420617373657420636f70696573206c65667420746f60008201527f2062757900000000000000000000000000000000000000000000000000000000602082015250565b6000612b0b6024836129c7565b9150612b1682612aaf565b604082019050919050565b60006020820190508181036000830152612b3a81612afe565b9050919050565b7f4e487b7100000000000000000000000000000000000000000000000000000000600052601160045260246000fd5b6000612b7b8261227b565b9150612b868361227b565b9250817fffffffffffffffffffffffffffffffffffffffffffffffffffffffffffffffff0483118215151615612bbf57612bbe612b41565b5b828202905092915050565b7f4e6f7420656e6f75676820746f6b656e73206f776e656420746f20636f6d706c60008201527f6574652074686520707572636861736500000000000000000000000000000000602082015250565b6000612c266030836129c7565b9150612c3182612bca565b604082019050919050565b60006020820190508181036000830152612c5581612c19565b9050919050565b600082825260208201905092915050565b7f3078303000000000000000000000000000000000000000000000000000000000600082015250565b6000612ca3600483612c5c565b9150612cae82612c6d565b602082019050919050565b600060a082019050612cce600083018761241c565b612cdb602083018661241c565b612ce860408301856122f1565b612cf560608301846122f1565b8181036080830152612d0681612c96565b905095945050505050565b6000612d1c8261227b565b9150612d278361227b565b925082821015612d3a57612d39612b41565b5b828203905092915050565b7f4e487b7100000000000000000000000000000000000000000000000000000000600052601260045260246000fd5b6000612d7f8261227b565b9150612d8a8361227b565b925082612d9a57612d99612d45565b5b828204905092915050565b6000606082019050612dba600083018661241c565b612dc7602083018561241c565b612dd460408301846122f1565b949350505050565b612de5816123e6565b8114612df057600080fd5b50565b600081519050612e0281612ddc565b92915050565b600060208284031215612e1e57612e1d612271565b5b6000612e2c84828501612df3565b91505092915050565b6000612e408261227b565b9150612e4b8361227b565b9250827fffffffffffffffffffffffffffffffffffffffffffffffffffffffffffffffff03821115612e8057612e7f612b41565b5b828201905092915050565b7f4e6f7420656e6f7567687420617373657420636f70696573206c65667420746f60008201527f206465706f736974000000000000000000000000000000000000000000000000602082015250565b6000612ee76028836129c7565b9150612ef282612e8b565b604082019050919050565b60006020820190508181036000830152612f1681612eda565b9050919050565b7f4e6f7420656e6f7567687420617373657420636f70696573206c65667420746f60008201527f2077697468647261770000000000000000000000000000000000000000000000602082015250565b6000612f796029836129c7565b9150612f8482612f1d565b604082019050919050565b60006020820190508181036000830152612fa881612f6c565b9050919050565b7f4f776e61626c653a206e6577206f776e657220697320746865207a65726f206160008201527f6464726573730000000000000000000000000000000000000000000000000000602082015250565b600061300b6026836129c7565b915061301682612faf565b604082019050919050565b6000602082019050818103600083015261303a81612ffe565b9050919050565b7f504520636f73742063616e6e6f74206265203021000000000000000000000000600082015250565b60006130776014836129c7565b915061308282613041565b602082019050919050565b600060208201905081810360008301526130a68161306a565b9050919050565b7f43616e6e6f74206372656174652061206e65772061737365742077697468203060008201527f20636f7069657321000000000000000000000000000000000000000000000000602082015250565b60006131096028836129c7565b9150613114826130ad565b604082019050919050565b60006020820190508181036000830152613138816130fc565b9050919050565b7f30206973206e6f7420612076616c696420617373657464204944000000000000600082015250565b6000613175601a836129c7565b91506131808261313f565b602082019050919050565b600060208201905081810360008301526131a481613168565b9050919050565b7f576f726b696e672077697468203220646966666572656e74204e465420736d6160008201527f727420636f6e7472616374730000000000000000000000000000000000000000602082015250565b6000613207602c836129c7565b9150613212826131ab565b604082019050919050565b60006020820190508181036000830152613236816131fa565b9050919050565b7f4e6f74206f776e656420656e6f75676820617373657420636f70696573000000600082015250565b6000613273601d836129c7565b915061327e8261323d565b602082019050919050565b600060208201905081810360008301526132a281613266565b9050919050565b7f4f776e61626c653a2063616c6c6572206973206e6f7420746865206f776e6572600082015250565b60006132df6020836129c7565b91506132ea826132a9565b602082019050919050565b6000602082019050818103600083015261330e816132d2565b9050919050565b7f5061757361626c653a206e6f7420706175736564000000000000000000000000600082015250565b600061334b6014836129c7565b915061335682613315565b602082019050919050565b6000602082019050818103600083015261337a8161333e565b9050919050565b7f5061757361626c653a2070617573656400000000000000000000000000000000600082015250565b60006133b76010836129c7565b91506133c282613381565b602082019050919050565b600060208201905081810360008301526133e6816133aa565b905091905056fea2646970667358221220e829b85a384f5b5744f0654b01fefa2b56e32c6447e5ac09a98bc9335990129f64736f6c634300080d0033",
  "linkReferences": {},
  "deployedLinkReferences": {}
}