{
  "_format": "hh-sol-artifact-1",
  "contractName": "PoisonEssenceAssets",
  "sourceName": "contracts/PoisonEssenceAssets.sol",
  "abi": [
    {
      "inputs": [],
      "stateMutability": "nonpayable",
      "type": "constructor"
    },
    {
      "anonymous": false,
      "inputs": [
        {
          "indexed": true,
          "internalType": "address",
          "name": "_smartContractAddress",
          "type": "address"
        },
        {
          "indexed": false,
          "internalType": "uint256",
          "name": "_assetId",
          "type": "uint256"
        }
      ],
      "name": "AssetAdded",
      "type": "event"
    },
    {
      "anonymous": false,
      "inputs": [
        {
          "indexed": true,
          "internalType": "address",
          "name": "_smartContractAddress",
          "type": "address"
        },
        {
          "indexed": true,
          "internalType": "uint256",
          "name": "_assetId",
          "type": "uint256"
        },
        {
          "indexed": true,
          "internalType": "uint256",
          "name": "_amount",
          "type": "uint256"
        },
        {
          "indexed": false,
          "internalType": "address",
          "name": "_from",
          "type": "address"
        }
      ],
      "name": "AssetBought",
      "type": "event"
    },
    {
      "anonymous": false,
      "inputs": [
        {
          "indexed": true,
          "internalType": "uint256",
          "name": "_assetId",
          "type": "uint256"
        },
        {
          "indexed": true,
          "internalType": "address",
          "name": "_from",
          "type": "address"
        },
        {
          "indexed": false,
          "internalType": "uint256",
          "name": "amount",
          "type": "uint256"
        }
      ],
      "name": "AssetCopiesDeposited",
      "type": "event"
    },
    {
      "anonymous": false,
      "inputs": [
        {
          "indexed": true,
          "internalType": "uint256",
          "name": "_assetId",
          "type": "uint256"
        },
        {
          "indexed": true,
          "internalType": "address",
          "name": "_from",
          "type": "address"
        },
        {
          "indexed": false,
          "internalType": "uint256",
          "name": "amount",
          "type": "uint256"
        }
      ],
      "name": "AssetCopiesWithdrawn",
      "type": "event"
    },
    {
      "anonymous": false,
      "inputs": [
        {
          "indexed": true,
          "internalType": "address",
          "name": "_smartContractAddress",
          "type": "address"
        },
        {
          "indexed": false,
          "internalType": "uint256",
          "name": "_assetId",
          "type": "uint256"
        }
      ],
      "name": "AssetRemoved",
      "type": "event"
    },
    {
      "anonymous": false,
      "inputs": [
        {
          "indexed": true,
          "internalType": "address",
          "name": "previousOwner",
          "type": "address"
        },
        {
          "indexed": true,
          "internalType": "address",
          "name": "newOwner",
          "type": "address"
        }
      ],
      "name": "OwnershipTransferred",
      "type": "event"
    },
    {
      "anonymous": false,
      "inputs": [
        {
          "indexed": false,
          "internalType": "address",
          "name": "account",
          "type": "address"
        }
      ],
      "name": "Paused",
      "type": "event"
    },
    {
      "anonymous": false,
      "inputs": [
        {
          "indexed": true,
          "internalType": "bytes32",
          "name": "role",
          "type": "bytes32"
        },
        {
          "indexed": true,
          "internalType": "bytes32",
          "name": "previousAdminRole",
          "type": "bytes32"
        },
        {
          "indexed": true,
          "internalType": "bytes32",
          "name": "newAdminRole",
          "type": "bytes32"
        }
      ],
      "name": "RoleAdminChanged",
      "type": "event"
    },
    {
      "anonymous": false,
      "inputs": [
        {
          "indexed": true,
          "internalType": "bytes32",
          "name": "role",
          "type": "bytes32"
        },
        {
          "indexed": true,
          "internalType": "address",
          "name": "account",
          "type": "address"
        },
        {
          "indexed": true,
          "internalType": "address",
          "name": "sender",
          "type": "address"
        }
      ],
      "name": "RoleGranted",
      "type": "event"
    },
    {
      "anonymous": false,
      "inputs": [
        {
          "indexed": true,
          "internalType": "bytes32",
          "name": "role",
          "type": "bytes32"
        },
        {
          "indexed": true,
          "internalType": "address",
          "name": "account",
          "type": "address"
        },
        {
          "indexed": true,
          "internalType": "address",
          "name": "sender",
          "type": "address"
        }
      ],
      "name": "RoleRevoked",
      "type": "event"
    },
    {
      "anonymous": false,
      "inputs": [
        {
          "indexed": false,
          "internalType": "address",
          "name": "account",
          "type": "address"
        }
      ],
      "name": "Unpaused",
      "type": "event"
    },
    {
      "inputs": [],
      "name": "ASSETS_MANAGER_ROLE",
      "outputs": [
        {
          "internalType": "bytes32",
          "name": "",
          "type": "bytes32"
        }
      ],
      "stateMutability": "view",
      "type": "function"
    },
    {
      "inputs": [],
      "name": "DEFAULT_ADMIN_ROLE",
      "outputs": [
        {
          "internalType": "bytes32",
          "name": "",
          "type": "bytes32"
        }
      ],
      "stateMutability": "view",
      "type": "function"
    },
    {
      "inputs": [],
      "name": "TEAM_ROLE",
      "outputs": [
        {
          "internalType": "bytes32",
          "name": "",
          "type": "bytes32"
        }
      ],
      "stateMutability": "view",
      "type": "function"
    },
    {
      "inputs": [
        {
          "internalType": "address",
          "name": "newManager",
          "type": "address"
        }
      ],
      "name": "addAssetsManagerRole",
      "outputs": [],
      "stateMutability": "nonpayable",
      "type": "function"
    },
    {
      "inputs": [
        {
          "internalType": "address",
          "name": "_smartContract",
          "type": "address"
        },
        {
          "internalType": "uint256",
          "name": "_id",
          "type": "uint256"
        },
        {
          "internalType": "uint256",
          "name": "_tempCopies",
          "type": "uint256"
        },
        {
          "internalType": "uint256",
          "name": "_peCost",
          "type": "uint256"
        },
        {
          "internalType": "string",
          "name": "_sandboxAssetLink",
          "type": "string"
        }
      ],
      "name": "addNewAsset",
      "outputs": [
        {
          "components": [
            {
              "internalType": "address",
              "name": "smartContract",
              "type": "address"
            },
            {
              "internalType": "uint256",
              "name": "id",
              "type": "uint256"
            },
            {
              "internalType": "uint256",
              "name": "peCost",
              "type": "uint256"
            },
            {
              "internalType": "string",
              "name": "sandboxAssetLink",
              "type": "string"
            }
          ],
          "internalType": "struct PoisonEssenceAssets.Asset",
          "name": "",
          "type": "tuple"
        }
      ],
      "stateMutability": "nonpayable",
      "type": "function"
    },
    {
      "inputs": [
        {
          "internalType": "address",
          "name": "newTeamMember",
          "type": "address"
        }
      ],
      "name": "addTeamRole",
      "outputs": [],
      "stateMutability": "nonpayable",
      "type": "function"
    },
    {
      "inputs": [
        {
          "internalType": "uint256",
          "name": "internalId",
          "type": "uint256"
        },
        {
          "internalType": "uint256",
          "name": "amount",
          "type": "uint256"
        }
      ],
      "name": "buyAsset",
      "outputs": [
        {
          "internalType": "uint256",
          "name": "",
          "type": "uint256"
        }
      ],
      "stateMutability": "nonpayable",
      "type": "function"
    },
    {
      "inputs": [],
      "name": "collectionAssetsAmount",
      "outputs": [
        {
          "internalType": "uint256",
          "name": "",
          "type": "uint256"
        }
      ],
      "stateMutability": "view",
      "type": "function"
    },
    {
      "inputs": [
        {
          "internalType": "uint256",
          "name": "internalId",
          "type": "uint256"
        },
        {
          "internalType": "uint256",
          "name": "amount",
          "type": "uint256"
        }
      ],
      "name": "depositAssetCopies",
      "outputs": [],
      "stateMutability": "nonpayable",
      "type": "function"
    },
    {
      "inputs": [
        {
          "internalType": "uint256",
          "name": "internalId",
          "type": "uint256"
        }
      ],
      "name": "disableAsset",
      "outputs": [],
      "stateMutability": "nonpayable",
      "type": "function"
    },
    {
      "inputs": [
        {
          "internalType": "uint256",
          "name": "internalId",
          "type": "uint256"
        }
      ],
      "name": "enableAsset",
      "outputs": [],
      "stateMutability": "nonpayable",
      "type": "function"
    },
    {
      "inputs": [
        {
          "internalType": "uint256",
          "name": "internalId",
          "type": "uint256"
        }
      ],
      "name": "getAssetCopiesBought",
      "outputs": [
        {
          "internalType": "uint256",
          "name": "",
          "type": "uint256"
        }
      ],
      "stateMutability": "view",
      "type": "function"
    },
    {
      "inputs": [
        {
          "internalType": "uint256",
          "name": "internalId",
          "type": "uint256"
        }
      ],
      "name": "getAssetDetails",
      "outputs": [
        {
          "components": [
            {
              "internalType": "address",
              "name": "smartContract",
              "type": "address"
            },
            {
              "internalType": "uint256",
              "name": "id",
              "type": "uint256"
            },
            {
              "internalType": "uint256",
              "name": "peCost",
              "type": "uint256"
            },
            {
              "internalType": "string",
              "name": "sandboxAssetLink",
              "type": "string"
            }
          ],
          "internalType": "struct PoisonEssenceAssets.Asset",
          "name": "",
          "type": "tuple"
        }
      ],
      "stateMutability": "view",
      "type": "function"
    },
    {
      "inputs": [
        {
          "internalType": "bytes32",
          "name": "role",
          "type": "bytes32"
        }
      ],
      "name": "getRoleAdmin",
      "outputs": [
        {
          "internalType": "bytes32",
          "name": "",
          "type": "bytes32"
        }
      ],
      "stateMutability": "view",
      "type": "function"
    },
    {
      "inputs": [
        {
          "internalType": "bytes32",
          "name": "role",
          "type": "bytes32"
        },
        {
          "internalType": "address",
          "name": "account",
          "type": "address"
        }
      ],
      "name": "grantRole",
      "outputs": [],
      "stateMutability": "nonpayable",
      "type": "function"
    },
    {
      "inputs": [
        {
          "internalType": "bytes32",
          "name": "role",
          "type": "bytes32"
        },
        {
          "internalType": "address",
          "name": "account",
          "type": "address"
        }
      ],
      "name": "hasRole",
      "outputs": [
        {
          "internalType": "bool",
          "name": "",
          "type": "bool"
        }
      ],
      "stateMutability": "view",
      "type": "function"
    },
    {
      "inputs": [
        {
          "internalType": "address",
          "name": "peTokenAddress",
          "type": "address"
        },
        {
          "internalType": "address",
          "name": "peAssetsAddress",
          "type": "address"
        }
      ],
      "name": "initializeContract",
      "outputs": [],
      "stateMutability": "nonpayable",
      "type": "function"
    },
    {
      "inputs": [
        {
          "internalType": "uint256",
          "name": "internalId",
          "type": "uint256"
        }
      ],
      "name": "isAssetAvailable",
      "outputs": [
        {
          "internalType": "bool",
          "name": "",
          "type": "bool"
        }
      ],
      "stateMutability": "view",
      "type": "function"
    },
    {
      "inputs": [
        {
          "internalType": "address",
          "name": "operator",
          "type": "address"
        },
        {
          "internalType": "address",
          "name": "from",
          "type": "address"
        },
        {
          "internalType": "uint256",
          "name": "id",
          "type": "uint256"
        },
        {
          "internalType": "uint256",
          "name": "value",
          "type": "uint256"
        },
        {
          "internalType": "bytes",
          "name": "data",
          "type": "bytes"
        }
      ],
      "name": "onERC1155Received",
      "outputs": [
        {
          "internalType": "bytes4",
          "name": "",
          "type": "bytes4"
        }
      ],
      "stateMutability": "pure",
      "type": "function"
    },
    {
      "inputs": [],
      "name": "owner",
      "outputs": [
        {
          "internalType": "address",
          "name": "",
          "type": "address"
        }
      ],
      "stateMutability": "view",
      "type": "function"
    },
    {
      "inputs": [],
      "name": "pause",
      "outputs": [],
      "stateMutability": "nonpayable",
      "type": "function"
    },
    {
      "inputs": [],
      "name": "paused",
      "outputs": [
        {
          "internalType": "bool",
          "name": "",
          "type": "bool"
        }
      ],
      "stateMutability": "view",
      "type": "function"
    },
    {
      "inputs": [
        {
          "internalType": "uint256",
          "name": "internalId",
          "type": "uint256"
        }
      ],
      "name": "removeAsset",
      "outputs": [
        {
          "internalType": "uint256",
          "name": "",
          "type": "uint256"
        }
      ],
      "stateMutability": "nonpayable",
      "type": "function"
    },
    {
      "inputs": [],
      "name": "renounceOwnership",
      "outputs": [],
      "stateMutability": "nonpayable",
      "type": "function"
    },
    {
      "inputs": [
        {
          "internalType": "bytes32",
          "name": "role",
          "type": "bytes32"
        },
        {
          "internalType": "address",
          "name": "account",
          "type": "address"
        }
      ],
      "name": "renounceRole",
      "outputs": [],
      "stateMutability": "nonpayable",
      "type": "function"
    },
    {
      "inputs": [
        {
          "internalType": "address",
          "name": "authorizedAccount",
          "type": "address"
        }
      ],
      "name": "revokeAssetsManagerRole",
      "outputs": [],
      "stateMutability": "nonpayable",
      "type": "function"
    },
    {
      "inputs": [
        {
          "internalType": "bytes32",
          "name": "role",
          "type": "bytes32"
        },
        {
          "internalType": "address",
          "name": "account",
          "type": "address"
        }
      ],
      "name": "revokeRole",
      "outputs": [],
      "stateMutability": "nonpayable",
      "type": "function"
    },
    {
      "inputs": [
        {
          "internalType": "address",
          "name": "authorizedAccount",
          "type": "address"
        }
      ],
      "name": "revokeTeamRole",
      "outputs": [],
      "stateMutability": "nonpayable",
      "type": "function"
    },
    {
      "inputs": [
        {
          "internalType": "bytes4",
          "name": "interfaceId",
          "type": "bytes4"
        }
      ],
      "name": "supportsInterface",
      "outputs": [
        {
          "internalType": "bool",
          "name": "",
          "type": "bool"
        }
      ],
      "stateMutability": "view",
      "type": "function"
    },
    {
      "inputs": [],
      "name": "totalAssetsBought",
      "outputs": [
        {
          "internalType": "uint256",
          "name": "",
          "type": "uint256"
        }
      ],
      "stateMutability": "view",
      "type": "function"
    },
    {
      "inputs": [],
      "name": "totalPEBurned",
      "outputs": [
        {
          "internalType": "uint256",
          "name": "",
          "type": "uint256"
        }
      ],
      "stateMutability": "view",
      "type": "function"
    },
    {
      "inputs": [
        {
          "internalType": "address",
          "name": "newOwner",
          "type": "address"
        }
      ],
      "name": "transferOwnership",
      "outputs": [],
      "stateMutability": "nonpayable",
      "type": "function"
    },
    {
      "inputs": [],
      "name": "unpause",
      "outputs": [],
      "stateMutability": "nonpayable",
      "type": "function"
    },
    {
      "inputs": [
        {
          "internalType": "uint256",
          "name": "_assetInternalId",
          "type": "uint256"
        },
        {
          "internalType": "string",
          "name": "_newAssetLink",
          "type": "string"
        }
      ],
      "name": "updateAssetLink",
      "outputs": [],
      "stateMutability": "nonpayable",
      "type": "function"
    },
    {
      "inputs": [
        {
          "internalType": "uint256",
          "name": "internalId",
          "type": "uint256"
        },
        {
          "internalType": "uint256",
          "name": "amount",
          "type": "uint256"
        }
      ],
      "name": "withdrawAssetCopies",
      "outputs": [],
      "stateMutability": "nonpayable",
      "type": "function"
    },
    {
      "inputs": [
        {
          "internalType": "address",
          "name": "_beneficiary",
          "type": "address"
        },
        {
          "internalType": "uint256",
          "name": "_amount",
          "type": "uint256"
        }
      ],
      "name": "withdrawReward",
      "outputs": [],
      "stateMutability": "nonpayable",
      "type": "function"
    }
  ],
  "bytecode": "0x608060405260056002553480156200001657600080fd5b50620000376200002b6200007760201b60201c565b6200007f60201b60201c565b60008060146101000a81548160ff021916908315150217905550600060058190555060006006819055506000600781905550600060088190555062000143565b600033905090565b60008060009054906101000a900473ffffffffffffffffffffffffffffffffffffffff169050816000806101000a81548173ffffffffffffffffffffffffffffffffffffffff021916908373ffffffffffffffffffffffffffffffffffffffff1602179055508173ffffffffffffffffffffffffffffffffffffffff168173ffffffffffffffffffffffffffffffffffffffff167f8be0079c531659141344cd1fd0a4f28419497f9722a3daafe3b4186f6b6457e060405160405180910390a35050565b6143b880620001536000396000f3fe608060405234801561001057600080fd5b506004361061021c5760003560e01c806391d1485411610125578063d547741f116100ad578063f23a6e611161007c578063f23a6e61146105fb578063f2fde38b1461062b578063f648529514610647578063f91dd57114610665578063fd29a155146106955761021c565b8063d547741f14610563578063e36b0b041461057f578063e6a361bd146105af578063f14f58f1146105cb5761021c565b8063a657d6f2116100f4578063a657d6f2146104d5578063a696eb13146104f1578063b45161341461050d578063bcdff5bd1461052b578063c27f505f146105475761021c565b806391d148541461043b57806393e194231461046b578063a1f24b3d14610487578063a217fddf146104b75761021c565b806349d5e604116101a8578063715018a611610177578063715018a6146103bb5780637435c1f3146103c557806375de84dd146103f55780638456cb59146104135780638da5cb5b1461041d5761021c565b806349d5e604146103475780635699fbad1461036557806358d3232f146103815780635c975abb1461039d5761021c565b80632f2ff15d116101ef5780632f2ff15d146102cd578063307b3541146102e957806336568abe146103055780633f4ba83a146103215780634056733a1461032b5761021c565b806301ffc9a71461022157806309b69e8d14610251578063248a9ca31461028157806326430226146102b1575b600080fd5b61023b60048036038101906102369190612e83565b6106b3565b6040516102489190612ecb565b60405180910390f35b61026b60048036038101906102669190612f1c565b61072d565b6040516102789190612f6b565b60405180910390f35b61029b60048036038101906102969190612fbc565b610d67565b6040516102a89190612ff8565b60405180910390f35b6102cb60048036038101906102c69190613013565b610d87565b005b6102e760048036038101906102e2919061309e565b610de1565b005b61030360048036038101906102fe91906130de565b610e02565b005b61031f600480360381019061031a919061309e565b610e37565b005b610329610eba565b005b610345600480360381019061034091906130de565b610ecc565b005b61034f610f01565b60405161035c9190612ff8565b60405180910390f35b61037f600480360381019061037a91906130de565b610f25565b005b61039b6004803603810190610396919061310b565b610f5a565b005b6103a561102a565b6040516103b29190612ecb565b60405180910390f35b6103c3611040565b005b6103df60048036038101906103da9190613013565b611054565b6040516103ec9190612ecb565b60405180910390f35b6103fd61107e565b60405161040a9190612f6b565b60405180910390f35b61041b611084565b005b610425611096565b604051610432919061315a565b60405180910390f35b6104556004803603810190610450919061309e565b6110bf565b6040516104629190612ecb565b60405180910390f35b61048560048036038101906104809190613175565b61112a565b005b6104a1600480360381019061049c9190613013565b6111b8565b6040516104ae91906132cf565b60405180910390f35b6104bf6112e1565b6040516104cc9190612ff8565b60405180910390f35b6104ef60048036038101906104ea9190613426565b6112e8565b005b61050b600480360381019061050691906130de565b6114ce565b005b610515611503565b6040516105229190612f6b565b60405180910390f35b61054560048036038101906105409190613013565b611509565b005b610561600480360381019061055c9190612f1c565b611563565b005b61057d6004803603810190610578919061309e565b61187e565b005b61059960048036038101906105949190613013565b61189f565b6040516105a69190612f6b565b60405180910390f35b6105c960048036038101906105c49190612f1c565b6118bc565b005b6105e560048036038101906105e09190613013565b611bd7565b6040516105f29190612f6b565b60405180910390f35b610615600480360381019061061091906134e2565b611f5e565b604051610622919061358b565b60405180910390f35b610645600480360381019061064091906130de565b611f8d565b005b61064f612010565b60405161065c9190612f6b565b60405180910390f35b61067f600480360381019061067a91906135a6565b612016565b60405161068c91906132cf565b60405180910390f35b61069d612542565b6040516106aa9190612ff8565b60405180910390f35b60007f7965db0b000000000000000000000000000000000000000000000000000000007bffffffffffffffffffffffffffffffffffffffffffffffffffffffff1916827bffffffffffffffffffffffffffffffffffffffffffffffffffffffff19161480610726575061072582612566565b5b9050919050565b600080600960008581526020019081526020016000206040518060800160405290816000820160009054906101000a900473ffffffffffffffffffffffffffffffffffffffff1673ffffffffffffffffffffffffffffffffffffffff1673ffffffffffffffffffffffffffffffffffffffff16815260200160018201548152602001600282015481526020016003820180546107c89061366c565b80601f01602080910402602001604051908101604052809291908181526020018280546107f49061366c565b80156108415780601f1061081657610100808354040283529160200191610841565b820191906000526020600020905b81548152906001019060200180831161082457829003601f168201915b5050505050815250509050600b600085815260200190815260200160002060009054906101000a900460ff166108ac576040517f08c379a00000000000000000000000000000000000000000000000000000000081526004016108a3906136fa565b60405180910390fd5b82600460009054906101000a900473ffffffffffffffffffffffffffffffffffffffff1673ffffffffffffffffffffffffffffffffffffffff1662fdd58e3084602001516040518363ffffffff1660e01b815260040161090d92919061371a565b602060405180830381865afa15801561092a573d6000803e3d6000fd5b505050506040513d601f19601f8201168201806040525081019061094e9190613758565b101561098f576040517f08c379a0000000000000000000000000000000000000000000000000000000008152600401610986906137f7565b60405180910390fd5b60008382604001516109a19190613846565b905080600360009054906101000a900473ffffffffffffffffffffffffffffffffffffffff1673ffffffffffffffffffffffffffffffffffffffff166370a08231336040518263ffffffff1660e01b81526004016109ff919061315a565b602060405180830381865afa158015610a1c573d6000803e3d6000fd5b505050506040513d601f19601f82011682018060405250810190610a409190613758565b1015610a81576040517f08c379a0000000000000000000000000000000000000000000000000000000008152600401610a7890613912565b60405180910390fd5b600460009054906101000a900473ffffffffffffffffffffffffffffffffffffffff1673ffffffffffffffffffffffffffffffffffffffff1663f242432a30338560200151886040518563ffffffff1660e01b8152600401610ae6949392919061398f565b600060405180830381600087803b158015610b0057600080fd5b505af1158015610b14573d6000803e3d6000fd5b50505050600060646002546064610b2b91906139e7565b83610b369190613846565b610b409190613a4a565b905060006064600584610b539190613846565b610b5d9190613a4a565b9050600360009054906101000a900473ffffffffffffffffffffffffffffffffffffffff1673ffffffffffffffffffffffffffffffffffffffff166323b872dd3330846040518463ffffffff1660e01b8152600401610bbe93929190613a7b565b6020604051808303816000875af1158015610bdd573d6000803e3d6000fd5b505050506040513d601f19601f82011682018060405250810190610c019190613ade565b50600360009054906101000a900473ffffffffffffffffffffffffffffffffffffffff1673ffffffffffffffffffffffffffffffffffffffff16639dc29fac33846040518363ffffffff1660e01b8152600401610c5f92919061371a565b600060405180830381600087803b158015610c7957600080fd5b505af1158015610c8d573d6000803e3d6000fd5b5050505081600654610c9f9190613b0b565b60068190555085600754610cb39190613b0b565b60078190555085600a600089815260200190815260200160002054610cd89190613b0b565b600a600089815260200190815260200160002081905550858460200151856000015173ffffffffffffffffffffffffffffffffffffffff167f1e4f7d570acf09717d792359ce855be470bad70e4252a8219fcd7c6330e8ea6333604051610d3f919061315a565b60405180910390a4600a60008881526020019081526020016000205494505050505092915050565b600060016000838152602001908152602001600020600101549050919050565b7f4f4f5524afb308b5b7d93e9db2970fe05210199d5c49009f4e0debab7fc41d0e610db1816125d0565b6001600b600084815260200190815260200160002060006101000a81548160ff0219169083151502179055505050565b610dea82610d67565b610df3816125d0565b610dfd83836125e4565b505050565b610e0a6126c4565b610e347f4f4f5524afb308b5b7d93e9db2970fe05210199d5c49009f4e0debab7fc41d0e826125e4565b50565b610e3f612742565b73ffffffffffffffffffffffffffffffffffffffff168173ffffffffffffffffffffffffffffffffffffffff1614610eac576040517f08c379a0000000000000000000000000000000000000000000000000000000008152600401610ea390613bd3565b60405180910390fd5b610eb6828261274a565b5050565b610ec26126c4565b610eca61282c565b565b610ed46126c4565b610efe7f5146a08baf902532d0ee2f909971144f12ca32651cd70cbee1117cddfb3b3b33826125e4565b50565b7f5146a08baf902532d0ee2f909971144f12ca32651cd70cbee1117cddfb3b3b3381565b610f2d6126c4565b610f577f5146a08baf902532d0ee2f909971144f12ca32651cd70cbee1117cddfb3b3b338261274a565b50565b7f5146a08baf902532d0ee2f909971144f12ca32651cd70cbee1117cddfb3b3b33610f84816125d0565b600360009054906101000a900473ffffffffffffffffffffffffffffffffffffffff1673ffffffffffffffffffffffffffffffffffffffff1663a9059cbb84846040518363ffffffff1660e01b8152600401610fe192919061371a565b6020604051808303816000875af1158015611000573d6000803e3d6000fd5b505050506040513d601f19601f820116820180604052508101906110249190613ade565b50505050565b60008060149054906101000a900460ff16905090565b6110486126c4565b611052600061288e565b565b6000600b600083815260200190815260200160002060009054906101000a900460ff169050919050565b60055481565b61108c6126c4565b611094612952565b565b60008060009054906101000a900473ffffffffffffffffffffffffffffffffffffffff16905090565b60006001600084815260200190815260200160002060000160008373ffffffffffffffffffffffffffffffffffffffff1673ffffffffffffffffffffffffffffffffffffffff16815260200190815260200160002060009054906101000a900460ff16905092915050565b6111326126c4565b81600360006101000a81548173ffffffffffffffffffffffffffffffffffffffff021916908373ffffffffffffffffffffffffffffffffffffffff16021790555080600460006101000a81548173ffffffffffffffffffffffffffffffffffffffff021916908373ffffffffffffffffffffffffffffffffffffffff1602179055505050565b6111c0612d36565b600960008381526020019081526020016000206040518060800160405290816000820160009054906101000a900473ffffffffffffffffffffffffffffffffffffffff1673ffffffffffffffffffffffffffffffffffffffff1673ffffffffffffffffffffffffffffffffffffffff16815260200160018201548152602001600282015481526020016003820180546112589061366c565b80601f01602080910402602001604051908101604052809291908181526020018280546112849061366c565b80156112d15780601f106112a6576101008083540402835291602001916112d1565b820191906000526020600020905b8154815290600101906020018083116112b457829003601f168201915b5050505050815250509050919050565b6000801b81565b7f4f4f5524afb308b5b7d93e9db2970fe05210199d5c49009f4e0debab7fc41d0e611312816125d0565b6000600960008581526020019081526020016000206040518060800160405290816000820160009054906101000a900473ffffffffffffffffffffffffffffffffffffffff1673ffffffffffffffffffffffffffffffffffffffff1673ffffffffffffffffffffffffffffffffffffffff16815260200160018201548152602001600282015481526020016003820180546113ac9061366c565b80601f01602080910402602001604051908101604052809291908181526020018280546113d89061366c565b80156114255780601f106113fa57610100808354040283529160200191611425565b820191906000526020600020905b81548152906001019060200180831161140857829003601f168201915b5050505050815250509050828160600181905250806009600086815260200190815260200160002060008201518160000160006101000a81548173ffffffffffffffffffffffffffffffffffffffff021916908373ffffffffffffffffffffffffffffffffffffffff160217905550602082015181600101556040820151816002015560608201518160030190805190602001906114c4929190612d74565b5090505050505050565b6114d66126c4565b6115007f4f4f5524afb308b5b7d93e9db2970fe05210199d5c49009f4e0debab7fc41d0e8261274a565b50565b60075481565b7f4f4f5524afb308b5b7d93e9db2970fe05210199d5c49009f4e0debab7fc41d0e611533816125d0565b6000600b600084815260200190815260200160002060006101000a81548160ff0219169083151502179055505050565b7f4f4f5524afb308b5b7d93e9db2970fe05210199d5c49009f4e0debab7fc41d0e61158d816125d0565b6000600960008581526020019081526020016000206040518060800160405290816000820160009054906101000a900473ffffffffffffffffffffffffffffffffffffffff1673ffffffffffffffffffffffffffffffffffffffff1673ffffffffffffffffffffffffffffffffffffffff16815260200160018201548152602001600282015481526020016003820180546116279061366c565b80601f01602080910402602001604051908101604052809291908181526020018280546116539061366c565b80156116a05780601f10611675576101008083540402835291602001916116a0565b820191906000526020600020905b81548152906001019060200180831161168357829003601f168201915b505050505081525050905082600460009054906101000a900473ffffffffffffffffffffffffffffffffffffffff1673ffffffffffffffffffffffffffffffffffffffff1662fdd58e3384602001516040518363ffffffff1660e01b815260040161170c92919061371a565b602060405180830381865afa158015611729573d6000803e3d6000fd5b505050506040513d601f19601f8201168201806040525081019061174d9190613758565b101561178e576040517f08c379a000000000000000000000000000000000000000000000000000000000815260040161178590613c65565b60405180910390fd5b600460009054906101000a900473ffffffffffffffffffffffffffffffffffffffff1673ffffffffffffffffffffffffffffffffffffffff1663f242432a33308460200151876040518563ffffffff1660e01b81526004016117f3949392919061398f565b600060405180830381600087803b15801561180d57600080fd5b505af1158015611821573d6000803e3d6000fd5b505050503373ffffffffffffffffffffffffffffffffffffffff1681602001517fd96ea8c8d7bc789cf21d73801eca18281a36e12a79b284fb4294a26e8b37410b856040516118709190612f6b565b60405180910390a350505050565b61188782610d67565b611890816125d0565b61189a838361274a565b505050565b6000600a6000838152602001908152602001600020549050919050565b7f4f4f5524afb308b5b7d93e9db2970fe05210199d5c49009f4e0debab7fc41d0e6118e6816125d0565b6000600960008581526020019081526020016000206040518060800160405290816000820160009054906101000a900473ffffffffffffffffffffffffffffffffffffffff1673ffffffffffffffffffffffffffffffffffffffff1673ffffffffffffffffffffffffffffffffffffffff16815260200160018201548152602001600282015481526020016003820180546119809061366c565b80601f01602080910402602001604051908101604052809291908181526020018280546119ac9061366c565b80156119f95780601f106119ce576101008083540402835291602001916119f9565b820191906000526020600020905b8154815290600101906020018083116119dc57829003601f168201915b505050505081525050905082600460009054906101000a900473ffffffffffffffffffffffffffffffffffffffff1673ffffffffffffffffffffffffffffffffffffffff1662fdd58e3084602001516040518363ffffffff1660e01b8152600401611a6592919061371a565b602060405180830381865afa158015611a82573d6000803e3d6000fd5b505050506040513d601f19601f82011682018060405250810190611aa69190613758565b1015611ae7576040517f08c379a0000000000000000000000000000000000000000000000000000000008152600401611ade90613cf7565b60405180910390fd5b600460009054906101000a900473ffffffffffffffffffffffffffffffffffffffff1673ffffffffffffffffffffffffffffffffffffffff1663f242432a30338460200151876040518563ffffffff1660e01b8152600401611b4c949392919061398f565b600060405180830381600087803b158015611b6657600080fd5b505af1158015611b7a573d6000803e3d6000fd5b505050503373ffffffffffffffffffffffffffffffffffffffff1681602001517fe200aa71b863b15f0106752adac4ab9fc8004f9db21c64eb48e58679920eb09c85604051611bc99190612f6b565b60405180910390a350505050565b60007f4f4f5524afb308b5b7d93e9db2970fe05210199d5c49009f4e0debab7fc41d0e611c03816125d0565b6000600960008581526020019081526020016000206040518060800160405290816000820160009054906101000a900473ffffffffffffffffffffffffffffffffffffffff1673ffffffffffffffffffffffffffffffffffffffff1673ffffffffffffffffffffffffffffffffffffffff1681526020016001820154815260200160028201548152602001600382018054611c9d9061366c565b80601f0160208091040260200160405190810160405280929190818152602001828054611cc99061366c565b8015611d165780601f10611ceb57610100808354040283529160200191611d16565b820191906000526020600020905b815481529060010190602001808311611cf957829003601f168201915b50505050508152505090506000600460009054906101000a900473ffffffffffffffffffffffffffffffffffffffff1673ffffffffffffffffffffffffffffffffffffffff1662fdd58e3084602001516040518363ffffffff1660e01b8152600401611d8392919061371a565b602060405180830381865afa158015611da0573d6000803e3d6000fd5b505050506040513d601f19601f82011682018060405250810190611dc49190613758565b9050600460009054906101000a900473ffffffffffffffffffffffffffffffffffffffff1673ffffffffffffffffffffffffffffffffffffffff1663f242432a30338560200151856040518563ffffffff1660e01b8152600401611e2b949392919061398f565b600060405180830381600087803b158015611e4557600080fd5b505af1158015611e59573d6000803e3d6000fd5b50505050816000015173ffffffffffffffffffffffffffffffffffffffff167f3406221f53114f44c9a1bb93d08ee55735f39bf235a54741684a52501207bb548360200151604051611eab9190612f6b565b60405180910390a2600460009054906101000a900473ffffffffffffffffffffffffffffffffffffffff1673ffffffffffffffffffffffffffffffffffffffff1662fdd58e3084602001516040518363ffffffff1660e01b8152600401611f1392919061371a565b602060405180830381865afa158015611f30573d6000803e3d6000fd5b505050506040513d601f19601f82011682018060405250810190611f549190613758565b9350505050919050565b60007ff23a6e612e1ff4830e658fe43f4e3cb4a5f8170bd5d9e69fb5d7a7fa9e4fdf9790509695505050505050565b611f956126c4565b600073ffffffffffffffffffffffffffffffffffffffff168173ffffffffffffffffffffffffffffffffffffffff1603612004576040517f08c379a0000000000000000000000000000000000000000000000000000000008152600401611ffb90613d89565b60405180910390fd5b61200d8161288e565b50565b60065481565b61201e612d36565b7f4f4f5524afb308b5b7d93e9db2970fe05210199d5c49009f4e0debab7fc41d0e612048816125d0565b6000841161208b576040517f08c379a000000000000000000000000000000000000000000000000000000000815260040161208290613df5565b60405180910390fd5b600085116120ce576040517f08c379a00000000000000000000000000000000000000000000000000000000081526004016120c590613e87565b60405180910390fd5b60008611612111576040517f08c379a000000000000000000000000000000000000000000000000000000000815260040161210890613ef3565b60405180910390fd5b600060405180608001604052808973ffffffffffffffffffffffffffffffffffffffff1681526020018881526020018681526020018581525090506000889050600460009054906101000a900473ffffffffffffffffffffffffffffffffffffffff1673ffffffffffffffffffffffffffffffffffffffff168173ffffffffffffffffffffffffffffffffffffffff16146121e1576040517f08c379a00000000000000000000000000000000000000000000000000000000081526004016121d890613f85565b60405180910390fd5b868173ffffffffffffffffffffffffffffffffffffffff1662fdd58e338b6040518363ffffffff1660e01b815260040161221c92919061371a565b602060405180830381865afa158015612239573d6000803e3d6000fd5b505050506040513d601f19601f8201168201806040525081019061225d9190613758565b101561229e576040517f08c379a000000000000000000000000000000000000000000000000000000000815260040161229590613ff1565b60405180910390fd5b60016005546122ad9190613b0b565b60058190555060016008546122c29190613b0b565b6008819055508073ffffffffffffffffffffffffffffffffffffffff1663f242432a33308b8b6040518563ffffffff1660e01b8152600401612307949392919061398f565b600060405180830381600087803b15801561232157600080fd5b505af1158015612335573d6000803e3d6000fd5b505050508160096000600854815260200190815260200160002060008201518160000160006101000a81548173ffffffffffffffffffffffffffffffffffffffff021916908373ffffffffffffffffffffffffffffffffffffffff160217905550602082015181600101556040820151816002015560608201518160030190805190602001906123c6929190612d74565b509050508873ffffffffffffffffffffffffffffffffffffffff167f66ace591f7c88075839f4a0246420d0cc8a34cbe9a924cd0e1ca63c336344f4b896040516124109190612f6b565b60405180910390a26009600060085481526020019081526020016000206040518060800160405290816000820160009054906101000a900473ffffffffffffffffffffffffffffffffffffffff1673ffffffffffffffffffffffffffffffffffffffff1673ffffffffffffffffffffffffffffffffffffffff16815260200160018201548152602001600282015481526020016003820180546124b29061366c565b80601f01602080910402602001604051908101604052809291908181526020018280546124de9061366c565b801561252b5780601f106125005761010080835404028352916020019161252b565b820191906000526020600020905b81548152906001019060200180831161250e57829003601f168201915b505050505081525050935050505095945050505050565b7f4f4f5524afb308b5b7d93e9db2970fe05210199d5c49009f4e0debab7fc41d0e81565b60007f01ffc9a7000000000000000000000000000000000000000000000000000000007bffffffffffffffffffffffffffffffffffffffffffffffffffffffff1916827bffffffffffffffffffffffffffffffffffffffffffffffffffffffff1916149050919050565b6125e1816125dc612742565b6129b5565b50565b6125ee82826110bf565b6126c057600180600084815260200190815260200160002060000160008373ffffffffffffffffffffffffffffffffffffffff1673ffffffffffffffffffffffffffffffffffffffff16815260200190815260200160002060006101000a81548160ff021916908315150217905550612665612742565b73ffffffffffffffffffffffffffffffffffffffff168173ffffffffffffffffffffffffffffffffffffffff16837f2f8788117e7eff1d82e926ec794901d17c78024a50270940304540a733656f0d60405160405180910390a45b5050565b6126cc612742565b73ffffffffffffffffffffffffffffffffffffffff166126ea611096565b73ffffffffffffffffffffffffffffffffffffffff1614612740576040517f08c379a00000000000000000000000000000000000000000000000000000000081526004016127379061405d565b60405180910390fd5b565b600033905090565b61275482826110bf565b156128285760006001600084815260200190815260200160002060000160008373ffffffffffffffffffffffffffffffffffffffff1673ffffffffffffffffffffffffffffffffffffffff16815260200190815260200160002060006101000a81548160ff0219169083151502179055506127cd612742565b73ffffffffffffffffffffffffffffffffffffffff168173ffffffffffffffffffffffffffffffffffffffff16837ff6391f5c32d9c69d2a47ea670b442974b53935d1edc7fd64eb21e047a839171b60405160405180910390a45b5050565b612834612a3a565b60008060146101000a81548160ff0219169083151502179055507f5db9ee0a495bf2e6ff9c91a7834c1ba4fdd244a5e8aa4e537bd38aeae4b073aa612877612742565b604051612884919061315a565b60405180910390a1565b60008060009054906101000a900473ffffffffffffffffffffffffffffffffffffffff169050816000806101000a81548173ffffffffffffffffffffffffffffffffffffffff021916908373ffffffffffffffffffffffffffffffffffffffff1602179055508173ffffffffffffffffffffffffffffffffffffffff168173ffffffffffffffffffffffffffffffffffffffff167f8be0079c531659141344cd1fd0a4f28419497f9722a3daafe3b4186f6b6457e060405160405180910390a35050565b61295a612a83565b6001600060146101000a81548160ff0219169083151502179055507f62e78cea01bee320cd4e420270b5ea74000d11b0c9f74754ebdbfc544b05a25861299e612742565b6040516129ab919061315a565b60405180910390a1565b6129bf82826110bf565b612a36576129cc81612acd565b6129da8360001c6020612afa565b6040516020016129eb929190614151565b6040516020818303038152906040526040517f08c379a0000000000000000000000000000000000000000000000000000000008152600401612a2d91906141c4565b60405180910390fd5b5050565b612a4261102a565b612a81576040517f08c379a0000000000000000000000000000000000000000000000000000000008152600401612a7890614232565b60405180910390fd5b565b612a8b61102a565b15612acb576040517f08c379a0000000000000000000000000000000000000000000000000000000008152600401612ac29061429e565b60405180910390fd5b565b6060612af38273ffffffffffffffffffffffffffffffffffffffff16601460ff16612afa565b9050919050565b606060006002836002612b0d9190613846565b612b179190613b0b565b67ffffffffffffffff811115612b3057612b2f6132fb565b5b6040519080825280601f01601f191660200182016040528015612b625781602001600182028036833780820191505090505b5090507f300000000000000000000000000000000000000000000000000000000000000081600081518110612b9a57612b996142be565b5b60200101907effffffffffffffffffffffffffffffffffffffffffffffffffffffffffffff1916908160001a9053507f780000000000000000000000000000000000000000000000000000000000000081600181518110612bfe57612bfd6142be565b5b60200101907effffffffffffffffffffffffffffffffffffffffffffffffffffffffffffff1916908160001a90535060006001846002612c3e9190613846565b612c489190613b0b565b90505b6001811115612ce8577f3031323334353637383961626364656600000000000000000000000000000000600f861660108110612c8a57612c896142be565b5b1a60f81b828281518110612ca157612ca06142be565b5b60200101907effffffffffffffffffffffffffffffffffffffffffffffffffffffffffffff1916908160001a905350600485901c945080612ce1906142ed565b9050612c4b565b5060008414612d2c576040517f08c379a0000000000000000000000000000000000000000000000000000000008152600401612d2390614362565b60405180910390fd5b8091505092915050565b6040518060800160405280600073ffffffffffffffffffffffffffffffffffffffff1681526020016000815260200160008152602001606081525090565b828054612d809061366c565b90600052602060002090601f016020900481019282612da25760008555612de9565b82601f10612dbb57805160ff1916838001178555612de9565b82800160010185558215612de9579182015b82811115612de8578251825591602001919060010190612dcd565b5b509050612df69190612dfa565b5090565b5b80821115612e13576000816000905550600101612dfb565b5090565b6000604051905090565b600080fd5b600080fd5b60007fffffffff0000000000000000000000000000000000000000000000000000000082169050919050565b612e6081612e2b565b8114612e6b57600080fd5b50565b600081359050612e7d81612e57565b92915050565b600060208284031215612e9957612e98612e21565b5b6000612ea784828501612e6e565b91505092915050565b60008115159050919050565b612ec581612eb0565b82525050565b6000602082019050612ee06000830184612ebc565b92915050565b6000819050919050565b612ef981612ee6565b8114612f0457600080fd5b50565b600081359050612f1681612ef0565b92915050565b60008060408385031215612f3357612f32612e21565b5b6000612f4185828601612f07565b9250506020612f5285828601612f07565b9150509250929050565b612f6581612ee6565b82525050565b6000602082019050612f806000830184612f5c565b92915050565b6000819050919050565b612f9981612f86565b8114612fa457600080fd5b50565b600081359050612fb681612f90565b92915050565b600060208284031215612fd257612fd1612e21565b5b6000612fe084828501612fa7565b91505092915050565b612ff281612f86565b82525050565b600060208201905061300d6000830184612fe9565b92915050565b60006020828403121561302957613028612e21565b5b600061303784828501612f07565b91505092915050565b600073ffffffffffffffffffffffffffffffffffffffff82169050919050565b600061306b82613040565b9050919050565b61307b81613060565b811461308657600080fd5b50565b60008135905061309881613072565b92915050565b600080604083850312156130b5576130b4612e21565b5b60006130c385828601612fa7565b92505060206130d485828601613089565b9150509250929050565b6000602082840312156130f4576130f3612e21565b5b600061310284828501613089565b91505092915050565b6000806040838503121561312257613121612e21565b5b600061313085828601613089565b925050602061314185828601612f07565b9150509250929050565b61315481613060565b82525050565b600060208201905061316f600083018461314b565b92915050565b6000806040838503121561318c5761318b612e21565b5b600061319a85828601613089565b92505060206131ab85828601613089565b9150509250929050565b6131be81613060565b82525050565b6131cd81612ee6565b82525050565b600081519050919050565b600082825260208201905092915050565b60005b8381101561320d5780820151818401526020810190506131f2565b8381111561321c576000848401525b50505050565b6000601f19601f8301169050919050565b600061323e826131d3565b61324881856131de565b93506132588185602086016131ef565b61326181613222565b840191505092915050565b600060808301600083015161328460008601826131b5565b50602083015161329760208601826131c4565b5060408301516132aa60408601826131c4565b50606083015184820360608601526132c28282613233565b9150508091505092915050565b600060208201905081810360008301526132e9818461326c565b905092915050565b600080fd5b600080fd5b7f4e487b7100000000000000000000000000000000000000000000000000000000600052604160045260246000fd5b61333382613222565b810181811067ffffffffffffffff82111715613352576133516132fb565b5b80604052505050565b6000613365612e17565b9050613371828261332a565b919050565b600067ffffffffffffffff821115613391576133906132fb565b5b61339a82613222565b9050602081019050919050565b82818337600083830152505050565b60006133c96133c484613376565b61335b565b9050828152602081018484840111156133e5576133e46132f6565b5b6133f08482856133a7565b509392505050565b600082601f83011261340d5761340c6132f1565b5b813561341d8482602086016133b6565b91505092915050565b6000806040838503121561343d5761343c612e21565b5b600061344b85828601612f07565b925050602083013567ffffffffffffffff81111561346c5761346b612e26565b5b613478858286016133f8565b9150509250929050565b600080fd5b600080fd5b60008083601f8401126134a2576134a16132f1565b5b8235905067ffffffffffffffff8111156134bf576134be613482565b5b6020830191508360018202830111156134db576134da613487565b5b9250929050565b60008060008060008060a087890312156134ff576134fe612e21565b5b600061350d89828a01613089565b965050602061351e89828a01613089565b955050604061352f89828a01612f07565b945050606061354089828a01612f07565b935050608087013567ffffffffffffffff81111561356157613560612e26565b5b61356d89828a0161348c565b92509250509295509295509295565b61358581612e2b565b82525050565b60006020820190506135a0600083018461357c565b92915050565b600080600080600060a086880312156135c2576135c1612e21565b5b60006135d088828901613089565b95505060206135e188828901612f07565b94505060406135f288828901612f07565b935050606061360388828901612f07565b925050608086013567ffffffffffffffff81111561362457613623612e26565b5b613630888289016133f8565b9150509295509295909350565b7f4e487b7100000000000000000000000000000000000000000000000000000000600052602260045260246000fd5b6000600282049050600182168061368457607f821691505b6020821081036136975761369661363d565b5b50919050565b600082825260208201905092915050565b7f4173736574206973206e6f7420617661696c61626c65206e6f772e0000000000600082015250565b60006136e4601b8361369d565b91506136ef826136ae565b602082019050919050565b60006020820190508181036000830152613713816136d7565b9050919050565b600060408201905061372f600083018561314b565b61373c6020830184612f5c565b9392505050565b60008151905061375281612ef0565b92915050565b60006020828403121561376e5761376d612e21565b5b600061377c84828501613743565b91505092915050565b7f4e6f7420656e6f7567687420617373657420636f70696573206c65667420746f60008201527f2062757900000000000000000000000000000000000000000000000000000000602082015250565b60006137e160248361369d565b91506137ec82613785565b604082019050919050565b60006020820190508181036000830152613810816137d4565b9050919050565b7f4e487b7100000000000000000000000000000000000000000000000000000000600052601160045260246000fd5b600061385182612ee6565b915061385c83612ee6565b9250817fffffffffffffffffffffffffffffffffffffffffffffffffffffffffffffffff048311821515161561389557613894613817565b5b828202905092915050565b7f4e6f7420656e6f75676820746f6b656e73206f776e656420746f20636f6d706c60008201527f6574652074686520707572636861736500000000000000000000000000000000602082015250565b60006138fc60308361369d565b9150613907826138a0565b604082019050919050565b6000602082019050818103600083015261392b816138ef565b9050919050565b600082825260208201905092915050565b7f3078303000000000000000000000000000000000000000000000000000000000600082015250565b6000613979600483613932565b915061398482613943565b602082019050919050565b600060a0820190506139a4600083018761314b565b6139b1602083018661314b565b6139be6040830185612f5c565b6139cb6060830184612f5c565b81810360808301526139dc8161396c565b905095945050505050565b60006139f282612ee6565b91506139fd83612ee6565b925082821015613a1057613a0f613817565b5b828203905092915050565b7f4e487b7100000000000000000000000000000000000000000000000000000000600052601260045260246000fd5b6000613a5582612ee6565b9150613a6083612ee6565b925082613a7057613a6f613a1b565b5b828204905092915050565b6000606082019050613a90600083018661314b565b613a9d602083018561314b565b613aaa6040830184612f5c565b949350505050565b613abb81612eb0565b8114613ac657600080fd5b50565b600081519050613ad881613ab2565b92915050565b600060208284031215613af457613af3612e21565b5b6000613b0284828501613ac9565b91505092915050565b6000613b1682612ee6565b9150613b2183612ee6565b9250827fffffffffffffffffffffffffffffffffffffffffffffffffffffffffffffffff03821115613b5657613b55613817565b5b828201905092915050565b7f416363657373436f6e74726f6c3a2063616e206f6e6c792072656e6f756e636560008201527f20726f6c657320666f722073656c660000000000000000000000000000000000602082015250565b6000613bbd602f8361369d565b9150613bc882613b61565b604082019050919050565b60006020820190508181036000830152613bec81613bb0565b9050919050565b7f4e6f7420656e6f7567687420617373657420636f70696573206c65667420746f60008201527f206465706f736974000000000000000000000000000000000000000000000000602082015250565b6000613c4f60288361369d565b9150613c5a82613bf3565b604082019050919050565b60006020820190508181036000830152613c7e81613c42565b9050919050565b7f4e6f7420656e6f7567687420617373657420636f70696573206c65667420746f60008201527f2077697468647261770000000000000000000000000000000000000000000000602082015250565b6000613ce160298361369d565b9150613cec82613c85565b604082019050919050565b60006020820190508181036000830152613d1081613cd4565b9050919050565b7f4f776e61626c653a206e6577206f776e657220697320746865207a65726f206160008201527f6464726573730000000000000000000000000000000000000000000000000000602082015250565b6000613d7360268361369d565b9150613d7e82613d17565b604082019050919050565b60006020820190508181036000830152613da281613d66565b9050919050565b7f504520636f73742063616e6e6f74206265203021000000000000000000000000600082015250565b6000613ddf60148361369d565b9150613dea82613da9565b602082019050919050565b60006020820190508181036000830152613e0e81613dd2565b9050919050565b7f43616e6e6f74206372656174652061206e65772061737365742077697468203060008201527f20636f7069657321000000000000000000000000000000000000000000000000602082015250565b6000613e7160288361369d565b9150613e7c82613e15565b604082019050919050565b60006020820190508181036000830152613ea081613e64565b9050919050565b7f30206973206e6f7420612076616c696420617373657464204944000000000000600082015250565b6000613edd601a8361369d565b9150613ee882613ea7565b602082019050919050565b60006020820190508181036000830152613f0c81613ed0565b9050919050565b7f576f726b696e672077697468203220646966666572656e74204e465420736d6160008201527f727420636f6e7472616374730000000000000000000000000000000000000000602082015250565b6000613f6f602c8361369d565b9150613f7a82613f13565b604082019050919050565b60006020820190508181036000830152613f9e81613f62565b9050919050565b7f4e6f74206f776e656420656e6f75676820617373657420636f70696573000000600082015250565b6000613fdb601d8361369d565b9150613fe682613fa5565b602082019050919050565b6000602082019050818103600083015261400a81613fce565b9050919050565b7f4f776e61626c653a2063616c6c6572206973206e6f7420746865206f776e6572600082015250565b600061404760208361369d565b915061405282614011565b602082019050919050565b600060208201905081810360008301526140768161403a565b9050919050565b600081905092915050565b7f416363657373436f6e74726f6c3a206163636f756e7420000000000000000000600082015250565b60006140be60178361407d565b91506140c982614088565b601782019050919050565b60006140df826131d3565b6140e9818561407d565b93506140f98185602086016131ef565b80840191505092915050565b7f206973206d697373696e6720726f6c6520000000000000000000000000000000600082015250565b600061413b60118361407d565b915061414682614105565b601182019050919050565b600061415c826140b1565b915061416882856140d4565b91506141738261412e565b915061417f82846140d4565b91508190509392505050565b6000614196826131d3565b6141a0818561369d565b93506141b08185602086016131ef565b6141b981613222565b840191505092915050565b600060208201905081810360008301526141de818461418b565b905092915050565b7f5061757361626c653a206e6f7420706175736564000000000000000000000000600082015250565b600061421c60148361369d565b9150614227826141e6565b602082019050919050565b6000602082019050818103600083015261424b8161420f565b9050919050565b7f5061757361626c653a2070617573656400000000000000000000000000000000600082015250565b600061428860108361369d565b915061429382614252565b602082019050919050565b600060208201905081810360008301526142b78161427b565b9050919050565b7f4e487b7100000000000000000000000000000000000000000000000000000000600052603260045260246000fd5b60006142f882612ee6565b91506000820361430b5761430a613817565b5b600182039050919050565b7f537472696e67733a20686578206c656e67746820696e73756666696369656e74600082015250565b600061434c60208361369d565b915061435782614316565b602082019050919050565b6000602082019050818103600083015261437b8161433f565b905091905056fea26469706673582212209c128ae1a6a6fadef1414d3b2cebb70dec236d8951d02e5af7d9dbc9bf39ba5664736f6c634300080d0033",
  "linkReferences": {},
  "deployedLinkReferences": {}
}