{
  "_format": "hh-sol-artifact-1",
  "contractName": "PoisonGiftBox",
  "sourceName": "contracts/PoisonGiftBox.sol",
  "abi": [
    {
      "anonymous": false,
      "inputs": [
        {
          "indexed": true,
          "internalType": "address",
          "name": "_from",
          "type": "address"
        },
        {
          "indexed": false,
          "internalType": "uint256",
          "name": "_tokens",
          "type": "uint256"
        }
      ],
      "name": "BoxOpened",
      "type": "event"
    },
    {
      "anonymous": false,
      "inputs": [
        {
          "indexed": true,
          "internalType": "address",
          "name": "_from",
          "type": "address"
        },
        {
          "indexed": false,
          "internalType": "uint256",
          "name": "_dayNumber",
          "type": "uint256"
        }
      ],
      "name": "NewDayStarted",
      "type": "event"
    },
    {
      "anonymous": false,
      "inputs": [
        {
          "indexed": true,
          "internalType": "address",
          "name": "previousOwner",
          "type": "address"
        },
        {
          "indexed": true,
          "internalType": "address",
          "name": "newOwner",
          "type": "address"
        }
      ],
      "name": "OwnershipTransferred",
      "type": "event"
    },
    {
      "anonymous": false,
      "inputs": [
        {
          "indexed": false,
          "internalType": "address",
          "name": "account",
          "type": "address"
        }
      ],
      "name": "Paused",
      "type": "event"
    },
    {
      "anonymous": false,
      "inputs": [
        {
          "indexed": false,
          "internalType": "address",
          "name": "account",
          "type": "address"
        }
      ],
      "name": "Unpaused",
      "type": "event"
    },
    {
      "inputs": [],
      "name": "canUserClaimBox",
      "outputs": [
        {
          "internalType": "bool",
          "name": "",
          "type": "bool"
        }
      ],
      "stateMutability": "view",
      "type": "function"
    },
    {
      "inputs": [],
      "name": "getCurrentCooldown",
      "outputs": [
        {
          "internalType": "uint256",
          "name": "",
          "type": "uint256"
        }
      ],
      "stateMutability": "view",
      "type": "function"
    },
    {
      "inputs": [],
      "name": "getCurrentDay",
      "outputs": [
        {
          "internalType": "uint256",
          "name": "",
          "type": "uint256"
        }
      ],
      "stateMutability": "view",
      "type": "function"
    },
    {
      "inputs": [],
      "name": "getCurrentPeriodStartingBlock",
      "outputs": [
        {
          "internalType": "uint256",
          "name": "",
          "type": "uint256"
        }
      ],
      "stateMutability": "view",
      "type": "function"
    },
    {
      "inputs": [],
      "name": "getLastClaim",
      "outputs": [
        {
          "internalType": "uint256",
          "name": "",
          "type": "uint256"
        }
      ],
      "stateMutability": "view",
      "type": "function"
    },
    {
      "inputs": [
        {
          "internalType": "address",
          "name": "_peTokenAddress",
          "type": "address"
        },
        {
          "internalType": "uint256",
          "name": "_startingGiftingBlock",
          "type": "uint256"
        },
        {
          "internalType": "uint256",
          "name": "_cooldown",
          "type": "uint256"
        }
      ],
      "name": "initializeContract",
      "outputs": [],
      "stateMutability": "nonpayable",
      "type": "function"
    },
    {
      "inputs": [
        {
          "internalType": "address",
          "name": "userAddress",
          "type": "address"
        }
      ],
      "name": "inizializeAccountClaim",
      "outputs": [],
      "stateMutability": "nonpayable",
      "type": "function"
    },
    {
      "inputs": [],
      "name": "isInitialized",
      "outputs": [
        {
          "internalType": "bool",
          "name": "",
          "type": "bool"
        }
      ],
      "stateMutability": "view",
      "type": "function"
    },
    {
      "inputs": [],
      "name": "openGiftBox",
      "outputs": [
        {
          "internalType": "uint256",
          "name": "",
          "type": "uint256"
        }
      ],
      "stateMutability": "nonpayable",
      "type": "function"
    },
    {
      "inputs": [],
      "name": "owner",
      "outputs": [
        {
          "internalType": "address",
          "name": "",
          "type": "address"
        }
      ],
      "stateMutability": "view",
      "type": "function"
    },
    {
      "inputs": [],
      "name": "pause",
      "outputs": [],
      "stateMutability": "nonpayable",
      "type": "function"
    },
    {
      "inputs": [],
      "name": "paused",
      "outputs": [
        {
          "internalType": "bool",
          "name": "",
          "type": "bool"
        }
      ],
      "stateMutability": "view",
      "type": "function"
    },
    {
      "inputs": [],
      "name": "renounceOwnership",
      "outputs": [],
      "stateMutability": "nonpayable",
      "type": "function"
    },
    {
      "inputs": [
        {
          "internalType": "uint256",
          "name": "_newCooldown",
          "type": "uint256"
        }
      ],
      "name": "setCooldown",
      "outputs": [],
      "stateMutability": "nonpayable",
      "type": "function"
    },
    {
      "inputs": [
        {
          "internalType": "uint256",
          "name": "_currentPeriodStartingBlock",
          "type": "uint256"
        }
      ],
      "name": "setGiftStartingBLock",
      "outputs": [],
      "stateMutability": "nonpayable",
      "type": "function"
    },
    {
      "inputs": [
        {
          "internalType": "address",
          "name": "newOwner",
          "type": "address"
        }
      ],
      "name": "transferOwnership",
      "outputs": [],
      "stateMutability": "nonpayable",
      "type": "function"
    },
    {
      "inputs": [],
      "name": "unpause",
      "outputs": [],
      "stateMutability": "nonpayable",
      "type": "function"
    }
  ],
  "bytecode": "0x6080604052600060045534801561001557600080fd5b5060008060006101000a81548160ff02191690831515021790555061004c61004161005160201b60201c565b61005960201b60201c565b61011e565b600033905090565b60008060019054906101000a900473ffffffffffffffffffffffffffffffffffffffff16905081600060016101000a81548173ffffffffffffffffffffffffffffffffffffffff021916908373ffffffffffffffffffffffffffffffffffffffff1602179055508173ffffffffffffffffffffffffffffffffffffffff168173ffffffffffffffffffffffffffffffffffffffff167f8be0079c531659141344cd1fd0a4f28419497f9722a3daafe3b4186f6b6457e060405160405180910390a35050565b61155c8061012d6000396000f3fe608060405234801561001057600080fd5b506004361061010b5760003560e01c8063715018a6116100a2578063bba8bc6311610071578063bba8bc6314610236578063d0b7bb7914610254578063e09d6f7b14610272578063e3392c941461028e578063f2fde38b146102ac5761010b565b8063715018a6146101e85780638456cb59146101f25780638da5cb5b146101fc578063b92f7a481461021a5761010b565b80633f4ba83a116100de5780633f4ba83a146101865780634fc3f41a146101905780635c975abb146101ac57806368a825ad146101ca5761010b565b8063141b4ca7146101105780631e6ab24f1461012e578063392e53cd1461014a5780633e6968b614610168575b600080fd5b6101186102c8565b6040516101259190610d99565b60405180910390f35b61014860048036038101906101439190610e43565b6102d2565b005b61015261032e565b60405161015f9190610eb1565b60405180910390f35b610170610389565b60405161017d9190610d99565b60405180910390f35b61018e610393565b005b6101aa60048036038101906101a59190610ecc565b6103a5565b005b6101b46103fa565b6040516101c19190610eb1565b60405180910390f35b6101d2610410565b6040516101df9190610d99565b60405180910390f35b6101f0610457565b005b6101fa61046b565b005b61020461047d565b6040516102119190610f08565b60405180910390f35b610234600480360381019061022f9190610f23565b6104a6565b005b61023e6105da565b60405161024b9190610eb1565b60405180910390f35b61025c610624565b6040516102699190610d99565b60405180910390f35b61028c60048036038101906102879190610ecc565b61062e565b005b610296610640565b6040516102a39190610d99565b60405180910390f35b6102c660048036038101906102c19190610f23565b610821565b005b6000600354905090565b6102da6108a4565b82600160006101000a81548173ffffffffffffffffffffffffffffffffffffffff021916908373ffffffffffffffffffffffffffffffffffffffff1602179055508160028190555080600381905550505050565b600060011515600660003373ffffffffffffffffffffffffffffffffffffffff1673ffffffffffffffffffffffffffffffffffffffff16815260200190815260200160002060009054906101000a900460ff16151514905090565b6000600454905090565b61039b6108a4565b6103a3610922565b565b6103ad6108a4565b600081116103f0576040517f08c379a00000000000000000000000000000000000000000000000000000000081526004016103e790610fad565b60405180910390fd5b8060038190555050565b60008060009054906101000a900460ff16905090565b6000600560003373ffffffffffffffffffffffffffffffffffffffff1673ffffffffffffffffffffffffffffffffffffffff16815260200190815260200160002054905090565b61045f6108a4565b6104696000610984565b565b6104736108a4565b61047b610a49565b565b60008060019054906101000a900473ffffffffffffffffffffffffffffffffffffffff16905090565b60011515600660008373ffffffffffffffffffffffffffffffffffffffff1673ffffffffffffffffffffffffffffffffffffffff16815260200190815260200160002060009054906101000a900460ff16151503610539576040517f08c379a000000000000000000000000000000000000000000000000000000000815260040161053090611019565b60405180910390fd5b6001600660008373ffffffffffffffffffffffffffffffffffffffff1673ffffffffffffffffffffffffffffffffffffffff16815260200190815260200160002060006101000a81548160ff021916908315150217905550600254600560008373ffffffffffffffffffffffffffffffffffffffff1673ffffffffffffffffffffffffffffffffffffffff1681526020019081526020016000208190555050565b600043600560003373ffffffffffffffffffffffffffffffffffffffff1673ffffffffffffffffffffffffffffffffffffffff168152602001908152602001600020541115905090565b6000600254905090565b6106366108a4565b8060028190555050565b600060011515600660003373ffffffffffffffffffffffffffffffffffffffff1673ffffffffffffffffffffffffffffffffffffffff16815260200190815260200160002060009054906101000a900460ff161515146106d5576040517f08c379a00000000000000000000000000000000000000000000000000000000081526004016106cc90611085565b60405180910390fd5b6106dd610aab565b600254600560003373ffffffffffffffffffffffffffffffffffffffff1673ffffffffffffffffffffffffffffffffffffffff168152602001908152602001600020541115610761576040517f08c379a0000000000000000000000000000000000000000000000000000000008152600401610758906110f1565b60405180910390fd5b6003546002546107719190611140565b600560003373ffffffffffffffffffffffffffffffffffffffff1673ffffffffffffffffffffffffffffffffffffffff168152602001908152602001600020541015610819576003546002546107c79190611140565b600560003373ffffffffffffffffffffffffffffffffffffffff1673ffffffffffffffffffffffffffffffffffffffff16815260200190815260200160002081905550610812610b3c565b905061081e565b600090505b90565b6108296108a4565b600073ffffffffffffffffffffffffffffffffffffffff168173ffffffffffffffffffffffffffffffffffffffff1603610898576040517f08c379a000000000000000000000000000000000000000000000000000000000815260040161088f90611208565b60405180910390fd5b6108a181610984565b50565b6108ac610c5d565b73ffffffffffffffffffffffffffffffffffffffff166108ca61047d565b73ffffffffffffffffffffffffffffffffffffffff1614610920576040517f08c379a000000000000000000000000000000000000000000000000000000000815260040161091790611274565b60405180910390fd5b565b61092a610c65565b60008060006101000a81548160ff0219169083151502179055507f5db9ee0a495bf2e6ff9c91a7834c1ba4fdd244a5e8aa4e537bd38aeae4b073aa61096d610c5d565b60405161097a9190610f08565b60405180910390a1565b60008060019054906101000a900473ffffffffffffffffffffffffffffffffffffffff16905081600060016101000a81548173ffffffffffffffffffffffffffffffffffffffff021916908373ffffffffffffffffffffffffffffffffffffffff1602179055508173ffffffffffffffffffffffffffffffffffffffff168173ffffffffffffffffffffffffffffffffffffffff167f8be0079c531659141344cd1fd0a4f28419497f9722a3daafe3b4186f6b6457e060405160405180910390a35050565b610a51610cae565b60016000806101000a81548160ff0219169083151502179055507f62e78cea01bee320cd4e420270b5ea74000d11b0c9f74754ebdbfc544b05a258610a94610c5d565b604051610aa19190610f08565b60405180910390a1565b60004390506000600354600254610ac29190611140565b9050808210610b3857806002819055506001600454610ae19190611140565b6004819055503373ffffffffffffffffffffffffffffffffffffffff167fd96cb47a89855c87bafb42a52d75f8cd269a4ed313cf2c097668c9fa55577cca600454604051610b2f9190610d99565b60405180910390a25b5050565b600080610b4833610cf8565b905060006019821015610b5e5760199050610b62565b8190505b670de0b6b3a764000081610b769190611294565b9050600160009054906101000a900473ffffffffffffffffffffffffffffffffffffffff1673ffffffffffffffffffffffffffffffffffffffff166340c10f1933836040518363ffffffff1660e01b8152600401610bd59291906112ee565b600060405180830381600087803b158015610bef57600080fd5b505af1158015610c03573d6000803e3d6000fd5b505050503373ffffffffffffffffffffffffffffffffffffffff167fb73d415d4554d9bc64f3fadea1d75caaeb0f4db5b74538b5e5dcbce2660e624082604051610c4d9190610d99565b60405180910390a2809250505090565b600033905090565b610c6d6103fa565b610cac576040517f08c379a0000000000000000000000000000000000000000000000000000000008152600401610ca390611363565b60405180910390fd5b565b610cb66103fa565b15610cf6576040517f08c379a0000000000000000000000000000000000000000000000000000000008152600401610ced906113cf565b60405180910390fd5b565b600080444284604051602001610d1093929190611458565b6040516020818303038152906040528051906020012060001c90506000600a82610d3a91906114c4565b90506000600a8084610d4c91906114f5565b610d5691906114c4565b90506000600a82610d679190611294565b83610d729190611140565b905080945050505050919050565b6000819050919050565b610d9381610d80565b82525050565b6000602082019050610dae6000830184610d8a565b92915050565b600080fd5b600073ffffffffffffffffffffffffffffffffffffffff82169050919050565b6000610de482610db9565b9050919050565b610df481610dd9565b8114610dff57600080fd5b50565b600081359050610e1181610deb565b92915050565b610e2081610d80565b8114610e2b57600080fd5b50565b600081359050610e3d81610e17565b92915050565b600080600060608486031215610e5c57610e5b610db4565b5b6000610e6a86828701610e02565b9350506020610e7b86828701610e2e565b9250506040610e8c86828701610e2e565b9150509250925092565b60008115159050919050565b610eab81610e96565b82525050565b6000602082019050610ec66000830184610ea2565b92915050565b600060208284031215610ee257610ee1610db4565b5b6000610ef084828501610e2e565b91505092915050565b610f0281610dd9565b82525050565b6000602082019050610f1d6000830184610ef9565b92915050565b600060208284031215610f3957610f38610db4565b5b6000610f4784828501610e02565b91505092915050565b600082825260208201905092915050565b7f43616e277420736574206120636f6f6c646f776e206f66203020626c6f636b73600082015250565b6000610f97602083610f50565b9150610fa282610f61565b602082019050919050565b60006020820190508181036000830152610fc681610f8a565b9050919050565b7f4163636f756e7420616c726561647920696e697469616c697a65640000000000600082015250565b6000611003601b83610f50565b915061100e82610fcd565b602082019050919050565b6000602082019050818103600083015261103281610ff6565b9050919050565b7f4d75737420696e697469616c697a65206163636f756e74206669727374000000600082015250565b600061106f601d83610f50565b915061107a82611039565b602082019050919050565b6000602082019050818103600083015261109e81611062565b9050919050565b7f546f6f206561726c7920746f206f70656e20616e6f7468657220626f78000000600082015250565b60006110db601d83610f50565b91506110e6826110a5565b602082019050919050565b6000602082019050818103600083015261110a816110ce565b9050919050565b7f4e487b7100000000000000000000000000000000000000000000000000000000600052601160045260246000fd5b600061114b82610d80565b915061115683610d80565b9250827fffffffffffffffffffffffffffffffffffffffffffffffffffffffffffffffff0382111561118b5761118a611111565b5b828201905092915050565b7f4f776e61626c653a206e6577206f776e657220697320746865207a65726f206160008201527f6464726573730000000000000000000000000000000000000000000000000000602082015250565b60006111f2602683610f50565b91506111fd82611196565b604082019050919050565b60006020820190508181036000830152611221816111e5565b9050919050565b7f4f776e61626c653a2063616c6c6572206973206e6f7420746865206f776e6572600082015250565b600061125e602083610f50565b915061126982611228565b602082019050919050565b6000602082019050818103600083015261128d81611251565b9050919050565b600061129f82610d80565b91506112aa83610d80565b9250817fffffffffffffffffffffffffffffffffffffffffffffffffffffffffffffffff04831182151516156112e3576112e2611111565b5b828202905092915050565b60006040820190506113036000830185610ef9565b6113106020830184610d8a565b9392505050565b7f5061757361626c653a206e6f7420706175736564000000000000000000000000600082015250565b600061134d601483610f50565b915061135882611317565b602082019050919050565b6000602082019050818103600083015261137c81611340565b9050919050565b7f5061757361626c653a2070617573656400000000000000000000000000000000600082015250565b60006113b9601083610f50565b91506113c482611383565b602082019050919050565b600060208201905081810360008301526113e8816113ac565b9050919050565b6000819050919050565b61140a61140582610d80565b6113ef565b82525050565b60008160601b9050919050565b600061142882611410565b9050919050565b600061143a8261141d565b9050919050565b61145261144d82610dd9565b61142f565b82525050565b600061146482866113f9565b60208201915061147482856113f9565b6020820191506114848284611441565b601482019150819050949350505050565b7f4e487b7100000000000000000000000000000000000000000000000000000000600052601260045260246000fd5b60006114cf82610d80565b91506114da83610d80565b9250826114ea576114e9611495565b5b828206905092915050565b600061150082610d80565b915061150b83610d80565b92508261151b5761151a611495565b5b82820490509291505056fea2646970667358221220eb528b1c6cfaebed5ad3c983bffd67d5f05f7730ea280159f52b2c5fe4c37d9d64736f6c634300080d0033",
  "linkReferences": {},
  "deployedLinkReferences": {}
}