{
  "_format": "hh-sol-artifact-1",
  "contractName": "PoisonEssenceToken",
  "sourceName": "contracts/PoisonEssenceToken.sol",
  "abi": [
    {
      "inputs": [],
      "stateMutability": "nonpayable",
      "type": "constructor"
    },
    {
      "anonymous": false,
      "inputs": [
        {
          "indexed": true,
          "internalType": "address",
          "name": "owner",
          "type": "address"
        },
        {
          "indexed": true,
          "internalType": "address",
          "name": "spender",
          "type": "address"
        },
        {
          "indexed": false,
          "internalType": "uint256",
          "name": "value",
          "type": "uint256"
        }
      ],
      "name": "Approval",
      "type": "event"
    },
    {
      "anonymous": false,
      "inputs": [
        {
          "indexed": true,
          "internalType": "address",
          "name": "previousOwner",
          "type": "address"
        },
        {
          "indexed": true,
          "internalType": "address",
          "name": "newOwner",
          "type": "address"
        }
      ],
      "name": "OwnershipTransferred",
      "type": "event"
    },
    {
      "anonymous": false,
      "inputs": [
        {
          "indexed": false,
          "internalType": "address",
          "name": "account",
          "type": "address"
        }
      ],
      "name": "Paused",
      "type": "event"
    },
    {
      "anonymous": false,
      "inputs": [
        {
          "indexed": true,
          "internalType": "bytes32",
          "name": "role",
          "type": "bytes32"
        },
        {
          "indexed": true,
          "internalType": "bytes32",
          "name": "previousAdminRole",
          "type": "bytes32"
        },
        {
          "indexed": true,
          "internalType": "bytes32",
          "name": "newAdminRole",
          "type": "bytes32"
        }
      ],
      "name": "RoleAdminChanged",
      "type": "event"
    },
    {
      "anonymous": false,
      "inputs": [
        {
          "indexed": true,
          "internalType": "bytes32",
          "name": "role",
          "type": "bytes32"
        },
        {
          "indexed": true,
          "internalType": "address",
          "name": "account",
          "type": "address"
        },
        {
          "indexed": true,
          "internalType": "address",
          "name": "sender",
          "type": "address"
        }
      ],
      "name": "RoleGranted",
      "type": "event"
    },
    {
      "anonymous": false,
      "inputs": [
        {
          "indexed": true,
          "internalType": "bytes32",
          "name": "role",
          "type": "bytes32"
        },
        {
          "indexed": true,
          "internalType": "address",
          "name": "account",
          "type": "address"
        },
        {
          "indexed": true,
          "internalType": "address",
          "name": "sender",
          "type": "address"
        }
      ],
      "name": "RoleRevoked",
      "type": "event"
    },
    {
      "anonymous": false,
      "inputs": [
        {
          "indexed": true,
          "internalType": "address",
          "name": "from",
          "type": "address"
        },
        {
          "indexed": true,
          "internalType": "address",
          "name": "to",
          "type": "address"
        },
        {
          "indexed": false,
          "internalType": "uint256",
          "name": "value",
          "type": "uint256"
        }
      ],
      "name": "Transfer",
      "type": "event"
    },
    {
      "anonymous": false,
      "inputs": [
        {
          "indexed": false,
          "internalType": "address",
          "name": "account",
          "type": "address"
        }
      ],
      "name": "Unpaused",
      "type": "event"
    },
    {
      "inputs": [],
      "name": "BURNER_ROLE",
      "outputs": [
        {
          "internalType": "bytes32",
          "name": "",
          "type": "bytes32"
        }
      ],
      "stateMutability": "view",
      "type": "function"
    },
    {
      "inputs": [],
      "name": "DEFAULT_ADMIN_ROLE",
      "outputs": [
        {
          "internalType": "bytes32",
          "name": "",
          "type": "bytes32"
        }
      ],
      "stateMutability": "view",
      "type": "function"
    },
    {
      "inputs": [],
      "name": "MINTER_ROLE",
      "outputs": [
        {
          "internalType": "bytes32",
          "name": "",
          "type": "bytes32"
        }
      ],
      "stateMutability": "view",
      "type": "function"
    },
    {
      "inputs": [
        {
          "internalType": "address",
          "name": "newBurner",
          "type": "address"
        }
      ],
      "name": "addBurner",
      "outputs": [],
      "stateMutability": "nonpayable",
      "type": "function"
    },
    {
      "inputs": [
        {
          "internalType": "address",
          "name": "newMinter",
          "type": "address"
        }
      ],
      "name": "addMinter",
      "outputs": [],
      "stateMutability": "nonpayable",
      "type": "function"
    },
    {
      "inputs": [
        {
          "internalType": "address",
          "name": "owner",
          "type": "address"
        },
        {
          "internalType": "address",
          "name": "spender",
          "type": "address"
        }
      ],
      "name": "allowance",
      "outputs": [
        {
          "internalType": "uint256",
          "name": "",
          "type": "uint256"
        }
      ],
      "stateMutability": "view",
      "type": "function"
    },
    {
      "inputs": [
        {
          "internalType": "address",
          "name": "spender",
          "type": "address"
        },
        {
          "internalType": "uint256",
          "name": "amount",
          "type": "uint256"
        }
      ],
      "name": "approve",
      "outputs": [
        {
          "internalType": "bool",
          "name": "",
          "type": "bool"
        }
      ],
      "stateMutability": "nonpayable",
      "type": "function"
    },
    {
      "inputs": [
        {
          "internalType": "address",
          "name": "account",
          "type": "address"
        }
      ],
      "name": "balanceOf",
      "outputs": [
        {
          "internalType": "uint256",
          "name": "",
          "type": "uint256"
        }
      ],
      "stateMutability": "view",
      "type": "function"
    },
    {
      "inputs": [
        {
          "internalType": "address",
          "name": "from",
          "type": "address"
        },
        {
          "internalType": "uint256",
          "name": "amount",
          "type": "uint256"
        }
      ],
      "name": "burn",
      "outputs": [],
      "stateMutability": "nonpayable",
      "type": "function"
    },
    {
      "inputs": [],
      "name": "decimals",
      "outputs": [
        {
          "internalType": "uint8",
          "name": "",
          "type": "uint8"
        }
      ],
      "stateMutability": "view",
      "type": "function"
    },
    {
      "inputs": [
        {
          "internalType": "address",
          "name": "spender",
          "type": "address"
        },
        {
          "internalType": "uint256",
          "name": "subtractedValue",
          "type": "uint256"
        }
      ],
      "name": "decreaseAllowance",
      "outputs": [
        {
          "internalType": "bool",
          "name": "",
          "type": "bool"
        }
      ],
      "stateMutability": "nonpayable",
      "type": "function"
    },
    {
      "inputs": [
        {
          "internalType": "bytes32",
          "name": "role",
          "type": "bytes32"
        }
      ],
      "name": "getRoleAdmin",
      "outputs": [
        {
          "internalType": "bytes32",
          "name": "",
          "type": "bytes32"
        }
      ],
      "stateMutability": "view",
      "type": "function"
    },
    {
      "inputs": [
        {
          "internalType": "bytes32",
          "name": "role",
          "type": "bytes32"
        },
        {
          "internalType": "address",
          "name": "account",
          "type": "address"
        }
      ],
      "name": "grantRole",
      "outputs": [],
      "stateMutability": "nonpayable",
      "type": "function"
    },
    {
      "inputs": [
        {
          "internalType": "bytes32",
          "name": "role",
          "type": "bytes32"
        },
        {
          "internalType": "address",
          "name": "account",
          "type": "address"
        }
      ],
      "name": "hasRole",
      "outputs": [
        {
          "internalType": "bool",
          "name": "",
          "type": "bool"
        }
      ],
      "stateMutability": "view",
      "type": "function"
    },
    {
      "inputs": [
        {
          "internalType": "address",
          "name": "spender",
          "type": "address"
        },
        {
          "internalType": "uint256",
          "name": "addedValue",
          "type": "uint256"
        }
      ],
      "name": "increaseAllowance",
      "outputs": [
        {
          "internalType": "bool",
          "name": "",
          "type": "bool"
        }
      ],
      "stateMutability": "nonpayable",
      "type": "function"
    },
    {
      "inputs": [
        {
          "internalType": "address",
          "name": "to",
          "type": "address"
        },
        {
          "internalType": "uint256",
          "name": "amount",
          "type": "uint256"
        }
      ],
      "name": "mint",
      "outputs": [],
      "stateMutability": "nonpayable",
      "type": "function"
    },
    {
      "inputs": [],
      "name": "name",
      "outputs": [
        {
          "internalType": "string",
          "name": "",
          "type": "string"
        }
      ],
      "stateMutability": "view",
      "type": "function"
    },
    {
      "inputs": [],
      "name": "owner",
      "outputs": [
        {
          "internalType": "address",
          "name": "",
          "type": "address"
        }
      ],
      "stateMutability": "view",
      "type": "function"
    },
    {
      "inputs": [],
      "name": "pause",
      "outputs": [],
      "stateMutability": "nonpayable",
      "type": "function"
    },
    {
      "inputs": [],
      "name": "paused",
      "outputs": [
        {
          "internalType": "bool",
          "name": "",
          "type": "bool"
        }
      ],
      "stateMutability": "view",
      "type": "function"
    },
    {
      "inputs": [],
      "name": "renounceOwnership",
      "outputs": [],
      "stateMutability": "nonpayable",
      "type": "function"
    },
    {
      "inputs": [
        {
          "internalType": "bytes32",
          "name": "role",
          "type": "bytes32"
        },
        {
          "internalType": "address",
          "name": "account",
          "type": "address"
        }
      ],
      "name": "renounceRole",
      "outputs": [],
      "stateMutability": "nonpayable",
      "type": "function"
    },
    {
      "inputs": [
        {
          "internalType": "bytes32",
          "name": "role",
          "type": "bytes32"
        },
        {
          "internalType": "address",
          "name": "account",
          "type": "address"
        }
      ],
      "name": "revokeRole",
      "outputs": [],
      "stateMutability": "nonpayable",
      "type": "function"
    },
    {
      "inputs": [
        {
          "internalType": "bytes4",
          "name": "interfaceId",
          "type": "bytes4"
        }
      ],
      "name": "supportsInterface",
      "outputs": [
        {
          "internalType": "bool",
          "name": "",
          "type": "bool"
        }
      ],
      "stateMutability": "view",
      "type": "function"
    },
    {
      "inputs": [],
      "name": "symbol",
      "outputs": [
        {
          "internalType": "string",
          "name": "",
          "type": "string"
        }
      ],
      "stateMutability": "view",
      "type": "function"
    },
    {
      "inputs": [],
      "name": "totalSupply",
      "outputs": [
        {
          "internalType": "uint256",
          "name": "",
          "type": "uint256"
        }
      ],
      "stateMutability": "view",
      "type": "function"
    },
    {
      "inputs": [
        {
          "internalType": "address",
          "name": "to",
          "type": "address"
        },
        {
          "internalType": "uint256",
          "name": "amount",
          "type": "uint256"
        }
      ],
      "name": "transfer",
      "outputs": [
        {
          "internalType": "bool",
          "name": "",
          "type": "bool"
        }
      ],
      "stateMutability": "nonpayable",
      "type": "function"
    },
    {
      "inputs": [
        {
          "internalType": "address",
          "name": "from",
          "type": "address"
        },
        {
          "internalType": "address",
          "name": "to",
          "type": "address"
        },
        {
          "internalType": "uint256",
          "name": "amount",
          "type": "uint256"
        }
      ],
      "name": "transferFrom",
      "outputs": [
        {
          "internalType": "bool",
          "name": "",
          "type": "bool"
        }
      ],
      "stateMutability": "nonpayable",
      "type": "function"
    },
    {
      "inputs": [
        {
          "internalType": "address",
          "name": "newOwner",
          "type": "address"
        }
      ],
      "name": "transferOwnership",
      "outputs": [],
      "stateMutability": "nonpayable",
      "type": "function"
    },
    {
      "inputs": [],
      "name": "unpause",
      "outputs": [],
      "stateMutability": "nonpayable",
      "type": "function"
    }
  ],
  "bytecode": "0x60806040523480156200001157600080fd5b506040518060400160405280601281526020017f506f69736f6e457373656e6365546f6b656e00000000000000000000000000008152506040518060400160405280600281526020017f504500000000000000000000000000000000000000000000000000000000000081525081600390805190602001906200009692919062000333565b508060049080519060200190620000af92919062000333565b5050506000600560006101000a81548160ff021916908315150217905550620000ed620000e16200010860201b60201c565b6200011060201b60201c565b620001026000801b33620001d660201b60201c565b62000447565b600033905090565b6000600560019054906101000a900473ffffffffffffffffffffffffffffffffffffffff16905081600560016101000a81548173ffffffffffffffffffffffffffffffffffffffff021916908373ffffffffffffffffffffffffffffffffffffffff1602179055508173ffffffffffffffffffffffffffffffffffffffff168173ffffffffffffffffffffffffffffffffffffffff167f8be0079c531659141344cd1fd0a4f28419497f9722a3daafe3b4186f6b6457e060405160405180910390a35050565b620001e88282620002c860201b60201c565b620002c45760016006600084815260200190815260200160002060000160008373ffffffffffffffffffffffffffffffffffffffff1673ffffffffffffffffffffffffffffffffffffffff16815260200190815260200160002060006101000a81548160ff021916908315150217905550620002696200010860201b60201c565b73ffffffffffffffffffffffffffffffffffffffff168173ffffffffffffffffffffffffffffffffffffffff16837f2f8788117e7eff1d82e926ec794901d17c78024a50270940304540a733656f0d60405160405180910390a45b5050565b60006006600084815260200190815260200160002060000160008373ffffffffffffffffffffffffffffffffffffffff1673ffffffffffffffffffffffffffffffffffffffff16815260200190815260200160002060009054906101000a900460ff16905092915050565b828054620003419062000412565b90600052602060002090601f016020900481019282620003655760008555620003b1565b82601f106200038057805160ff1916838001178555620003b1565b82800160010185558215620003b1579182015b82811115620003b057825182559160200191906001019062000393565b5b509050620003c09190620003c4565b5090565b5b80821115620003df576000816000905550600101620003c5565b5090565b7f4e487b7100000000000000000000000000000000000000000000000000000000600052602260045260246000fd5b600060028204905060018216806200042b57607f821691505b602082108103620004415762000440620003e3565b5b50919050565b612c5e80620004576000396000f3fe608060405234801561001057600080fd5b50600436106101da5760003560e01c8063715018a611610104578063a217fddf116100a2578063d547741f11610071578063d547741f14610547578063dd62ed3e14610563578063f2fde38b14610593578063f44637ba146105af576101da565b8063a217fddf146104ab578063a457c2d7146104c9578063a9059cbb146104f9578063d539139314610529576101da565b806391d14854116100de57806391d148541461042557806395d89b4114610455578063983b2d56146104735780639dc29fac1461048f576101da565b8063715018a6146103f35780638456cb59146103fd5780638da5cb5b14610407576101da565b80632f2ff15d1161017c5780633f4ba83a1161014b5780633f4ba83a1461037f57806340c10f19146103895780635c975abb146103a557806370a08231146103c3576101da565b80632f2ff15d146102f9578063313ce5671461031557806336568abe14610333578063395093511461034f576101da565b806318160ddd116101b857806318160ddd1461025d57806323b872dd1461027b578063248a9ca3146102ab578063282c51f3146102db576101da565b806301ffc9a7146101df57806306fdde031461020f578063095ea7b31461022d575b600080fd5b6101f960048036038101906101f49190611d0e565b6105cb565b6040516102069190611d56565b60405180910390f35b610217610645565b6040516102249190611e0a565b60405180910390f35b61024760048036038101906102429190611ec0565b6106d7565b6040516102549190611d56565b60405180910390f35b6102656106fa565b6040516102729190611f0f565b60405180910390f35b61029560048036038101906102909190611f2a565b610704565b6040516102a29190611d56565b60405180910390f35b6102c560048036038101906102c09190611fb3565b610733565b6040516102d29190611fef565b60405180910390f35b6102e3610753565b6040516102f09190611fef565b60405180910390f35b610313600480360381019061030e919061200a565b610777565b005b61031d610798565b60405161032a9190612066565b60405180910390f35b61034d6004803603810190610348919061200a565b6107a1565b005b61036960048036038101906103649190611ec0565b610824565b6040516103769190611d56565b60405180910390f35b61038761085b565b005b6103a3600480360381019061039e9190611ec0565b61086d565b005b6103ad6108a6565b6040516103ba9190611d56565b60405180910390f35b6103dd60048036038101906103d89190612081565b6108bd565b6040516103ea9190611f0f565b60405180910390f35b6103fb610905565b005b610405610919565b005b61040f61092b565b60405161041c91906120bd565b60405180910390f35b61043f600480360381019061043a919061200a565b610955565b60405161044c9190611d56565b60405180910390f35b61045d6109c0565b60405161046a9190611e0a565b60405180910390f35b61048d60048036038101906104889190612081565b610a52565b005b6104a960048036038101906104a49190611ec0565b610a87565b005b6104b3610ac0565b6040516104c09190611fef565b60405180910390f35b6104e360048036038101906104de9190611ec0565b610ac7565b6040516104f09190611d56565b60405180910390f35b610513600480360381019061050e9190611ec0565b610b3e565b6040516105209190611d56565b60405180910390f35b610531610b61565b60405161053e9190611fef565b60405180910390f35b610561600480360381019061055c919061200a565b610b85565b005b61057d600480360381019061057891906120d8565b610ba6565b60405161058a9190611f0f565b60405180910390f35b6105ad60048036038101906105a89190612081565b610c2d565b005b6105c960048036038101906105c49190612081565b610cb0565b005b60007f7965db0b000000000000000000000000000000000000000000000000000000007bffffffffffffffffffffffffffffffffffffffffffffffffffffffff1916827bffffffffffffffffffffffffffffffffffffffffffffffffffffffff1916148061063e575061063d82610ce5565b5b9050919050565b60606003805461065490612147565b80601f016020809104026020016040519081016040528092919081815260200182805461068090612147565b80156106cd5780601f106106a2576101008083540402835291602001916106cd565b820191906000526020600020905b8154815290600101906020018083116106b057829003601f168201915b5050505050905090565b6000806106e2610d4f565b90506106ef818585610d57565b600191505092915050565b6000600254905090565b60008061070f610d4f565b905061071c858285610f20565b610727858585610fac565b60019150509392505050565b600060066000838152602001908152602001600020600101549050919050565b7f3c11d16cbaffd01df69ce1c404f6340ee057498f5f00246190ea54220576a84881565b61078082610733565b61078981611222565b6107938383611236565b505050565b60006012905090565b6107a9610d4f565b73ffffffffffffffffffffffffffffffffffffffff168173ffffffffffffffffffffffffffffffffffffffff1614610816576040517f08c379a000000000000000000000000000000000000000000000000000000000815260040161080d906121ea565b60405180910390fd5b6108208282611317565b5050565b60008061082f610d4f565b90506108508185856108418589610ba6565b61084b9190612239565b610d57565b600191505092915050565b6108636113f9565b61086b611477565b565b7f9f2df0fed2c77648de5860a4cc508cd0818c85b8b8a1ab4ceeef8d981c8956a661089781611222565b6108a183836114da565b505050565b6000600560009054906101000a900460ff16905090565b60008060008373ffffffffffffffffffffffffffffffffffffffff1673ffffffffffffffffffffffffffffffffffffffff168152602001908152602001600020549050919050565b61090d6113f9565b6109176000611630565b565b6109216113f9565b6109296116f6565b565b6000600560019054906101000a900473ffffffffffffffffffffffffffffffffffffffff16905090565b60006006600084815260200190815260200160002060000160008373ffffffffffffffffffffffffffffffffffffffff1673ffffffffffffffffffffffffffffffffffffffff16815260200190815260200160002060009054906101000a900460ff16905092915050565b6060600480546109cf90612147565b80601f01602080910402602001604051908101604052809291908181526020018280546109fb90612147565b8015610a485780601f10610a1d57610100808354040283529160200191610a48565b820191906000526020600020905b815481529060010190602001808311610a2b57829003601f168201915b5050505050905090565b610a5a6113f9565b610a847f9f2df0fed2c77648de5860a4cc508cd0818c85b8b8a1ab4ceeef8d981c8956a682611236565b50565b7f3c11d16cbaffd01df69ce1c404f6340ee057498f5f00246190ea54220576a848610ab181611222565b610abb8383611759565b505050565b6000801b81565b600080610ad2610d4f565b90506000610ae08286610ba6565b905083811015610b25576040517f08c379a0000000000000000000000000000000000000000000000000000000008152600401610b1c90612301565b60405180910390fd5b610b328286868403610d57565b60019250505092915050565b600080610b49610d4f565b9050610b56818585610fac565b600191505092915050565b7f9f2df0fed2c77648de5860a4cc508cd0818c85b8b8a1ab4ceeef8d981c8956a681565b610b8e82610733565b610b9781611222565b610ba18383611317565b505050565b6000600160008473ffffffffffffffffffffffffffffffffffffffff1673ffffffffffffffffffffffffffffffffffffffff16815260200190815260200160002060008373ffffffffffffffffffffffffffffffffffffffff1673ffffffffffffffffffffffffffffffffffffffff16815260200190815260200160002054905092915050565b610c356113f9565b600073ffffffffffffffffffffffffffffffffffffffff168173ffffffffffffffffffffffffffffffffffffffff1603610ca4576040517f08c379a0000000000000000000000000000000000000000000000000000000008152600401610c9b90612393565b60405180910390fd5b610cad81611630565b50565b610cb86113f9565b610ce27f3c11d16cbaffd01df69ce1c404f6340ee057498f5f00246190ea54220576a84882611236565b50565b60007f01ffc9a7000000000000000000000000000000000000000000000000000000007bffffffffffffffffffffffffffffffffffffffffffffffffffffffff1916827bffffffffffffffffffffffffffffffffffffffffffffffffffffffff1916149050919050565b600033905090565b600073ffffffffffffffffffffffffffffffffffffffff168373ffffffffffffffffffffffffffffffffffffffff1603610dc6576040517f08c379a0000000000000000000000000000000000000000000000000000000008152600401610dbd90612425565b60405180910390fd5b600073ffffffffffffffffffffffffffffffffffffffff168273ffffffffffffffffffffffffffffffffffffffff1603610e35576040517f08c379a0000000000000000000000000000000000000000000000000000000008152600401610e2c906124b7565b60405180910390fd5b80600160008573ffffffffffffffffffffffffffffffffffffffff1673ffffffffffffffffffffffffffffffffffffffff16815260200190815260200160002060008473ffffffffffffffffffffffffffffffffffffffff1673ffffffffffffffffffffffffffffffffffffffff168152602001908152602001600020819055508173ffffffffffffffffffffffffffffffffffffffff168373ffffffffffffffffffffffffffffffffffffffff167f8c5be1e5ebec7d5bd14f71427d1e84f3dd0314c0f7b2291e5b200ac8c7c3b92583604051610f139190611f0f565b60405180910390a3505050565b6000610f2c8484610ba6565b90507fffffffffffffffffffffffffffffffffffffffffffffffffffffffffffffffff8114610fa65781811015610f98576040517f08c379a0000000000000000000000000000000000000000000000000000000008152600401610f8f90612523565b60405180910390fd5b610fa58484848403610d57565b5b50505050565b600073ffffffffffffffffffffffffffffffffffffffff168373ffffffffffffffffffffffffffffffffffffffff160361101b576040517f08c379a0000000000000000000000000000000000000000000000000000000008152600401611012906125b5565b60405180910390fd5b600073ffffffffffffffffffffffffffffffffffffffff168273ffffffffffffffffffffffffffffffffffffffff160361108a576040517f08c379a000000000000000000000000000000000000000000000000000000000815260040161108190612647565b60405180910390fd5b611095838383611926565b60008060008573ffffffffffffffffffffffffffffffffffffffff1673ffffffffffffffffffffffffffffffffffffffff1681526020019081526020016000205490508181101561111b576040517f08c379a0000000000000000000000000000000000000000000000000000000008152600401611112906126d9565b60405180910390fd5b8181036000808673ffffffffffffffffffffffffffffffffffffffff1673ffffffffffffffffffffffffffffffffffffffff16815260200190815260200160002081905550816000808573ffffffffffffffffffffffffffffffffffffffff1673ffffffffffffffffffffffffffffffffffffffff168152602001908152602001600020600082825401925050819055508273ffffffffffffffffffffffffffffffffffffffff168473ffffffffffffffffffffffffffffffffffffffff167fddf252ad1be2c89b69c2b068fc378daa952ba7f163c4a11628f55a4df523b3ef846040516112099190611f0f565b60405180910390a361121c84848461192b565b50505050565b6112338161122e610d4f565b611930565b50565b6112408282610955565b6113135760016006600084815260200190815260200160002060000160008373ffffffffffffffffffffffffffffffffffffffff1673ffffffffffffffffffffffffffffffffffffffff16815260200190815260200160002060006101000a81548160ff0219169083151502179055506112b8610d4f565b73ffffffffffffffffffffffffffffffffffffffff168173ffffffffffffffffffffffffffffffffffffffff16837f2f8788117e7eff1d82e926ec794901d17c78024a50270940304540a733656f0d60405160405180910390a45b5050565b6113218282610955565b156113f55760006006600084815260200190815260200160002060000160008373ffffffffffffffffffffffffffffffffffffffff1673ffffffffffffffffffffffffffffffffffffffff16815260200190815260200160002060006101000a81548160ff02191690831515021790555061139a610d4f565b73ffffffffffffffffffffffffffffffffffffffff168173ffffffffffffffffffffffffffffffffffffffff16837ff6391f5c32d9c69d2a47ea670b442974b53935d1edc7fd64eb21e047a839171b60405160405180910390a45b5050565b611401610d4f565b73ffffffffffffffffffffffffffffffffffffffff1661141f61092b565b73ffffffffffffffffffffffffffffffffffffffff1614611475576040517f08c379a000000000000000000000000000000000000000000000000000000000815260040161146c90612745565b60405180910390fd5b565b61147f6119b5565b6000600560006101000a81548160ff0219169083151502179055507f5db9ee0a495bf2e6ff9c91a7834c1ba4fdd244a5e8aa4e537bd38aeae4b073aa6114c3610d4f565b6040516114d091906120bd565b60405180910390a1565b600073ffffffffffffffffffffffffffffffffffffffff168273ffffffffffffffffffffffffffffffffffffffff1603611549576040517f08c379a0000000000000000000000000000000000000000000000000000000008152600401611540906127b1565b60405180910390fd5b61155560008383611926565b80600260008282546115679190612239565b92505081905550806000808473ffffffffffffffffffffffffffffffffffffffff1673ffffffffffffffffffffffffffffffffffffffff168152602001908152602001600020600082825401925050819055508173ffffffffffffffffffffffffffffffffffffffff16600073ffffffffffffffffffffffffffffffffffffffff167fddf252ad1be2c89b69c2b068fc378daa952ba7f163c4a11628f55a4df523b3ef836040516116189190611f0f565b60405180910390a361162c6000838361192b565b5050565b6000600560019054906101000a900473ffffffffffffffffffffffffffffffffffffffff16905081600560016101000a81548173ffffffffffffffffffffffffffffffffffffffff021916908373ffffffffffffffffffffffffffffffffffffffff1602179055508173ffffffffffffffffffffffffffffffffffffffff168173ffffffffffffffffffffffffffffffffffffffff167f8be0079c531659141344cd1fd0a4f28419497f9722a3daafe3b4186f6b6457e060405160405180910390a35050565b6116fe6119fe565b6001600560006101000a81548160ff0219169083151502179055507f62e78cea01bee320cd4e420270b5ea74000d11b0c9f74754ebdbfc544b05a258611742610d4f565b60405161174f91906120bd565b60405180910390a1565b600073ffffffffffffffffffffffffffffffffffffffff168273ffffffffffffffffffffffffffffffffffffffff16036117c8576040517f08c379a00000000000000000000000000000000000000000000000000000000081526004016117bf90612843565b60405180910390fd5b6117d482600083611926565b60008060008473ffffffffffffffffffffffffffffffffffffffff1673ffffffffffffffffffffffffffffffffffffffff1681526020019081526020016000205490508181101561185a576040517f08c379a0000000000000000000000000000000000000000000000000000000008152600401611851906128d5565b60405180910390fd5b8181036000808573ffffffffffffffffffffffffffffffffffffffff1673ffffffffffffffffffffffffffffffffffffffff1681526020019081526020016000208190555081600260008282540392505081905550600073ffffffffffffffffffffffffffffffffffffffff168373ffffffffffffffffffffffffffffffffffffffff167fddf252ad1be2c89b69c2b068fc378daa952ba7f163c4a11628f55a4df523b3ef8460405161190d9190611f0f565b60405180910390a36119218360008461192b565b505050565b505050565b505050565b61193a8282610955565b6119b15761194781611a48565b6119558360001c6020611a75565b6040516020016119669291906129c9565b6040516020818303038152906040526040517f08c379a00000000000000000000000000000000000000000000000000000000081526004016119a89190611e0a565b60405180910390fd5b5050565b6119bd6108a6565b6119fc576040517f08c379a00000000000000000000000000000000000000000000000000000000081526004016119f390612a4f565b60405180910390fd5b565b611a066108a6565b15611a46576040517f08c379a0000000000000000000000000000000000000000000000000000000008152600401611a3d90612abb565b60405180910390fd5b565b6060611a6e8273ffffffffffffffffffffffffffffffffffffffff16601460ff16611a75565b9050919050565b606060006002836002611a889190612adb565b611a929190612239565b67ffffffffffffffff811115611aab57611aaa612b35565b5b6040519080825280601f01601f191660200182016040528015611add5781602001600182028036833780820191505090505b5090507f300000000000000000000000000000000000000000000000000000000000000081600081518110611b1557611b14612b64565b5b60200101907effffffffffffffffffffffffffffffffffffffffffffffffffffffffffffff1916908160001a9053507f780000000000000000000000000000000000000000000000000000000000000081600181518110611b7957611b78612b64565b5b60200101907effffffffffffffffffffffffffffffffffffffffffffffffffffffffffffff1916908160001a90535060006001846002611bb99190612adb565b611bc39190612239565b90505b6001811115611c63577f3031323334353637383961626364656600000000000000000000000000000000600f861660108110611c0557611c04612b64565b5b1a60f81b828281518110611c1c57611c1b612b64565b5b60200101907effffffffffffffffffffffffffffffffffffffffffffffffffffffffffffff1916908160001a905350600485901c945080611c5c90612b93565b9050611bc6565b5060008414611ca7576040517f08c379a0000000000000000000000000000000000000000000000000000000008152600401611c9e90612c08565b60405180910390fd5b8091505092915050565b600080fd5b60007fffffffff0000000000000000000000000000000000000000000000000000000082169050919050565b611ceb81611cb6565b8114611cf657600080fd5b50565b600081359050611d0881611ce2565b92915050565b600060208284031215611d2457611d23611cb1565b5b6000611d3284828501611cf9565b91505092915050565b60008115159050919050565b611d5081611d3b565b82525050565b6000602082019050611d6b6000830184611d47565b92915050565b600081519050919050565b600082825260208201905092915050565b60005b83811015611dab578082015181840152602081019050611d90565b83811115611dba576000848401525b50505050565b6000601f19601f8301169050919050565b6000611ddc82611d71565b611de68185611d7c565b9350611df6818560208601611d8d565b611dff81611dc0565b840191505092915050565b60006020820190508181036000830152611e248184611dd1565b905092915050565b600073ffffffffffffffffffffffffffffffffffffffff82169050919050565b6000611e5782611e2c565b9050919050565b611e6781611e4c565b8114611e7257600080fd5b50565b600081359050611e8481611e5e565b92915050565b6000819050919050565b611e9d81611e8a565b8114611ea857600080fd5b50565b600081359050611eba81611e94565b92915050565b60008060408385031215611ed757611ed6611cb1565b5b6000611ee585828601611e75565b9250506020611ef685828601611eab565b9150509250929050565b611f0981611e8a565b82525050565b6000602082019050611f246000830184611f00565b92915050565b600080600060608486031215611f4357611f42611cb1565b5b6000611f5186828701611e75565b9350506020611f6286828701611e75565b9250506040611f7386828701611eab565b9150509250925092565b6000819050919050565b611f9081611f7d565b8114611f9b57600080fd5b50565b600081359050611fad81611f87565b92915050565b600060208284031215611fc957611fc8611cb1565b5b6000611fd784828501611f9e565b91505092915050565b611fe981611f7d565b82525050565b60006020820190506120046000830184611fe0565b92915050565b6000806040838503121561202157612020611cb1565b5b600061202f85828601611f9e565b925050602061204085828601611e75565b9150509250929050565b600060ff82169050919050565b6120608161204a565b82525050565b600060208201905061207b6000830184612057565b92915050565b60006020828403121561209757612096611cb1565b5b60006120a584828501611e75565b91505092915050565b6120b781611e4c565b82525050565b60006020820190506120d260008301846120ae565b92915050565b600080604083850312156120ef576120ee611cb1565b5b60006120fd85828601611e75565b925050602061210e85828601611e75565b9150509250929050565b7f4e487b7100000000000000000000000000000000000000000000000000000000600052602260045260246000fd5b6000600282049050600182168061215f57607f821691505b60208210810361217257612171612118565b5b50919050565b7f416363657373436f6e74726f6c3a2063616e206f6e6c792072656e6f756e636560008201527f20726f6c657320666f722073656c660000000000000000000000000000000000602082015250565b60006121d4602f83611d7c565b91506121df82612178565b604082019050919050565b60006020820190508181036000830152612203816121c7565b9050919050565b7f4e487b7100000000000000000000000000000000000000000000000000000000600052601160045260246000fd5b600061224482611e8a565b915061224f83611e8a565b9250827fffffffffffffffffffffffffffffffffffffffffffffffffffffffffffffffff038211156122845761228361220a565b5b828201905092915050565b7f45524332303a2064656372656173656420616c6c6f77616e63652062656c6f7760008201527f207a65726f000000000000000000000000000000000000000000000000000000602082015250565b60006122eb602583611d7c565b91506122f68261228f565b604082019050919050565b6000602082019050818103600083015261231a816122de565b9050919050565b7f4f776e61626c653a206e6577206f776e657220697320746865207a65726f206160008201527f6464726573730000000000000000000000000000000000000000000000000000602082015250565b600061237d602683611d7c565b915061238882612321565b604082019050919050565b600060208201905081810360008301526123ac81612370565b9050919050565b7f45524332303a20617070726f76652066726f6d20746865207a65726f2061646460008201527f7265737300000000000000000000000000000000000000000000000000000000602082015250565b600061240f602483611d7c565b915061241a826123b3565b604082019050919050565b6000602082019050818103600083015261243e81612402565b9050919050565b7f45524332303a20617070726f766520746f20746865207a65726f20616464726560008201527f7373000000000000000000000000000000000000000000000000000000000000602082015250565b60006124a1602283611d7c565b91506124ac82612445565b604082019050919050565b600060208201905081810360008301526124d081612494565b9050919050565b7f45524332303a20696e73756666696369656e7420616c6c6f77616e6365000000600082015250565b600061250d601d83611d7c565b9150612518826124d7565b602082019050919050565b6000602082019050818103600083015261253c81612500565b9050919050565b7f45524332303a207472616e736665722066726f6d20746865207a65726f20616460008201527f6472657373000000000000000000000000000000000000000000000000000000602082015250565b600061259f602583611d7c565b91506125aa82612543565b604082019050919050565b600060208201905081810360008301526125ce81612592565b9050919050565b7f45524332303a207472616e7366657220746f20746865207a65726f206164647260008201527f6573730000000000000000000000000000000000000000000000000000000000602082015250565b6000612631602383611d7c565b915061263c826125d5565b604082019050919050565b6000602082019050818103600083015261266081612624565b9050919050565b7f45524332303a207472616e7366657220616d6f756e742065786365656473206260008201527f616c616e63650000000000000000000000000000000000000000000000000000602082015250565b60006126c3602683611d7c565b91506126ce82612667565b604082019050919050565b600060208201905081810360008301526126f2816126b6565b9050919050565b7f4f776e61626c653a2063616c6c6572206973206e6f7420746865206f776e6572600082015250565b600061272f602083611d7c565b915061273a826126f9565b602082019050919050565b6000602082019050818103600083015261275e81612722565b9050919050565b7f45524332303a206d696e7420746f20746865207a65726f206164647265737300600082015250565b600061279b601f83611d7c565b91506127a682612765565b602082019050919050565b600060208201905081810360008301526127ca8161278e565b9050919050565b7f45524332303a206275726e2066726f6d20746865207a65726f2061646472657360008201527f7300000000000000000000000000000000000000000000000000000000000000602082015250565b600061282d602183611d7c565b9150612838826127d1565b604082019050919050565b6000602082019050818103600083015261285c81612820565b9050919050565b7f45524332303a206275726e20616d6f756e7420657863656564732062616c616e60008201527f6365000000000000000000000000000000000000000000000000000000000000602082015250565b60006128bf602283611d7c565b91506128ca82612863565b604082019050919050565b600060208201905081810360008301526128ee816128b2565b9050919050565b600081905092915050565b7f416363657373436f6e74726f6c3a206163636f756e7420000000000000000000600082015250565b60006129366017836128f5565b915061294182612900565b601782019050919050565b600061295782611d71565b61296181856128f5565b9350612971818560208601611d8d565b80840191505092915050565b7f206973206d697373696e6720726f6c6520000000000000000000000000000000600082015250565b60006129b36011836128f5565b91506129be8261297d565b601182019050919050565b60006129d482612929565b91506129e0828561294c565b91506129eb826129a6565b91506129f7828461294c565b91508190509392505050565b7f5061757361626c653a206e6f7420706175736564000000000000000000000000600082015250565b6000612a39601483611d7c565b9150612a4482612a03565b602082019050919050565b60006020820190508181036000830152612a6881612a2c565b9050919050565b7f5061757361626c653a2070617573656400000000000000000000000000000000600082015250565b6000612aa5601083611d7c565b9150612ab082612a6f565b602082019050919050565b60006020820190508181036000830152612ad481612a98565b9050919050565b6000612ae682611e8a565b9150612af183611e8a565b9250817fffffffffffffffffffffffffffffffffffffffffffffffffffffffffffffffff0483118215151615612b2a57612b2961220a565b5b828202905092915050565b7f4e487b7100000000000000000000000000000000000000000000000000000000600052604160045260246000fd5b7f4e487b7100000000000000000000000000000000000000000000000000000000600052603260045260246000fd5b6000612b9e82611e8a565b915060008203612bb157612bb061220a565b5b600182039050919050565b7f537472696e67733a20686578206c656e67746820696e73756666696369656e74600082015250565b6000612bf2602083611d7c565b9150612bfd82612bbc565b602082019050919050565b60006020820190508181036000830152612c2181612be5565b905091905056fea26469706673582212203db22289f714528e4aa10a8865068b0084c271f1dd15e740a9dae601d9ab838064736f6c634300080d0033",
  "linkReferences": {},
  "deployedLinkReferences": {}
}