{
  "_format": "hh-sol-artifact-1",
  "contractName": "PlaceholderExtractor",
  "sourceName": "contracts/PlaceholderExtractor.sol",
  "abi": [
    {
      "inputs": [],
      "stateMutability": "nonpayable",
      "type": "constructor"
    },
    {
      "anonymous": false,
      "inputs": [
        {
          "indexed": true,
          "internalType": "address",
          "name": "account",
          "type": "address"
        },
        {
          "indexed": true,
          "internalType": "address",
          "name": "operator",
          "type": "address"
        },
        {
          "indexed": false,
          "internalType": "bool",
          "name": "approved",
          "type": "bool"
        }
      ],
      "name": "ApprovalForAll",
      "type": "event"
    },
    {
      "anonymous": false,
      "inputs": [
        {
          "indexed": true,
          "internalType": "address",
          "name": "previousOwner",
          "type": "address"
        },
        {
          "indexed": true,
          "internalType": "address",
          "name": "newOwner",
          "type": "address"
        }
      ],
      "name": "OwnershipTransferred",
      "type": "event"
    },
    {
      "anonymous": false,
      "inputs": [
        {
          "indexed": false,
          "internalType": "address",
          "name": "account",
          "type": "address"
        }
      ],
      "name": "Paused",
      "type": "event"
    },
    {
      "anonymous": false,
      "inputs": [
        {
          "indexed": true,
          "internalType": "address",
          "name": "operator",
          "type": "address"
        },
        {
          "indexed": true,
          "internalType": "address",
          "name": "from",
          "type": "address"
        },
        {
          "indexed": true,
          "internalType": "address",
          "name": "to",
          "type": "address"
        },
        {
          "indexed": false,
          "internalType": "uint256[]",
          "name": "ids",
          "type": "uint256[]"
        },
        {
          "indexed": false,
          "internalType": "uint256[]",
          "name": "values",
          "type": "uint256[]"
        }
      ],
      "name": "TransferBatch",
      "type": "event"
    },
    {
      "anonymous": false,
      "inputs": [
        {
          "indexed": true,
          "internalType": "address",
          "name": "operator",
          "type": "address"
        },
        {
          "indexed": true,
          "internalType": "address",
          "name": "from",
          "type": "address"
        },
        {
          "indexed": true,
          "internalType": "address",
          "name": "to",
          "type": "address"
        },
        {
          "indexed": false,
          "internalType": "uint256",
          "name": "id",
          "type": "uint256"
        },
        {
          "indexed": false,
          "internalType": "uint256",
          "name": "value",
          "type": "uint256"
        }
      ],
      "name": "TransferSingle",
      "type": "event"
    },
    {
      "anonymous": false,
      "inputs": [
        {
          "indexed": false,
          "internalType": "string",
          "name": "value",
          "type": "string"
        },
        {
          "indexed": true,
          "internalType": "uint256",
          "name": "id",
          "type": "uint256"
        }
      ],
      "name": "URI",
      "type": "event"
    },
    {
      "anonymous": false,
      "inputs": [
        {
          "indexed": false,
          "internalType": "address",
          "name": "account",
          "type": "address"
        }
      ],
      "name": "Unpaused",
      "type": "event"
    },
    {
      "inputs": [
        {
          "internalType": "address",
          "name": "account",
          "type": "address"
        },
        {
          "internalType": "uint256",
          "name": "id",
          "type": "uint256"
        }
      ],
      "name": "balanceOf",
      "outputs": [
        {
          "internalType": "uint256",
          "name": "",
          "type": "uint256"
        }
      ],
      "stateMutability": "view",
      "type": "function"
    },
    {
      "inputs": [
        {
          "internalType": "address[]",
          "name": "accounts",
          "type": "address[]"
        },
        {
          "internalType": "uint256[]",
          "name": "ids",
          "type": "uint256[]"
        }
      ],
      "name": "balanceOfBatch",
      "outputs": [
        {
          "internalType": "uint256[]",
          "name": "",
          "type": "uint256[]"
        }
      ],
      "stateMutability": "view",
      "type": "function"
    },
    {
      "inputs": [
        {
          "internalType": "address",
          "name": "account",
          "type": "address"
        },
        {
          "internalType": "address",
          "name": "operator",
          "type": "address"
        }
      ],
      "name": "isApprovedForAll",
      "outputs": [
        {
          "internalType": "bool",
          "name": "",
          "type": "bool"
        }
      ],
      "stateMutability": "view",
      "type": "function"
    },
    {
      "inputs": [
        {
          "internalType": "address",
          "name": "account",
          "type": "address"
        },
        {
          "internalType": "uint256",
          "name": "id",
          "type": "uint256"
        },
        {
          "internalType": "uint256",
          "name": "amount",
          "type": "uint256"
        },
        {
          "internalType": "bytes",
          "name": "data",
          "type": "bytes"
        }
      ],
      "name": "mint",
      "outputs": [],
      "stateMutability": "nonpayable",
      "type": "function"
    },
    {
      "inputs": [
        {
          "internalType": "address",
          "name": "to",
          "type": "address"
        },
        {
          "internalType": "uint256[]",
          "name": "ids",
          "type": "uint256[]"
        },
        {
          "internalType": "uint256[]",
          "name": "amounts",
          "type": "uint256[]"
        },
        {
          "internalType": "bytes",
          "name": "data",
          "type": "bytes"
        }
      ],
      "name": "mintBatch",
      "outputs": [],
      "stateMutability": "nonpayable",
      "type": "function"
    },
    {
      "inputs": [],
      "name": "owner",
      "outputs": [
        {
          "internalType": "address",
          "name": "",
          "type": "address"
        }
      ],
      "stateMutability": "view",
      "type": "function"
    },
    {
      "inputs": [],
      "name": "pause",
      "outputs": [],
      "stateMutability": "nonpayable",
      "type": "function"
    },
    {
      "inputs": [],
      "name": "paused",
      "outputs": [
        {
          "internalType": "bool",
          "name": "",
          "type": "bool"
        }
      ],
      "stateMutability": "view",
      "type": "function"
    },
    {
      "inputs": [],
      "name": "renounceOwnership",
      "outputs": [],
      "stateMutability": "nonpayable",
      "type": "function"
    },
    {
      "inputs": [
        {
          "internalType": "address",
          "name": "from",
          "type": "address"
        },
        {
          "internalType": "address",
          "name": "to",
          "type": "address"
        },
        {
          "internalType": "uint256[]",
          "name": "ids",
          "type": "uint256[]"
        },
        {
          "internalType": "uint256[]",
          "name": "amounts",
          "type": "uint256[]"
        },
        {
          "internalType": "bytes",
          "name": "data",
          "type": "bytes"
        }
      ],
      "name": "safeBatchTransferFrom",
      "outputs": [],
      "stateMutability": "nonpayable",
      "type": "function"
    },
    {
      "inputs": [
        {
          "internalType": "address",
          "name": "from",
          "type": "address"
        },
        {
          "internalType": "address",
          "name": "to",
          "type": "address"
        },
        {
          "internalType": "uint256",
          "name": "id",
          "type": "uint256"
        },
        {
          "internalType": "uint256",
          "name": "amount",
          "type": "uint256"
        },
        {
          "internalType": "bytes",
          "name": "data",
          "type": "bytes"
        }
      ],
      "name": "safeTransferFrom",
      "outputs": [],
      "stateMutability": "nonpayable",
      "type": "function"
    },
    {
      "inputs": [
        {
          "internalType": "address",
          "name": "operator",
          "type": "address"
        },
        {
          "internalType": "bool",
          "name": "approved",
          "type": "bool"
        }
      ],
      "name": "setApprovalForAll",
      "outputs": [],
      "stateMutability": "nonpayable",
      "type": "function"
    },
    {
      "inputs": [
        {
          "internalType": "string",
          "name": "newuri",
          "type": "string"
        }
      ],
      "name": "setURI",
      "outputs": [],
      "stateMutability": "nonpayable",
      "type": "function"
    },
    {
      "inputs": [
        {
          "internalType": "bytes4",
          "name": "interfaceId",
          "type": "bytes4"
        }
      ],
      "name": "supportsInterface",
      "outputs": [
        {
          "internalType": "bool",
          "name": "",
          "type": "bool"
        }
      ],
      "stateMutability": "view",
      "type": "function"
    },
    {
      "inputs": [
        {
          "internalType": "address",
          "name": "newOwner",
          "type": "address"
        }
      ],
      "name": "transferOwnership",
      "outputs": [],
      "stateMutability": "nonpayable",
      "type": "function"
    },
    {
      "inputs": [],
      "name": "unpause",
      "outputs": [],
      "stateMutability": "nonpayable",
      "type": "function"
    },
    {
      "inputs": [
        {
          "internalType": "uint256",
          "name": "",
          "type": "uint256"
        }
      ],
      "name": "uri",
      "outputs": [
        {
          "internalType": "string",
          "name": "",
          "type": "string"
        }
      ],
      "stateMutability": "view",
      "type": "function"
    }
  ],
  "bytecode": "0x60806040523480156200001157600080fd5b506040518060400160405280601481526020017f68747470733a2f2f494e56414c49442e6a736f6e00000000000000000000000081525062000059816200009b60201b60201c565b506200007a6200006e620000b760201b60201c565b620000bf60201b60201c565b6000600360146101000a81548160ff02191690831515021790555062000299565b8060029080519060200190620000b392919062000185565b5050565b600033905090565b6000600360009054906101000a900473ffffffffffffffffffffffffffffffffffffffff16905081600360006101000a81548173ffffffffffffffffffffffffffffffffffffffff021916908373ffffffffffffffffffffffffffffffffffffffff1602179055508173ffffffffffffffffffffffffffffffffffffffff168173ffffffffffffffffffffffffffffffffffffffff167f8be0079c531659141344cd1fd0a4f28419497f9722a3daafe3b4186f6b6457e060405160405180910390a35050565b828054620001939062000264565b90600052602060002090601f016020900481019282620001b7576000855562000203565b82601f10620001d257805160ff191683800117855562000203565b8280016001018555821562000203579182015b8281111562000202578251825591602001919060010190620001e5565b5b50905062000212919062000216565b5090565b5b808211156200023157600081600090555060010162000217565b5090565b7f4e487b7100000000000000000000000000000000000000000000000000000000600052602260045260246000fd5b600060028204905060018216806200027d57607f821691505b60208210810362000293576200029262000235565b5b50919050565b6133df80620002a96000396000f3fe608060405234801561001057600080fd5b506004361061010a5760003560e01c80635c975abb116100a25780638da5cb5b116100715780638da5cb5b1461027b578063a22cb46514610299578063e985e9c5146102b5578063f242432a146102e5578063f2fde38b146103015761010a565b80635c975abb1461022d578063715018a61461024b578063731133e9146102555780638456cb59146102715761010a565b80631f7fdffa116100de5780631f7fdffa146101bb5780632eb2c2d6146101d75780633f4ba83a146101f35780634e1273f4146101fd5761010a565b8062fdd58e1461010f57806301ffc9a71461013f57806302fe53051461016f5780630e89341c1461018b575b600080fd5b61012960048036038101906101249190611d95565b61031d565b6040516101369190611de4565b60405180910390f35b61015960048036038101906101549190611e57565b6103e5565b6040516101669190611e9f565b60405180910390f35b61018960048036038101906101849190612000565b6104c7565b005b6101a560048036038101906101a09190612049565b6104db565b6040516101b291906120fe565b60405180910390f35b6101d560048036038101906101d09190612289565b61056f565b005b6101f160048036038101906101ec9190612344565b610589565b005b6101fb61062a565b005b610217600480360381019061021291906124d6565b61063c565b604051610224919061260c565b60405180910390f35b610235610755565b6040516102429190611e9f565b60405180910390f35b61025361076c565b005b61026f600480360381019061026a919061262e565b610780565b005b61027961079a565b005b6102836107ac565b60405161029091906126c0565b60405180910390f35b6102b360048036038101906102ae9190612707565b6107d6565b005b6102cf60048036038101906102ca9190612747565b6107ec565b6040516102dc9190611e9f565b60405180910390f35b6102ff60048036038101906102fa9190612787565b610880565b005b61031b6004803603810190610316919061281e565b610921565b005b60008073ffffffffffffffffffffffffffffffffffffffff168373ffffffffffffffffffffffffffffffffffffffff160361038d576040517f08c379a0000000000000000000000000000000000000000000000000000000008152600401610384906128bd565b60405180910390fd5b60008083815260200190815260200160002060008473ffffffffffffffffffffffffffffffffffffffff1673ffffffffffffffffffffffffffffffffffffffff16815260200190815260200160002054905092915050565b60007fd9b67a26000000000000000000000000000000000000000000000000000000007bffffffffffffffffffffffffffffffffffffffffffffffffffffffff1916827bffffffffffffffffffffffffffffffffffffffffffffffffffffffff191614806104b057507f0e89341c000000000000000000000000000000000000000000000000000000007bffffffffffffffffffffffffffffffffffffffffffffffffffffffff1916827bffffffffffffffffffffffffffffffffffffffffffffffffffffffff1916145b806104c057506104bf826109a4565b5b9050919050565b6104cf610a0e565b6104d881610a8c565b50565b6060600280546104ea9061290c565b80601f01602080910402602001604051908101604052809291908181526020018280546105169061290c565b80156105635780601f1061053857610100808354040283529160200191610563565b820191906000526020600020905b81548152906001019060200180831161054657829003601f168201915b50505050509050919050565b610577610a0e565b61058384848484610aa6565b50505050565b610591610cd2565b73ffffffffffffffffffffffffffffffffffffffff168573ffffffffffffffffffffffffffffffffffffffff1614806105d757506105d6856105d1610cd2565b6107ec565b5b610616576040517f08c379a000000000000000000000000000000000000000000000000000000000815260040161060d906129af565b60405180910390fd5b6106238585858585610cda565b5050505050565b610632610a0e565b61063a610ffb565b565b60608151835114610682576040517f08c379a000000000000000000000000000000000000000000000000000000000815260040161067990612a41565b60405180910390fd5b6000835167ffffffffffffffff81111561069f5761069e611ed5565b5b6040519080825280602002602001820160405280156106cd5781602001602082028036833780820191505090505b50905060005b845181101561074a5761071a8582815181106106f2576106f1612a61565b5b602002602001015185838151811061070d5761070c612a61565b5b602002602001015161031d565b82828151811061072d5761072c612a61565b5b6020026020010181815250508061074390612abf565b90506106d3565b508091505092915050565b6000600360149054906101000a900460ff16905090565b610774610a0e565b61077e600061105e565b565b610788610a0e565b61079484848484611124565b50505050565b6107a2610a0e565b6107aa6112d4565b565b6000600360009054906101000a900473ffffffffffffffffffffffffffffffffffffffff16905090565b6107e86107e1610cd2565b8383611337565b5050565b6000600160008473ffffffffffffffffffffffffffffffffffffffff1673ffffffffffffffffffffffffffffffffffffffff16815260200190815260200160002060008373ffffffffffffffffffffffffffffffffffffffff1673ffffffffffffffffffffffffffffffffffffffff16815260200190815260200160002060009054906101000a900460ff16905092915050565b610888610cd2565b73ffffffffffffffffffffffffffffffffffffffff168573ffffffffffffffffffffffffffffffffffffffff1614806108ce57506108cd856108c8610cd2565b6107ec565b5b61090d576040517f08c379a0000000000000000000000000000000000000000000000000000000008152600401610904906129af565b60405180910390fd5b61091a85858585856114a3565b5050505050565b610929610a0e565b600073ffffffffffffffffffffffffffffffffffffffff168173ffffffffffffffffffffffffffffffffffffffff1603610998576040517f08c379a000000000000000000000000000000000000000000000000000000000815260040161098f90612b79565b60405180910390fd5b6109a18161105e565b50565b60007f01ffc9a7000000000000000000000000000000000000000000000000000000007bffffffffffffffffffffffffffffffffffffffffffffffffffffffff1916827bffffffffffffffffffffffffffffffffffffffffffffffffffffffff1916149050919050565b610a16610cd2565b73ffffffffffffffffffffffffffffffffffffffff16610a346107ac565b73ffffffffffffffffffffffffffffffffffffffff1614610a8a576040517f08c379a0000000000000000000000000000000000000000000000000000000008152600401610a8190612be5565b60405180910390fd5b565b8060029080519060200190610aa2929190611c4a565b5050565b600073ffffffffffffffffffffffffffffffffffffffff168473ffffffffffffffffffffffffffffffffffffffff1603610b15576040517f08c379a0000000000000000000000000000000000000000000000000000000008152600401610b0c90612c77565b60405180910390fd5b8151835114610b59576040517f08c379a0000000000000000000000000000000000000000000000000000000008152600401610b5090612d09565b60405180910390fd5b6000610b63610cd2565b9050610b748160008787878761173e565b60005b8451811015610c2d57838181518110610b9357610b92612a61565b5b6020026020010151600080878481518110610bb157610bb0612a61565b5b6020026020010151815260200190815260200160002060008873ffffffffffffffffffffffffffffffffffffffff1673ffffffffffffffffffffffffffffffffffffffff1681526020019081526020016000206000828254610c139190612d29565b925050819055508080610c2590612abf565b915050610b77565b508473ffffffffffffffffffffffffffffffffffffffff16600073ffffffffffffffffffffffffffffffffffffffff168273ffffffffffffffffffffffffffffffffffffffff167f4a39dc06d4c0dbc64b70af90fd698a233a518aa5d07e595d983b8c0526c8f7fb8787604051610ca5929190612d7f565b60405180910390a4610cbc8160008787878761175c565b610ccb81600087878787611764565b5050505050565b600033905090565b8151835114610d1e576040517f08c379a0000000000000000000000000000000000000000000000000000000008152600401610d1590612d09565b60405180910390fd5b600073ffffffffffffffffffffffffffffffffffffffff168473ffffffffffffffffffffffffffffffffffffffff1603610d8d576040517f08c379a0000000000000000000000000000000000000000000000000000000008152600401610d8490612e28565b60405180910390fd5b6000610d97610cd2565b9050610da781878787878761173e565b60005b8451811015610f58576000858281518110610dc857610dc7612a61565b5b602002602001015190506000858381518110610de757610de6612a61565b5b60200260200101519050600080600084815260200190815260200160002060008b73ffffffffffffffffffffffffffffffffffffffff1673ffffffffffffffffffffffffffffffffffffffff16815260200190815260200160002054905081811015610e88576040517f08c379a0000000000000000000000000000000000000000000000000000000008152600401610e7f90612eba565b60405180910390fd5b81810360008085815260200190815260200160002060008c73ffffffffffffffffffffffffffffffffffffffff1673ffffffffffffffffffffffffffffffffffffffff168152602001908152602001600020819055508160008085815260200190815260200160002060008b73ffffffffffffffffffffffffffffffffffffffff1673ffffffffffffffffffffffffffffffffffffffff1681526020019081526020016000206000828254610f3d9190612d29565b9250508190555050505080610f5190612abf565b9050610daa565b508473ffffffffffffffffffffffffffffffffffffffff168673ffffffffffffffffffffffffffffffffffffffff168273ffffffffffffffffffffffffffffffffffffffff167f4a39dc06d4c0dbc64b70af90fd698a233a518aa5d07e595d983b8c0526c8f7fb8787604051610fcf929190612d7f565b60405180910390a4610fe581878787878761175c565b610ff3818787878787611764565b505050505050565b61100361193b565b6000600360146101000a81548160ff0219169083151502179055507f5db9ee0a495bf2e6ff9c91a7834c1ba4fdd244a5e8aa4e537bd38aeae4b073aa611047610cd2565b60405161105491906126c0565b60405180910390a1565b6000600360009054906101000a900473ffffffffffffffffffffffffffffffffffffffff16905081600360006101000a81548173ffffffffffffffffffffffffffffffffffffffff021916908373ffffffffffffffffffffffffffffffffffffffff1602179055508173ffffffffffffffffffffffffffffffffffffffff168173ffffffffffffffffffffffffffffffffffffffff167f8be0079c531659141344cd1fd0a4f28419497f9722a3daafe3b4186f6b6457e060405160405180910390a35050565b600073ffffffffffffffffffffffffffffffffffffffff168473ffffffffffffffffffffffffffffffffffffffff1603611193576040517f08c379a000000000000000000000000000000000000000000000000000000000815260040161118a90612c77565b60405180910390fd5b600061119d610cd2565b905060006111aa85611984565b905060006111b785611984565b90506111c88360008985858961173e565b8460008088815260200190815260200160002060008973ffffffffffffffffffffffffffffffffffffffff1673ffffffffffffffffffffffffffffffffffffffff16815260200190815260200160002060008282546112279190612d29565b925050819055508673ffffffffffffffffffffffffffffffffffffffff16600073ffffffffffffffffffffffffffffffffffffffff168473ffffffffffffffffffffffffffffffffffffffff167fc3d58168c5ae7397731d063d5bbf3d657854427343f4c083240f7aacaa2d0f6289896040516112a5929190612eda565b60405180910390a46112bc8360008985858961175c565b6112cb836000898989896119fe565b50505050505050565b6112dc611bd5565b6001600360146101000a81548160ff0219169083151502179055507f62e78cea01bee320cd4e420270b5ea74000d11b0c9f74754ebdbfc544b05a258611320610cd2565b60405161132d91906126c0565b60405180910390a1565b8173ffffffffffffffffffffffffffffffffffffffff168373ffffffffffffffffffffffffffffffffffffffff16036113a5576040517f08c379a000000000000000000000000000000000000000000000000000000000815260040161139c90612f75565b60405180910390fd5b80600160008573ffffffffffffffffffffffffffffffffffffffff1673ffffffffffffffffffffffffffffffffffffffff16815260200190815260200160002060008473ffffffffffffffffffffffffffffffffffffffff1673ffffffffffffffffffffffffffffffffffffffff16815260200190815260200160002060006101000a81548160ff0219169083151502179055508173ffffffffffffffffffffffffffffffffffffffff168373ffffffffffffffffffffffffffffffffffffffff167f17307eab39ab6107e8899845ad3d59bd9653f200f220920489ca2b5937696c31836040516114969190611e9f565b60405180910390a3505050565b600073ffffffffffffffffffffffffffffffffffffffff168473ffffffffffffffffffffffffffffffffffffffff1603611512576040517f08c379a000000000000000000000000000000000000000000000000000000000815260040161150990612e28565b60405180910390fd5b600061151c610cd2565b9050600061152985611984565b9050600061153685611984565b905061154683898985858961173e565b600080600088815260200190815260200160002060008a73ffffffffffffffffffffffffffffffffffffffff1673ffffffffffffffffffffffffffffffffffffffff168152602001908152602001600020549050858110156115dd576040517f08c379a00000000000000000000000000000000000000000000000000000000081526004016115d490612eba565b60405180910390fd5b85810360008089815260200190815260200160002060008b73ffffffffffffffffffffffffffffffffffffffff1673ffffffffffffffffffffffffffffffffffffffff168152602001908152602001600020819055508560008089815260200190815260200160002060008a73ffffffffffffffffffffffffffffffffffffffff1673ffffffffffffffffffffffffffffffffffffffff16815260200190815260200160002060008282546116929190612d29565b925050819055508773ffffffffffffffffffffffffffffffffffffffff168973ffffffffffffffffffffffffffffffffffffffff168573ffffffffffffffffffffffffffffffffffffffff167fc3d58168c5ae7397731d063d5bbf3d657854427343f4c083240f7aacaa2d0f628a8a60405161170f929190612eda565b60405180910390a4611725848a8a86868a61175c565b611733848a8a8a8a8a6119fe565b505050505050505050565b611746611bd5565b611754868686868686611c1f565b505050505050565b505050505050565b6117838473ffffffffffffffffffffffffffffffffffffffff16611c27565b15611933578373ffffffffffffffffffffffffffffffffffffffff1663bc197c8187878686866040518663ffffffff1660e01b81526004016117c9959493929190612fea565b6020604051808303816000875af192505050801561180557506040513d601f19601f820116820180604052508101906118029190613067565b60015b6118aa576118116130a1565b806308c379a00361186d57506118256130c3565b80611830575061186f565b806040517f08c379a000000000000000000000000000000000000000000000000000000000815260040161186491906120fe565b60405180910390fd5b505b6040517f08c379a00000000000000000000000000000000000000000000000000000000081526004016118a1906131c5565b60405180910390fd5b63bc197c8160e01b7bffffffffffffffffffffffffffffffffffffffffffffffffffffffff1916817bffffffffffffffffffffffffffffffffffffffffffffffffffffffff191614611931576040517f08c379a000000000000000000000000000000000000000000000000000000000815260040161192890613257565b60405180910390fd5b505b505050505050565b611943610755565b611982576040517f08c379a0000000000000000000000000000000000000000000000000000000008152600401611979906132c3565b60405180910390fd5b565b60606000600167ffffffffffffffff8111156119a3576119a2611ed5565b5b6040519080825280602002602001820160405280156119d15781602001602082028036833780820191505090505b50905082816000815181106119e9576119e8612a61565b5b60200260200101818152505080915050919050565b611a1d8473ffffffffffffffffffffffffffffffffffffffff16611c27565b15611bcd578373ffffffffffffffffffffffffffffffffffffffff1663f23a6e6187878686866040518663ffffffff1660e01b8152600401611a639594939291906132e3565b6020604051808303816000875af1925050508015611a9f57506040513d601f19601f82011682018060405250810190611a9c9190613067565b60015b611b4457611aab6130a1565b806308c379a003611b075750611abf6130c3565b80611aca5750611b09565b806040517f08c379a0000000000000000000000000000000000000000000000000000000008152600401611afe91906120fe565b60405180910390fd5b505b6040517f08c379a0000000000000000000000000000000000000000000000000000000008152600401611b3b906131c5565b60405180910390fd5b63f23a6e6160e01b7bffffffffffffffffffffffffffffffffffffffffffffffffffffffff1916817bffffffffffffffffffffffffffffffffffffffffffffffffffffffff191614611bcb576040517f08c379a0000000000000000000000000000000000000000000000000000000008152600401611bc290613257565b60405180910390fd5b505b505050505050565b611bdd610755565b15611c1d576040517f08c379a0000000000000000000000000000000000000000000000000000000008152600401611c1490613389565b60405180910390fd5b565b505050505050565b6000808273ffffffffffffffffffffffffffffffffffffffff163b119050919050565b828054611c569061290c565b90600052602060002090601f016020900481019282611c785760008555611cbf565b82601f10611c9157805160ff1916838001178555611cbf565b82800160010185558215611cbf579182015b82811115611cbe578251825591602001919060010190611ca3565b5b509050611ccc9190611cd0565b5090565b5b80821115611ce9576000816000905550600101611cd1565b5090565b6000604051905090565b600080fd5b600080fd5b600073ffffffffffffffffffffffffffffffffffffffff82169050919050565b6000611d2c82611d01565b9050919050565b611d3c81611d21565b8114611d4757600080fd5b50565b600081359050611d5981611d33565b92915050565b6000819050919050565b611d7281611d5f565b8114611d7d57600080fd5b50565b600081359050611d8f81611d69565b92915050565b60008060408385031215611dac57611dab611cf7565b5b6000611dba85828601611d4a565b9250506020611dcb85828601611d80565b9150509250929050565b611dde81611d5f565b82525050565b6000602082019050611df96000830184611dd5565b92915050565b60007fffffffff0000000000000000000000000000000000000000000000000000000082169050919050565b611e3481611dff565b8114611e3f57600080fd5b50565b600081359050611e5181611e2b565b92915050565b600060208284031215611e6d57611e6c611cf7565b5b6000611e7b84828501611e42565b91505092915050565b60008115159050919050565b611e9981611e84565b82525050565b6000602082019050611eb46000830184611e90565b92915050565b600080fd5b600080fd5b6000601f19601f8301169050919050565b7f4e487b7100000000000000000000000000000000000000000000000000000000600052604160045260246000fd5b611f0d82611ec4565b810181811067ffffffffffffffff82111715611f2c57611f2b611ed5565b5b80604052505050565b6000611f3f611ced565b9050611f4b8282611f04565b919050565b600067ffffffffffffffff821115611f6b57611f6a611ed5565b5b611f7482611ec4565b9050602081019050919050565b82818337600083830152505050565b6000611fa3611f9e84611f50565b611f35565b905082815260208101848484011115611fbf57611fbe611ebf565b5b611fca848285611f81565b509392505050565b600082601f830112611fe757611fe6611eba565b5b8135611ff7848260208601611f90565b91505092915050565b60006020828403121561201657612015611cf7565b5b600082013567ffffffffffffffff81111561203457612033611cfc565b5b61204084828501611fd2565b91505092915050565b60006020828403121561205f5761205e611cf7565b5b600061206d84828501611d80565b91505092915050565b600081519050919050565b600082825260208201905092915050565b60005b838110156120b0578082015181840152602081019050612095565b838111156120bf576000848401525b50505050565b60006120d082612076565b6120da8185612081565b93506120ea818560208601612092565b6120f381611ec4565b840191505092915050565b6000602082019050818103600083015261211881846120c5565b905092915050565b600067ffffffffffffffff82111561213b5761213a611ed5565b5b602082029050602081019050919050565b600080fd5b600061216461215f84612120565b611f35565b905080838252602082019050602084028301858111156121875761218661214c565b5b835b818110156121b0578061219c8882611d80565b845260208401935050602081019050612189565b5050509392505050565b600082601f8301126121cf576121ce611eba565b5b81356121df848260208601612151565b91505092915050565b600067ffffffffffffffff82111561220357612202611ed5565b5b61220c82611ec4565b9050602081019050919050565b600061222c612227846121e8565b611f35565b90508281526020810184848401111561224857612247611ebf565b5b612253848285611f81565b509392505050565b600082601f8301126122705761226f611eba565b5b8135612280848260208601612219565b91505092915050565b600080600080608085870312156122a3576122a2611cf7565b5b60006122b187828801611d4a565b945050602085013567ffffffffffffffff8111156122d2576122d1611cfc565b5b6122de878288016121ba565b935050604085013567ffffffffffffffff8111156122ff576122fe611cfc565b5b61230b878288016121ba565b925050606085013567ffffffffffffffff81111561232c5761232b611cfc565b5b6123388782880161225b565b91505092959194509250565b600080600080600060a086880312156123605761235f611cf7565b5b600061236e88828901611d4a565b955050602061237f88828901611d4a565b945050604086013567ffffffffffffffff8111156123a05761239f611cfc565b5b6123ac888289016121ba565b935050606086013567ffffffffffffffff8111156123cd576123cc611cfc565b5b6123d9888289016121ba565b925050608086013567ffffffffffffffff8111156123fa576123f9611cfc565b5b6124068882890161225b565b9150509295509295909350565b600067ffffffffffffffff82111561242e5761242d611ed5565b5b602082029050602081019050919050565b600061245261244d84612413565b611f35565b905080838252602082019050602084028301858111156124755761247461214c565b5b835b8181101561249e578061248a8882611d4a565b845260208401935050602081019050612477565b5050509392505050565b600082601f8301126124bd576124bc611eba565b5b81356124cd84826020860161243f565b91505092915050565b600080604083850312156124ed576124ec611cf7565b5b600083013567ffffffffffffffff81111561250b5761250a611cfc565b5b612517858286016124a8565b925050602083013567ffffffffffffffff81111561253857612537611cfc565b5b612544858286016121ba565b9150509250929050565b600081519050919050565b600082825260208201905092915050565b6000819050602082019050919050565b61258381611d5f565b82525050565b6000612595838361257a565b60208301905092915050565b6000602082019050919050565b60006125b98261254e565b6125c38185612559565b93506125ce8361256a565b8060005b838110156125ff5781516125e68882612589565b97506125f1836125a1565b9250506001810190506125d2565b5085935050505092915050565b6000602082019050818103600083015261262681846125ae565b905092915050565b6000806000806080858703121561264857612647611cf7565b5b600061265687828801611d4a565b945050602061266787828801611d80565b935050604061267887828801611d80565b925050606085013567ffffffffffffffff81111561269957612698611cfc565b5b6126a58782880161225b565b91505092959194509250565b6126ba81611d21565b82525050565b60006020820190506126d560008301846126b1565b92915050565b6126e481611e84565b81146126ef57600080fd5b50565b600081359050612701816126db565b92915050565b6000806040838503121561271e5761271d611cf7565b5b600061272c85828601611d4a565b925050602061273d858286016126f2565b9150509250929050565b6000806040838503121561275e5761275d611cf7565b5b600061276c85828601611d4a565b925050602061277d85828601611d4a565b9150509250929050565b600080600080600060a086880312156127a3576127a2611cf7565b5b60006127b188828901611d4a565b95505060206127c288828901611d4a565b94505060406127d388828901611d80565b93505060606127e488828901611d80565b925050608086013567ffffffffffffffff81111561280557612804611cfc565b5b6128118882890161225b565b9150509295509295909350565b60006020828403121561283457612833611cf7565b5b600061284284828501611d4a565b91505092915050565b7f455243313135353a2061646472657373207a65726f206973206e6f742061207660008201527f616c6964206f776e657200000000000000000000000000000000000000000000602082015250565b60006128a7602a83612081565b91506128b28261284b565b604082019050919050565b600060208201905081810360008301526128d68161289a565b9050919050565b7f4e487b7100000000000000000000000000000000000000000000000000000000600052602260045260246000fd5b6000600282049050600182168061292457607f821691505b602082108103612937576129366128dd565b5b50919050565b7f455243313135353a2063616c6c6572206973206e6f7420746f6b656e206f776e60008201527f6572206f7220617070726f766564000000000000000000000000000000000000602082015250565b6000612999602e83612081565b91506129a48261293d565b604082019050919050565b600060208201905081810360008301526129c88161298c565b9050919050565b7f455243313135353a206163636f756e747320616e6420696473206c656e67746860008201527f206d69736d617463680000000000000000000000000000000000000000000000602082015250565b6000612a2b602983612081565b9150612a36826129cf565b604082019050919050565b60006020820190508181036000830152612a5a81612a1e565b9050919050565b7f4e487b7100000000000000000000000000000000000000000000000000000000600052603260045260246000fd5b7f4e487b7100000000000000000000000000000000000000000000000000000000600052601160045260246000fd5b6000612aca82611d5f565b91507fffffffffffffffffffffffffffffffffffffffffffffffffffffffffffffffff8203612afc57612afb612a90565b5b600182019050919050565b7f4f776e61626c653a206e6577206f776e657220697320746865207a65726f206160008201527f6464726573730000000000000000000000000000000000000000000000000000602082015250565b6000612b63602683612081565b9150612b6e82612b07565b604082019050919050565b60006020820190508181036000830152612b9281612b56565b9050919050565b7f4f776e61626c653a2063616c6c6572206973206e6f7420746865206f776e6572600082015250565b6000612bcf602083612081565b9150612bda82612b99565b602082019050919050565b60006020820190508181036000830152612bfe81612bc2565b9050919050565b7f455243313135353a206d696e7420746f20746865207a65726f2061646472657360008201527f7300000000000000000000000000000000000000000000000000000000000000602082015250565b6000612c61602183612081565b9150612c6c82612c05565b604082019050919050565b60006020820190508181036000830152612c9081612c54565b9050919050565b7f455243313135353a2069647320616e6420616d6f756e7473206c656e6774682060008201527f6d69736d61746368000000000000000000000000000000000000000000000000602082015250565b6000612cf3602883612081565b9150612cfe82612c97565b604082019050919050565b60006020820190508181036000830152612d2281612ce6565b9050919050565b6000612d3482611d5f565b9150612d3f83611d5f565b9250827fffffffffffffffffffffffffffffffffffffffffffffffffffffffffffffffff03821115612d7457612d73612a90565b5b828201905092915050565b60006040820190508181036000830152612d9981856125ae565b90508181036020830152612dad81846125ae565b90509392505050565b7f455243313135353a207472616e7366657220746f20746865207a65726f20616460008201527f6472657373000000000000000000000000000000000000000000000000000000602082015250565b6000612e12602583612081565b9150612e1d82612db6565b604082019050919050565b60006020820190508181036000830152612e4181612e05565b9050919050565b7f455243313135353a20696e73756666696369656e742062616c616e636520666f60008201527f72207472616e7366657200000000000000000000000000000000000000000000602082015250565b6000612ea4602a83612081565b9150612eaf82612e48565b604082019050919050565b60006020820190508181036000830152612ed381612e97565b9050919050565b6000604082019050612eef6000830185611dd5565b612efc6020830184611dd5565b9392505050565b7f455243313135353a2073657474696e6720617070726f76616c2073746174757360008201527f20666f722073656c660000000000000000000000000000000000000000000000602082015250565b6000612f5f602983612081565b9150612f6a82612f03565b604082019050919050565b60006020820190508181036000830152612f8e81612f52565b9050919050565b600081519050919050565b600082825260208201905092915050565b6000612fbc82612f95565b612fc68185612fa0565b9350612fd6818560208601612092565b612fdf81611ec4565b840191505092915050565b600060a082019050612fff60008301886126b1565b61300c60208301876126b1565b818103604083015261301e81866125ae565b9050818103606083015261303281856125ae565b905081810360808301526130468184612fb1565b90509695505050505050565b60008151905061306181611e2b565b92915050565b60006020828403121561307d5761307c611cf7565b5b600061308b84828501613052565b91505092915050565b60008160e01c9050919050565b600060033d11156130c05760046000803e6130bd600051613094565b90505b90565b600060443d10613150576130d5611ced565b60043d036004823e80513d602482011167ffffffffffffffff821117156130fd575050613150565b808201805167ffffffffffffffff81111561311b5750505050613150565b80602083010160043d038501811115613138575050505050613150565b61314782602001850186611f04565b82955050505050505b90565b7f455243313135353a207472616e7366657220746f206e6f6e2d4552433131353560008201527f526563656976657220696d706c656d656e746572000000000000000000000000602082015250565b60006131af603483612081565b91506131ba82613153565b604082019050919050565b600060208201905081810360008301526131de816131a2565b9050919050565b7f455243313135353a204552433131353552656365697665722072656a6563746560008201527f6420746f6b656e73000000000000000000000000000000000000000000000000602082015250565b6000613241602883612081565b915061324c826131e5565b604082019050919050565b6000602082019050818103600083015261327081613234565b9050919050565b7f5061757361626c653a206e6f7420706175736564000000000000000000000000600082015250565b60006132ad601483612081565b91506132b882613277565b602082019050919050565b600060208201905081810360008301526132dc816132a0565b9050919050565b600060a0820190506132f860008301886126b1565b61330560208301876126b1565b6133126040830186611dd5565b61331f6060830185611dd5565b81810360808301526133318184612fb1565b90509695505050505050565b7f5061757361626c653a2070617573656400000000000000000000000000000000600082015250565b6000613373601083612081565b915061337e8261333d565b602082019050919050565b600060208201905081810360008301526133a281613366565b905091905056fea2646970667358221220212c450103596e08fa20ebb8208cd3b91089794df07707605bf84d23c950b2ab64736f6c634300080d0033",
  "linkReferences": {},
  "deployedLinkReferences": {}
}